:100000000C942A000C9432030C945B030C9484032C
:100010000C9447000C9447000C94E4050C940D06D6
:100020000C9436060C945F060C9458050C948105CC
:100030000C942F050C9488060C94B1060C94DA06E7
:100040000C9409030C9447000C9447000C9447004F
:100050000C94470011241FBECFE5D8E0DEBFCDBF12
:1000600010E0A0E6B0E0EAE0FEE002C005900D92EC
:10007000A838B107D9F720E0A8E8B0E001C01D9288
:10008000A53AB207E1F70E94EF000C9403070C9425
:10009000000060E081E00E94D70280E690E00E94CC
:1000A000C4020E9428058093880060E082E00E94DC
:1000B000D7028CE690E00E94C40265E082E00E94D4
:1000C000D702809188000E94450260E083E00E9490
:1000D000D70282E790E00E94C40208950E94FF01C7
:1000E00060E080E00E94D70288E790E00E94C402AE
:1000F00083ED90E30197F1F700C000000E94FF0438
:100100000E94AD030E94EE020E94C0050E94F6000C
:1001100041E064E080E00E94B10341E065E080E0FE
:100120000E94B10341E066E080E00E94B1030895BF
:1001300080918800853719F40E94F5020895893767
:1001400019F40E94FA0208958A3619F40E94FF02F7
:100150000895883619F40E9404030895873799F4A6
:1001600082E00E94150141E065E080E00E943704D2
:1001700040E066E080E00E94370440E064E080E018
:100180000E94370408958837B1F481E00E94150178
:1001900040E066E080E00E94370464E080E00E9476
:1001A000BD042FEB84ED91E0215080409040E1F7B9
:1001B00000C000000895833761F40E946B0141E0A4
:1001C00066E080E00E94370440E065E080E00E9445
:1001D0003704089589E490E00E942A0508950E945A
:1001E0006E000E94EA000E949800FDCF41E060E0AE
:1001F00082E00E94B10341E061E082E00E94B1032D
:1002000041E062E082E00E94B10341E064E082E00C
:100210000E94B10341E065E082E00E94B10341E049
:1002200063E082E00E94B1030895813001F18230E1
:10023000E9F541E062E00E94370441E060E082E0DD
:100240000E94370440E061E082E00E94370441E010
:1002500063E082E00E94370441E064E082E00E94B3
:10026000370440E065E082E00E943704089541E0F1
:1002700062E082E00E94370440E060E082E00E9499
:10028000370441E061E082E00E94370441E063E02E
:1002900082E00E94370440E064E082E00E9437047C
:1002A00041E065E082E00E943704089540E060E0AC
:1002B00082E00E94370440E061E082E00E9437045F
:1002C00040E064E082E00E94370440E065E082E0C4
:1002D0000E943704089540E060E082E00E94370405
:1002E00040E061E082E00E94370440E064E082E0A8
:1002F0000E94370440E065E082E00E9437040895E0
:10030000CF93C82F40E063E080E00E94370489EF7C
:1003100090E00197F1F700C0000041E062E080E06A
:100320000E94370489EF90E00197F1F700C00000C8
:10033000C4FB442740F960E081E00E943704C5FB1C
:10034000442740F961E081E00E943704C6FB44275E
:1003500040F962E081E00E9437044C2F441F44279B
:10036000441F63E081E00E94370489EF90E0019729
:10037000F1F700C0000040E062E080E00E94370436
:1003800089EF90E00197F1F700C0000041E062E0E2
:1003900080E00E94370489EF90E00197F1F700C0F8
:1003A00000004C2F417060E081E00E943704C1FBE7
:1003B000442740F961E081E00E943704C2FB4427F2
:1003C00040F962E081E00E943704C3FB442740F912
:1003D00063E081E00E94370489EF90E00197F1F734
:1003E00000C0000040E062E080E00E94370489EF36
:1003F00090E00197F1F700C00000CF91089541E02F
:1004000063E080E00E94B10341E062E080E00E948E
:10041000B10387E893E10197F1F700C0000041E0E4
:1004200060E081E00E94B10341E061E081E00E9470
:10043000B10341E062E081E00E94B10341E063E08A
:1004400081E00E94B10383E30E94800182E30E9465
:10045000800188E20E94800183EF91E00197F1F72B
:1004600000C000008CE00E94800183EF91E00197C2
:10047000F1F700C0000081E00E94800183EF91E06D
:100480000197F1F700C000000895CF93C82F41E015
:1004900063E080E00E94370489EF90E00197F1F774
:1004A00000C0000041E062E080E00E94370489EF74
:1004B00090E00197F1F700C00000C4FB442740F929
:1004C00060E081E00E943704C5FB442740F961E009
:1004D00081E00E943704C6FB442740F962E081E0D6
:1004E0000E9437044C2F441F4427441F63E081E0DF
:1004F0000E94370489EF90E00197F1F700C00000F7
:1005000040E062E080E00E94370489EF90E00197CC
:10051000F1F700C0000041E062E080E00E94370493
:1005200089EF90E00197F1F700C000004C2F417077
:1005300060E081E00E943704C1FB442740F961E09C
:1005400081E00E943704C2FB442740F962E081E069
:100550000E943704C3FB442740F963E081E00E9416
:10056000370489EF90E00197F1F700C0000040E008
:1005700062E080E00E94370489EF90E00197F1F794
:1005800000C00000CF9108950F931F93CF938C016B
:10059000C0E003C00E944502CF5FF801EC0FF11DDF
:1005A00080818111F7CFCF911F910F9108958130F4
:1005B00031F070F0823031F0833039F00AC090E4CD
:1005C000960F07C090E1960F04C090E5960F01C00A
:1005D000962F892F80680E94800108950E94AA05A5
:1005E00080E29EE40E94E10508958EEE92E00E9472
:1005F000C50508958BED95E00E94C50508958EEE22
:1006000092E00E94D30508958BED95E00E94D305FA
:1006100008951F920F920FB60F9211242F933F93BC
:100620004F935F936F937F938F939F93AF93BF93FA
:10063000EF93FF93E0918D00F0918E00309709F0D9
:100640000995FF91EF91BF91AF919F918F917F910C
:100650006F915F914F913F912F910F900FBE0F902F
:100660001F9018951F920F920FB60F9211242F937F
:100670003F934F935F936F937F938F939F93AF932A
:10068000BF93EF93FF93E0919100F0919200309728
:1006900009F00995FF91EF91BF91AF919F918F91D3
:1006A0007F916F915F914F913F912F910F900FBE6E
:1006B0000F901F9018951F920F920FB60F92112452
:1006C0002F933F934F935F936F937F938F939F935A
:1006D000AF93BF93EF93FF93E0919300F091940059
:1006E000309709F00995FF91EF91BF91AF919F91DC
:1006F0008F917F916F915F914F913F912F910F90CB
:100700000FBE0F901F9018951F920F920FB60F9269
:1007100011242F933F934F935F936F937F938F9306
:100720009F93AF93BF93EF93FF93E0918F00F0916E
:100730009000309709F00995FF91EF91BF91AF912B
:100740009F918F917F916F915F914F913F912F91E9
:100750000F900FBE0F901F9018958FB780688FBFB6
:100760000895683008F07BC0843008F07AC04230C9
:1007700008F079C0813011F130F08230D1F183304E
:1007800009F452C072C0413061F42AB381E090E0B4
:1007900002C0880F991F6A95E2F7822B8ABB80E01E
:1007A00008952AB381E090E002C0880F991F6A95EE
:1007B000E2F7809582238ABB80E00895413061F49E
:1007C00027B381E090E002C0880F991F6A95E2F795
:1007D000822B87BB80E0089527B381E090E002C0C0
:1007E000880F991F6A95E2F78095822387BB80E086
:1007F0000895413061F424B381E090E002C0880F95
:10080000991F6A95E2F7822B84BB80E0089524B398
:1008100081E090E002C0880F991F6A95E2F7809509
:10082000822384BB80E00895413061F421B381E0EC
:1008300090E002C0880F991F6A95E2F7822B81BB76
:1008400080E0089521B381E090E002C0880F991FF5
:100850006A95E2F78095822381BB80E0089581E06C
:10086000089582E0089583E0089580E00895683057
:1008700008F07BC0843008F07AC0423008F079C0BC
:10088000813011F130F08230D1F1833009F452C05F
:1008900072C0413061F42BB381E090E002C0880F58
:1008A000991F6A95E2F7822B8BBB80E008952BB3EA
:1008B00081E090E002C0880F991F6A95E2F7809569
:1008C00082238BBB80E00895413061F428B381E03E
:1008D00090E002C0880F991F6A95E2F7822B88BBCF
:1008E00080E0089528B381E090E002C0880F991F4E
:1008F0006A95E2F78095822388BB80E008954130B5
:1009000061F425B381E090E002C0880F991F6A95D9
:10091000E2F7822B85BB80E0089525B381E090E06B
:1009200002C0880F991F6A95E2F78095822385BBE4
:1009300080E00895413061F422B381E090E002C08C
:10094000880F991F6A95E2F7822B82BB80E0089599
:1009500022B381E090E002C0880F991F6A95E2F708
:100960008095822382BB80E0089581E0089582E033
:10097000089583E0089580E008956830D0F58430CC
:10098000D0F5813091F028F08230D9F0833029F110
:1009900034C02BB381E090E002C0880F991F6A95A4
:1009A000E2F782278BBB80E0089528B381E090E0D6
:1009B00002C0880F991F6A95E2F7822788BB80E002
:1009C000089525B381E090E002C0880F991F6A95D1
:1009D000E2F7822785BB80E0089522B381E090E0B2
:1009E00002C0880F991F6A95E2F7822782BB80E0D8
:1009F000089581E0089582E0089580E0089540E040
:100A000064E081E00E94B10340E065E081E00E9483
:100A1000B10341E066E081E00E94B10340E067E09D
:100A200081E00E94B10340E064E081E00E9437046D
:100A30008DB18F7E8DB98DB181608DB98DB18D7F76
:100A40008DB98DB180648DB98DB180688DB90895EF
:100A50008FB10895909396008093950008951F920A
:100A60000F920FB60F9211242F933F934F935F93E2
:100A70006F937F938F939F93AF93BF93EF93FF9366
:100A8000E0919500F0919600309709F00995FF915B
:100A9000EF91BF91AF919F918F917F916F915F91F6
:100AA0004F913F912F910F900FBE0F901F9018956F
:100AB0001F920F920FB60F9211242F933F934F93D3
:100AC0005F936F937F938F939F93AF93BF93EF93B6
:100AD000FF93E0918B00F0918C00309709F009951D
:100AE000FF91EF91BF91AF919F918F917F916F9106
:100AF0005F914F913F912F910F900FBE0F901F90DC
:100B000018951F920F920FB60F9211242F933F93B7
:100B10004F935F936F937F938F939F93AF93BF9305
:100B2000EF93FF93E0918900F0918A00309709F0EC
:100B30000995FF91EF91BF91AF919F918F917F9117
:100B40006F915F914F913F912F910F900FBE0F903A
:100B50001F9018958FB5877F8FBD8FB58B7F8FBD09
:100B60008FB58C7F82608FBD8EB588618EBD8FB54D
:100B70008F7C80628FBD8FB58F7380688FBD089525
:100B80008EB5887F82608EBD0895CF93DF93EC0190
:100B900041E065E083E00E94B103DBBDCABDCE0148
:100BA000DF91CF910895CF93DF93EC0141E064E0B2
:100BB00083E00E94B103D9BDC8BDCE01DF91CF91C2
:100BC000089597BD86BD08951F920F920FB60F929C
:100BD00011242F933F934F935F936F937F938F9342
:100BE0009F93AF93BF93EF93FF93E0919B00F0919E
:100BF0009C00309709F00995FF91EF91BF91AF915B
:100C00009F918F917F916F915F914F913F912F9124
:100C10000F900FBE0F901F9018951F920F920FB656
:100C20000F9211242F933F934F935F936F937F9372
:100C30008F939F93AF93BF93EF93FF93E0919D00AA
:100C4000F0919E00309709F00995FF91EF91BF91C7
:100C5000AF919F918F917F916F915F914F913F9154
:100C60002F910F900FBE0F901F9018951F920F920B
:100C70000FB60F9211242F933F934F935F936F936F
:100C80007F938F939F93AF93BF93EF93FF93E091E5
:100C90009700F0919800309709F00995FF91EF9136
:100CA000BF91AF919F918F917F916F915F914F9184
:100CB0003F912F910F900FBE0F901F9018951F928C
:100CC0000F920FB60F9211242F933F934F935F9380
:100CD0006F937F938F939F93AF93BF93EF93FF9304
:100CE000E0919900F0919A00309709F00995FF91F1
:100CF000EF91BF91AF919F918F917F916F915F9194
:100D00004F913F912F910F900FBE0F901F9018950C
:100D10001F920F920FB60F9211242F933F934F9370
:100D20005F936F937F938F939F93AF93BF93EF9353
:100D3000FF93E0919F00F091A000309709F0099592
:100D4000FF91EF91BF91AF919F918F917F916F91A3
:100D50005F914F913F912F910F900FBE0F901F9079
:100D600018951F920F920FB60F9211242F933F9355
:100D70004F935F936F937F938F939F93AF93BF93A3
:100D8000EF93FF93E091A300F091A400309709F056
:100D90000995FF91EF91BF91AF919F918F917F91B5
:100DA0006F915F914F913F912F910F900FBE0F90D8
:100DB0001F9018951F920F920FB60F9211242F9328
:100DC0003F934F935F936F937F938F939F93AF93D3
:100DD000BF93EF93FF93E091A100F091A2003097B1
:100DE00009F00995FF91EF91BF91AF919F918F917C
:100DF0007F916F915F914F913F912F910F900FBE17
:0A0E00000F901F901895F894FFCF93
:100E0A00526563656976696E672E2E005278443A98
:100E1A002000446F6E652100534C415645322052E2
:080E2A0045434549564500000F
:00000001FF
