S015000054657374657250726F6A6563742E73726563C1
S11300000C9434000C943E000C943E000C943E007E
S11300100C943E000C943E000C943E000C943E0064
S11300200C943E000C943E000C943E000C943E0054
S11300300C943E000C943E000C943E000C943E0044
S11300400C943E000C943E000C943E000C943E0034
S11300500C943E00CD00E200F7000C0121013601B2
S11300604B01600175018A0111241FBECFE5D8E060
S1130070DEBFCDBF0E9440000C94B6020C94000079
S113008067E081E00E946F0066E080E00E946F00FC
S113009065E080E00E946F0064E080E00E946F00F1
S11300A081E00E94960067E081E00E947C0067E0A6
S11300B081E00E948900C0E0D0E00DC06C2F81E097
S11300C00E94BD0067E081E00E947C0067E081E05F
S11300D00E9489002196CA30D10584F3ECCF6830A0
S11300E038F4843038F441E00E94A40180E008959B
S11300F081E0089582E00895683038F4843038F45B
S113010041E00E942A0280E0089581E0089582E09F
S11301100895683038F4843038F440E00E942A02AC
S113012080E0089581E0089582E00895CF938430BB
S113013008F5C82F41E062E080E00E94A40141E09C
S113014063E080E00E94A40141E060E08C2F0E9403
S1130150A40141E061E08C2F0E94A40141E062E02F
S11301608C2F0E94A40141E064E08C2F0E94A40122
S113017080E001C082E0CF910895CF93843008F0ED
S1130180DEC0462F50E04A30510508F0DAC0C82FCF
S1130190FA01E65DFF4F0C94B00240E060E00E947B
S11301A02A0240E061E08C2F0E942A0240E062E0D3
S11301B08C2F0E942A0240E064E08C2F0E942A02C5
S11301C080E0C0C041E060E00E942A0240E061E0BB
S11301D08C2F0E942A0240E062E08C2F0E942A02A7
S11301E040E064E08C2F0E942A0280E0ABC040E033
S11301F060E00E942A0241E061E08C2F0E942A0202
S113020040E062E08C2F0E942A0240E064E08C2FE0
S11302100E942A0280E096C041E060E00E942A0227
S113022041E061E08C2F0E942A0240E062E08C2FC2
S11302300E942A0240E064E08C2F0E942A0280E09F
S113024081C040E060E00E942A0240E061E08C2F1F
S11302500E942A0241E062E08C2F0E942A0240E0C0
S113026064E08C2F0E942A0280E06CC041E060E0D0
S11302700E942A0240E061E08C2F0E942A0241E0A1
S113028062E08C2F0E942A0240E064E08C2F0E94DE
S11302902A0280E057C040E060E00E942A0241E068
S11302A061E08C2F0E942A0241E062E08C2F0E94C0
S11302B02A0240E064E08C2F0E942A0280E042C0BF
S11302C041E060E00E942A0241E061E08C2F0E943C
S11302D02A0241E062E08C2F0E942A0240E064E09E
S11302E08C2F0E942A0280E02DC040E060E00E9432
S11302F02A0240E061E08C2F0E942A0240E062E082
S11303008C2F0E942A0241E064E08C2F0E942A0272
S113031080E018C041E060E00E942A0240E061E011
S11303208C2F0E942A0240E062E08C2F0E942A0255
S113033041E064E08C2F0E942A0280E003C082E046
S113034001C080E0CF910895683008F07BC084300C
S113035008F07AC0423008F079C0813011F130F0F1
S11303608230D1F1833009F452C072C0413061F45B
S11303702AB381E090E002C0880F991F6A95E2F7E2
S1130380822B8ABB80E008952AB381E090E002C00A
S1130390880F991F6A95E2F7809582238ABB80E0D3
S11303A00895413061F427B381E090E002C0880FE2
S11303B0991F6A95E2F7822B87BB80E0089527B3E3
S11303C081E090E002C0880F991F6A95E2F780955A
S11303D0822387BB80E00895413061F424B381E037
S11303E090E002C0880F991F6A95E2F7822B84BBC4
S11303F080E0089524B381E090E002C0880F991F43
S11304006A95E2F78095822384BB80E008954130A9
S113041061F421B381E090E002C0880F991F6A95CE
S1130420E2F7822B81BB80E0089521B381E090E064
S113043002C0880F991F6A95E2F78095822381BBD9
S113044080E0089581E0089582E0089583E00895AE
S113045080E00895683008F07BC0843008F07AC0EA
S1130460423008F079C0813011F130F08230D1F19E
S1130470833009F452C072C0413061F42BB381E07F
S113048090E002C0880F991F6A95E2F7822B8BBB1C
S113049080E008952BB381E090E002C0880F991F9B
S11304A06A95E2F7809582238BBB80E00895413002
S11304B061F428B381E090E002C0880F991F6A9527
S11304C0E2F7822B88BB80E0089528B381E090E0B6
S11304D002C0880F991F6A95E2F78095822388BB32
S11304E080E00895413061F425B381E090E002C0DA
S11304F0880F991F6A95E2F7822B85BB80E00895E7
S113050025B381E090E002C0880F991F6A95E2F755
S11305108095822385BB80E00895413061F422B345
S113052081E090E002C0880F991F6A95E2F7822B60
S113053082BB80E0089522B381E090E002C0880F7E
S1130540991F6A95E2F78095822382BB80E0089523
S113055081E0089582E0089583E0089580E008959D
S1130560EE0FFF1F0590F491E02D0994F894FFCF4E
S9030000FC
