:100000000C942A000C9447000C9447000C94470071
:100010000C9447000C9447000C9447000C94C41EA9
:100020000C9447000C9447000C9447000C94470034
:100030000C9447000C94970F0C9447000C944700C5
:100040000C9447000C9447000C9447000C94470014
:100050000C94470011241FBECFE5D8E0DEBFCDBF12
:1000600010E0A0E6B0E0E6E2FCE602C005900D92EA
:10007000A83AB107D9F717E0A8EAB0E001C01D928D
:10008000A036B107E1F70E94791B0C9411360C944D
:100090000000EF92FF920F931F937B018C0120E0F1
:1000A00030E040E05FE40E94490388238CF0C801FF
:1000B000B70120E030E040E05FE40E94C1010E940F
:1000C000A9039B01AC01205030404040504806C07D
:1000D000C801B7010E94A9039B01AC01B901CA0183
:1000E0001F910F91FF90EF900895A0E0B0E0EBE733
:1000F000F0E00C94CA35DC012B01FA019C9192309E
:1001000008F439C1EB018881823008F433C194309E
:1001100069F4843009F02FC111969C91119789815F
:10012000981709F428C1A2E9B0E025C1843009F488
:1001300021C18230A9F4923009F01DC19A01AD01AC
:1001400088E0EA010990AE01E90109929E0181501F
:10015000C1F7E201898111969C918923818308C1AD
:10016000923009F407C112962D903C901397EB0141
:100170008A819B811496AD90BD90CD90DC901797AD
:10018000EC80FD800E811F819101281B390BB90184
:1001900037FF04C066277727621B730B6032710537
:1001A0000CF061C0121613066CF537014801062EDB
:1001B00004C096948794779467940A94D2F721E0C8
:1001C00030E040E050E004C0220F331F441F551FB1
:1001D0006A95D2F721503040404050402E213F21B7
:1001E00040235123211531054105510521F021E01E
:1001F00030E040E050E079018A01E628F72808293C
:1002000019293CC0232BD1F1260E371E350146019A
:10021000062E04C096948794779467940A94D2F734
:1002200021E030E040E050E004C0220F331F441FC3
:10023000551F6A95D2F721503040404050402A2146
:100240003B214C215D21211531054105510521F04E
:1002500021E030E040E050E059016A01A628B728CB
:10026000C828D9280BC0821593052CF01C01AA249C
:10027000BB24650103C0EE24FF24870111969C91E5
:10028000D20111968C91981709F445C0992339F041
:10029000A80197012A193B094C095D0906C0A6016E
:1002A00095012E193F09400B510B57FD08C01182D3
:1002B0003382228224833583468357831DC081E0A5
:1002C00081833382228288279927DC01821B930B4A
:1002D000A40BB50B84839583A683B7830DC0220F2F
:1002E000331F441F551F24833583468357838281E0
:1002F000938101979383828324813581468157813D
:10030000DA01C9010197A109B1098F5F9F4FAF4F72
:10031000BF4328F30BC0918333822282EA0CFB1C7B
:100320000C1D1D1DE482F5820683178383E0808304
:10033000248135814681578157FF1AC0C901AA27F8
:1003400097FDA095BA2F81709070A070B0705695EF
:10035000479537952795822B932BA42BB52B848318
:100360009583A683B7838281938101969383828349
:10037000DF0101C0D201CD01CDB7DEB7E2E10C94BF
:10038000E635A0E2B0E0E7ECF1E00C94D635698305
:100390007A838B839C832D833E834F835887E9E048
:1003A000EE2EF12CEC0EFD1ECE010196B7010E943F
:1003B000D2048E010F5E1F4FCE010596B8010E9438
:1003C000D2048A8991E089278A8BC701B801AE01DE
:1003D000475E5F4F0E9475000E94FD03A096E6E015
:1003E0000C94F235A0E2B0E0E8EFF1E00C94D635E1
:1003F00069837A838B839C832D833E834F835887C5
:10040000F9E0EF2EF12CEC0EFD1ECE010196B701A6
:100410000E94D2048E010F5E1F4FCE010596B801D7
:100420000E94D204C701B801AE01475E5F4F0E942F
:1004300075000E94FD03A096E6E00C94F235A0E260
:10044000B0E0E5E2F2E00C94CA3569837A838B83ED
:100450009C832D833E834F835887CE010196BE0136
:10046000675F7F4F0E94D204CE010596BE016F5E8A
:100470007F4F0E94D2049985923088F0898982301A
:10048000C8F0943019F4823051F404C0843029F457
:10049000923081F482E990E0C6C0923049F420E0C5
:1004A0009A858A89981321E02A87CE010996BBC0D4
:1004B000823049F420E09A858A89981321E02A8BBA
:1004C000CE014196B0C02D843E844F8458886D88FB
:1004D0007E888F88988CEE24FF248701AA24BB2471
:1004E000650140E050E060E070E0E0E0F0E0C10174
:1004F00081709070892BE9F0E60CF71C081D191D1E
:100500009A01AB012A0D3B1D4C1D5D1D80E090E062
:10051000A0E0B0E0E614F7040805190520F481E036
:1005200090E0A0E0B0E0BA01A901480F591F6A1F8E
:100530007B1FAA0CBB1CCC1CDD1C97FE08C081E0F5
:1005400090E0A0E0B0E0A82AB92ACA2ADB2A3196B6
:10055000E032F10549F0660C771C881C991C569412
:10056000479437942794C3CFFA85EA892B893C892D
:100570008B859C85280F391F2E5F3F4F17C0CA01FE
:1005800081709070892B61F016950795F794E79428
:1005900080E090E0A0E0B0E8E82AF92A0A2B1B2BC3
:1005A00076956795579547952F5F3F4F77FDE7CF36
:1005B0000CC0440F551F661F771F17FD4160EE0CDE
:1005C000FF1C001F111F21503040403090E05907A0
:1005D00090E0690790E4790760F32B8F3C8FDB0193
:1005E000CA018F779070A070B07080349105A1051A
:1005F000B10561F447FD0AC0E114F10401051105DC
:1006000029F0405C5F4F6F4F7F4F40781A8EFE1786
:1006100011F081E08A8F4D8F5E8F6F8F78A383E01A
:10062000898FCE0149960E94FD03A096E2E10C94C9
:10063000E635A8E1B0E0EFE1F3E00C94D63569834C
:100640007A838B839C832D833E834F83588789E0F5
:10065000E82EF12CEC0EFD1ECE010196B7010E9492
:10066000D2048E010F5E1F4FCE010596B8010E9485
:10067000D2048985823040F08989823028F0C70110
:10068000B8010E944A0501C08FEF6896E6E00C941D
:10069000F235A8E1B0E0EFE4F3E00C94D6356983DD
:1006A0007A838B839C832D833E834F83588789E095
:1006B000E82EF12CEC0EFD1ECE010196B7010E9432
:1006C000D2048E010F5E1F4FCE010596B8010E9425
:1006D000D2048985823040F08989823028F0C701B0
:1006E000B8010E944A0501C08FEF6896E6E00C94BD
:1006F000F235A8E1B0E0EFE7F3E00C94D63569837A
:100700007A838B839C832D833E834F83588789E034
:10071000E82EF12CEC0EFD1ECE010196B7010E94D1
:10072000D2048E010F5E1F4FCE010596B8010E94C4
:10073000D2048985823040F08989823028F0C7014F
:10074000B8010E944A0501C081E06896E6E00C9479
:10075000F235ACE0B0E0EFEAF3E00C94DA3569830F
:100760007A838B839C83CE010196BE016B5F7F4FA2
:100770000E94D2048D81823061F1823050F1843048
:1007800021F48E81882351F12EC02F81388537FDC9
:1007900020C06E812F3131051CF06623F9F023C093
:1007A0008EE190E0821B930B29853A854B855C8511
:1007B00004C056954795379527958A95D2F76623B5
:1007C000B1F050954095309521953F4F4F4F5F4F79
:1007D0000EC020E030E040E050E009C02FEF3FEFD6
:1007E0004FEF5FE704C020E030E040E050E8B9019F
:1007F000CA012C96E2E00C94F635DF92EF92FF925C
:100800000F931F93FC01E480F58006811781D1804E
:100810008081823048F480E090E0A0E1B0E0E82AF6
:10082000F92A0A2B1B2BA5C0843009F49FC0823003
:1008300021F4EE24FF24870105C0E114F104010531
:10084000110519F4E0E0F0E096C0628173819FEF3A
:10085000623879070CF05BC022E83FEF261B370BAC
:100860002A3131052CF020E030E040E050E02AC091
:10087000B801A701022E04C0769567955795479554
:100880000A94D2F781E090E0A0E0B0E004C0880FC5
:10089000991FAA1FBB1F2A95D2F70197A109B10979
:1008A0008E219F21A023B1230097A105B10521F03E
:1008B00081E090E0A0E0B0E09A01AB01282B392B59
:1008C0004A2B5B2BDA01C9018F779070A070B07052
:1008D00080349105A105B10539F427FF09C0205CDA
:1008E0003F4F4F4F5F4F04C0215C3F4F4F4F5F4F13
:1008F000E0E0F0E02030A0E03A07A0E04A07A0E402
:100900005A0710F0E1E0F0E079018A0127C0603871
:10091000710564F5FB01E158FF4FD801C7018F77DE
:100920009070A070B07080349105A105B10539F4C4
:10093000E7FE0DC080E490E0A0E0B0E004C08FE3EB
:1009400090E0A0E0B0E0E80EF91E0A1F1B1F17FFA1
:1009500005C016950795F794E794319687E01695AC
:100960000795F794E7948A95D1F705C0EE24FF2404
:100970008701EFEFF0E06E2F679566276795902F60
:100980009F77D794DD24D7948E2F8695492F462BB9
:10099000582F5D29B701CA011F910F91FF90EF9069
:1009A000DF900895FC01DB01408151812281622F9B
:1009B0006F7770E0221F2227221F9381892F880FD3
:1009C000822B282F30E0991F9927991F11969C930D
:1009D000119721153105A9F54115510561057105DD
:1009E00011F482E037C082E89FEF13969C938E93B8
:1009F00012979A01AB0167E0220F331F441F551F66
:100A00006A95D1F783E08C930DC0220F331F441FEA
:100A1000551F12968D919C911397019713969C9355
:100A20008E931297203080E0380780E0480780E4FA
:100A3000580758F314962D933D934D935C93179755
:100A400008952F3F310579F4411551056105710570
:100A500019F484E08C93089564FF03C081E08C93C3
:100A600012C01C9210C02F57304013963C932E9307
:100A7000129783E08C9387E0440F551F661F771F02
:100A80008A95D1F7706414964D935D936D937C9322
:100A9000179708951F93DC01FB019C91923008F495
:100AA00047C08081823008F443C0943051F41196DD
:100AB0001C91843099F58181682F70E0611B710968
:100AC0003FC0843021F0923031F48230B9F181811D
:100AD000882389F12DC011961C9111978230F1F075
:100AE00081811817D9F412962D913C911397828128
:100AF00093818217930794F028173907BCF0149656
:100B00008D919D910D90BC91A02D248135814681C0
:100B10005781281739074A075B0718F4112341F05A
:100B20000AC082179307A407B50740F4112319F0F0
:100B300061E070E005C06FEF7FEF02C060E070E041
:100B4000CB011F910895DF93CF9300D000D0CDB794
:100B5000DEB781E08C83ABE2B0E0EBE2F0E08081D5
:100B600082608C93AAE2B0E0EAE2F0E080818861E2
:100B70008C93AAE2B0E0EAE2F0E0808180688C9396
:100B80001B828B8186608B838B818F7C8B838B8197
:100B9000877F8B838B818F7B8B838B8180688B831B
:100BA000E0E4F0E08B8180838FEC90E09A8389838E
:100BB00089819A819F779A838983E9E2F0E089812C
:100BC0008083E0E4F0E089819A81892F99278083EE
:100BD0008C810F900F900F900F90CF91DF9108951F
:100BE000DF93CF9300D000D0CDB7DEB79B838A834D
:100BF0006C8381E089838091AC00882399F48C8197
:100C00008093AF008A819B819093AE008093AD006A
:100C10001092B00084E0898381E08093AC00109250
:100C2000AB0002C084E089838091AF00882351F437
:100C300019821092AC00AAE2B0E0EAE2F0E0808112
:100C40008F778C938091AB00882369F481E0809347
:100C5000AB0081E080939A00AAE2B0E0EAE2F0E023
:100C6000808180688C9389810F900F900F900F90F6
:100C7000CF91DF910895DF93CF930F92CDB7DEB779
:100C800081E0898380919A00882321F080919A00E5
:100C9000898306C019821092AC0081E080939A008B
:100CA00089810F90CF91DF910895DF93CF9300D08A
:100CB000CDB7DEB79A83898389819A81009781F0C5
:100CC000AAE2B0E0EAE2F0E0808180688C9381E003
:100CD0008093AA0089819A819093A9008093A800AB
:100CE00080E00F900F90CF91DF910895DF93CF9325
:100CF0000F92CDB7DEB78FEF8983ECE2F0E0808111
:100D0000898389810F90CF91DF910895DF93CF93ED
:100D1000CDB7DEB72B970FB6F894DEBF0FBECDBFB1
:100D200098878F8369874A8781E08E838A85882F99
:100D300090E0A0E0B0E028E131E040E050E0BC010C
:100D4000CD010E946235DC01CB018A839B83AC8399
:100D5000BD83198235C0EBE2F0E0808182958695F3
:100D60008770882F90E0817090700097D1F41B8677
:100D70008A819B81AC81BD8184309105A105B1053B
:100D800010F081E08B878A819B81AC81BD810197C6
:100D9000A109B1098A839B83AC83BD838B8588239A
:100DA000D1F6ACE2B0E08981282F30E08F819885C0
:100DB000FC01E20FF31F80818C9389818F5F89830F
:100DC00099818985981750F48A819B81AC81BD8176
:100DD00084309105A105B10508F0BDCF8E812B9619
:100DE0000FB6F894DEBF0FBECDBFCF91DF9108954F
:100DF000DF93CF9300D0CDB7DEB78A8381E08983BC
:100E0000EBE2F0E08081829586958770882F90E0F4
:100E1000817090700097A1F3ECE2F0E08A8180830A
:100E200089810F900F90CF91DF910895DF93CF9339
:100E300000D00F92CDB7DEB79B838A8381E0898390
:100E4000EBE2F0E080818823DCF7ECE2F0E08081E7
:100E5000EA81FB81808389810F900F900F90CF9161
:100E6000DF910895DF93CF9300D00F92CDB7DEB717
:100E70009B838A8381E0898317C0EBE2F0E0808165
:100E8000829586958770882F90E08170907000978A
:100E9000A1F3ACE2B0E0EA81FB8180818C938A818E
:100EA0009B8101969B838A83EA81FB8180818823D1
:100EB00021F789810F900F900F90CF91DF910895C6
:100EC000DF93CF9300D000D00F92CDB7DEB79D83D4
:100ED0008C8381E08B831A821982EBE2F0E08081BF
:100EE0008823DCF7ECE2F0E080818A838A818D3010
:100EF00031F08A818A3019F08A81882391F48981BE
:100F0000282F30E08C819D81FC01E20FF31F1082BD
:100F10008B810F900F900F900F900F90CF91DF91DA
:100F200008958981282F30E08C819D81FC01E20F9A
:100F3000F31F8A81808389818F5F8983CECFDF937E
:100F4000CF930F92CDB7DEB781E0898389810F906F
:100F5000CF91DF910895DF93CF9300D000D000D0E0
:100F6000CDB7DEB78A836B834C8381E089838A8126
:100F7000843008F0D0C08B81883008F0CCC08C81E0
:100F8000823008F0C8C08A81282F30E03E832D834C
:100F90006D817E816130710509F441C08D819E8132
:100FA0008230910534F42D813E812115310571F097
:100FB000B0C06D817E816230710509F459C08D81A8
:100FC0009E818330910509F47CC0A3C0AAE3B0E000
:100FD000EAE3F0E08081482F8B81282F30E081E028
:100FE00090E002C0880F991F2A95E2F7809584232C
:100FF0008C93AAE3B0E0EAE3F0E08081482F8C8193
:10100000282F30E08B81882F90E0B90102C0660F55
:10101000771F8A95E2F7CB01842B8C937AC0A7E3E4
:10102000B0E0E7E3F0E08081482F8B81282F30E0AB
:1010300081E090E002C0880F991F2A95E2F7809521
:1010400084238C93A7E3B0E0E7E3F0E08081482FAE
:101050008C81282F30E08B81882F90E0B90102C06D
:10106000660F771F8A95E2F7CB01842B8C9351C0D2
:10107000A4E3B0E0E4E3F0E08081482F8B81282FE7
:1010800030E081E090E002C0880F991F2A95E2F7D6
:10109000809584238C93A4E3B0E0E4E3F0E08081C6
:1010A000482F8C81282F30E08B81882F90E0B90168
:1010B00002C0660F771F8A95E2F7CB01842B8C93D1
:1010C00028C0A1E3B0E0E1E3F0E08081482F8B810C
:1010D000282F30E081E090E002C0880F991F2A9508
:1010E000E2F7809584238C93A1E3B0E0E1E3F0E0A4
:1010F0008081482F8C81282F30E08B81882F90E0D1
:10110000B90102C0660F771F8A95E2F7CB01842BE5
:101110008C93198202C082E08983898126960FB65A
:10112000F894DEBF0FBECDBFCF91DF910895DF935E
:10113000CF93CDB7DEB729970FB6F894DEBF0FBEB9
:10114000CDBF8A836B834C8381E089838A8184301D
:1011500008F0DFC08B81883008F0DBC08C818230E2
:1011600008F0D7C08A81282F30E039872887888502
:1011700099858130910509F444C0E885F985E2300C
:10118000F10534F4288539852115310571F0BFC08A
:10119000888599858230910509F462C0E885F985D2
:1011A000E330F10509F488C0B2C08C818130A1F42C
:1011B000ABE3B0E0EBE3F0E08081482F8B81282F98
:1011C00030E081E090E0022E02C0880F991F0A945F
:1011D000E2F7842B8C939BC0ABE3B0E0EBE3F0E051
:1011E0008081482F8B81282F30E081E090E0022E13
:1011F00002C0880F991F0A94E2F7809584238C938C
:1012000086C028E330E03F832E838C81813091F4C7
:10121000E8E3F0E08081482F8B81282F30E081E0E7
:1012200090E0022E02C0880F991F0A94E2F7842BE7
:101230008D8311C0E8E3F0E08081482F8B81282F57
:1012400030E081E090E002C0880F991F2A95E2F714
:10125000809584238D832D81EE81FF81208357C06B
:101260008C818130A1F4A5E3B0E0E5E3F0E080817A
:10127000482F8B81282F30E081E090E0022E02C0C1
:10128000880F991F0A94E2F7842B8C9340C0A5E342
:10129000B0E0E5E3F0E08081482F8B81282F30E03B
:1012A00081E090E0022E02C0880F991F0A94E2F7B5
:1012B000809584238C932BC08C818130A1F4A2E390
:1012C000B0E0E2E3F0E08081482F8B81282F30E00E
:1012D00081E090E0022E02C0880F991F0A94E2F785
:1012E000842B8C9314C0A2E3B0E0E2E3F0E08081B1
:1012F000482F8B81282F30E081E090E0022E02C041
:10130000880F991F0A94E2F7809584238C931982A1
:1013100002C082E08983898129960FB6F894DEBFE6
:101320000FBECDBFCF91DF910895DF93CF9300D053
:1013300000D00F92CDB7DEB78A836B8381E08983BB
:101340008A81843008F074C08B81883008F070C0C6
:101350008A81282F30E03D832C838C819D818130D0
:10136000910549F12C813D81223031052CF48C818D
:101370009D81009761F05AC02C813D81223031055A
:1013800071F18C819D8183309105E9F14FC0ABE310
:10139000B0E0EBE3F0E08081482F8B81282F30E034
:1013A00081E090E0022E02C0880F991F0A94E2F7B4
:1013B00084278C933BC0A8E3B0E0E8E3F0E08081B1
:1013C000482F8B81282F30E081E090E0022E02C070
:1013D000880F991F0A94E2F784278C9327C0A5E30E
:1013E000B0E0E5E3F0E08081482F8B81282F30E0EA
:1013F00081E090E0022E02C0880F991F0A94E2F764
:1014000084278C9313C0A2E3B0E0E2E3F0E0808194
:10141000482F8B81282F30E081E090E0022E02C01F
:10142000880F991F0A94E2F784278C93198202C0CF
:1014300082E0898389810F900F900F900F900F9019
:10144000CF91DF910895DF93CF93CDB7DEB7279784
:101450000FB6F894DEBF0FBECDBF8A836B835D836A
:101460004C8381E089838C819D81009709F47DC044
:101470008A81843008F076C08B81883008F072C091
:101480008A81282F30E03F832E834E815F81413057
:10149000510559F18E819F818230910534F42E815E
:1014A0003F812115310569F05BC04E815F8142307B
:1014B000510579F18E819F818330910509F43DC0FA
:1014C0004FC0E9E3F0E08081282F30E08B81882F46
:1014D00090E0A90102C0559547958A95E2F7CA01A7
:1014E0008170EC81FD8180833BC0E6E3F0E0808188
:1014F000282F30E08B81882F90E0A90102C05595FC
:1015000047958A95E2F7CA018170EC81FD8180835D
:1015100027C0E3E3F0E08081282F30E08B81882F23
:1015200090E0A90102C0559547958A95E2F7CA0156
:101530008170EC81FD81808313C0E0E3F0E0808165
:10154000282F30E08B81882F90E0A90102C05595AB
:1015500047958A95E2F7CA018170EC81FD8180830D
:10156000198205C082E0898302C083E08983898172
:1015700027960FB6F894DEBF0FBECDBFCF91DF9197
:101580000895DF93CF9300D0CDB7DEB781E08A8393
:101590001982198251C08981282F30E0C901880F32
:1015A000991F820F931FFC01E456FF4F40818981F0
:1015B000282F30E0C901880F991F820F931FFC016B
:1015C000E356FF4F9081842F692F40E00E94AB07C4
:1015D0008A838A818823B1F58981282F30E0C90167
:1015E000880F991F820F931FFC01E456FF4F508113
:1015F0008981282F30E0C901880F991F820F931F1E
:10160000FC01E356FF4F40818981282F30E0C9015A
:10161000880F991F820F931FFC01E256FF4F9081A4
:10162000852F642F492F0E9497088A838A818823F7
:1016300049F489818F5F898390919B008981891703
:1016400008F4A9CF8A810F900F90CF91DF91089570
:10165000DF93CF9300D000D0CDB7DEB78A837C83F1
:101660006B8381E089838B819C81009749F1909104
:101670009B008A81891708F58A81282F30E0C901EB
:10168000880F991F820F931FFC01E456FF4F408182
:101690008A81282F30E0C901880F991F820F931F7C
:1016A000FC01E356FF4F90812B813C81842F692FF1
:1016B000A9010E94230A898305C082E0898302C0B0
:1016C00083E0898389810F900F900F900F90CF91C5
:1016D000DF910895DF93CF93CDB7DEB728970FB68C
:1016E000F894DEBF0FBECDBF81E08A8386E0FE01A5
:1016F0003396DF01982F1D929A95E9F781E060E01B
:1017000041E00E94AB078B8381E061E041E00E94F1
:10171000AB078C8381E062E041E00E94AB078D83E0
:1017200081E064E041E00E94AB078E8381E065E0E8
:1017300041E00E94AB078F8380E062E041E00E94BD
:10174000AB078887198219C08981282F30E0CE0124
:101750000396FC01E20FF31F8081882359F08981F1
:10176000282F30E0CE010396FC01E20FF31F8081A9
:101770008A8306C089818F5F89838981863020F3BF
:101780008A8128960FB6F894DEBF0FBECDBFCF91E9
:10179000DF910895DF93CF9300D0CDB7DEB78A8372
:1017A00081E089838A818A3038F58A81982F917007
:1017B00081E060E0492F0E9497088A818695982FE2
:1017C000917081E061E0492F0E9497088A81869597
:1017D0008695982F917081E062E0492F0E949708CA
:1017E0008A81869586958695982F917081E064E030
:1017F000492F0E94970802C082E0898389810F9057
:101800000F90CF91DF910895DF93CF9300D0CDB7A4
:10181000DEB78A8381E089838A81823639F481E068
:1018200065E041E00E94970889830CC08A818D326F
:1018300039F480E062E041E00E949708898302C0A9
:1018400082E0898389810F900F90CF91DF91089575
:10185000DF93CF9300D0CDB7DEB78A8381E0898351
:101860008A81823639F481E065E040E00E94970881
:1018700089830CC08A818D3239F480E062E040E0D7
:101880000E949708898302C082E0898389810F9032
:101890000F90CF91DF910895DF93CF930F92CDB743
:1018A000DEB781E0898381E065E040E00E9497082F
:1018B00080E062E040E00E94970889810F90CF911C
:1018C000DF910895DF93CF93CDB7DEB70E94C10AB1
:1018D000CF91DF910895DF93CF9300D0CDB7DEB7DE
:1018E00080E09E012F5F3F4FB9010E94280B898144
:1018F000882341F48091B100882321F481E0809312
:10190000B1002EC089818130E1F48091B100813035
:10191000C1F48091B2008823A1F48091A5008336A0
:1019200030F48091A500982F9F5F9A8303C0809127
:10193000A5008A839A819093A50081E08093B200EC
:101940000FC08981813061F48091B100813041F410
:101950008091B200813021F41092B1001092B20057
:101960000F900F90CF91DF910895DF93CF9300D028
:10197000CDB7DEB781E09E012F5F3F4FB9010E94D6
:10198000280B8981882341F48091B300882321F4B6
:1019900081E08093B3002EC089818130E1F4809191
:1019A000B3008130C1F48091B4008823A1F4809108
:1019B000A500803130F08091A500982F91509A8336
:1019C00003C08091A5008A839A819093A50081E04D
:1019D0008093B4000FC08981813061F48091B3009D
:1019E000813041F48091B400813021F41092B30031
:1019F0001092B4000F900F90CF91DF910895DF9374
:101A0000CF930F92CDB7DEB7898389818F3030F0C5
:101A10008981843618F489818093A5000F90CF9135
:101A2000DF910895DF93CF93CDB7DEB78091A50006
:101A3000CF91DF910895DF93CF930F92CDB7DEB7AB
:101A400019828091B100882331F48091B2008823FB
:101A500011F481E0898389810F90CF91DF910895FE
:101A6000DF93CF930F92CDB7DEB719828091B30089
:101A7000882331F48091B300882311F481E08983B5
:101A800089810F90CF91DF910895DF93CF93CDB7E8
:101A9000DEB780E064E041E00E94AB0780E066E0F2
:101AA00041E00E94AB0781E067E041E00E94AB07A4
:101AB00080E064E040E00E94970880E066E040E05B
:101AC0000E94970881E067E040E00E949708CF916C
:101AD000DF910895DF93CF9300D0CDB7DEB780912B
:101AE000B500282F30E03A83298389819A8181309B
:101AF000910509F461C029813A812230310509F448
:101B00008AC089819A81009709F0DAC08091B70074
:101B1000882349F580E064E041E00E94970880E076
:101B200066E040E00E94970881E067E040E00E94A4
:101B300097080E94120D8093B8008091B8000E940F
:101B400090108091B800882F90E00397880F991F1C
:101B5000880F991F01979093BA008093B90081E094
:101B60008093B700ADC08091B9009091BA00019701
:101B70009093BA008093B9008091B9009091BA0017
:101B8000409696958795969587950E94901080919E
:101B9000B9009091BA00009709F092C01092B70076
:101BA0001092B60081E08093B5008BE090E09093B6
:101BB000BA008093B90084C08091B9009091BA00B6
:101BC00001979093BA008093B90080E066E00E948C
:101BD00095098091B9009091BA00039696958795E2
:101BE000969587950E9490108091B9009091BA00C7
:101BF000009709F065C08091B600882321F482E047
:101C00008093B5005DC08091B600823009F058C065
:101C10001092B50055C08091B700882349F580E047
:101C200064E040E00E94970880E066E040E00E94A7
:101C3000970881E067E041E00E9497080E94120D3A
:101C40008093B8008091B8000E9490108091B800F5
:101C5000882F90E00397880F991F880F991F01978D
:101C60009093BA008093B90081E08093B70028C0B8
:101C70008091B9009091BA0001979093BA00809337
:101C8000B9008091B9009091BA00409696958795D9
:101C9000969587950E9490108091B9009091BA0016
:101CA000009771F41092B70082E08093B60081E053
:101CB0008093B5008CE090E09093BA008093B900D7
:101CC0000F900F90CF91DF910895DF93CF93CDB711
:101CD000DEB70E9423100E94450D0E94620C83E033
:101CE00060E040E00E94AB0783E061E041E00E94D9
:101CF000AB070E94A30581E060E043E00E944D1F16
:101D00009093C6008093C5008091C5009091C60055
:101D1000009759F08091C5009091C60060E070E096
:101D200040E050E020E00E94202081E060E043E0BD
:101D30000E944D1F9093C8008093C70087E061E028
:101D400040E00E944D1F9093CA008093C900CF913C
:101D5000DF910895DF93CF9300D0CDB7DEB79A839C
:101D600089830E942C1081E090E00E946B28F9CFBB
:101D7000DF93CF9300D0CDB7DEB79A8389830E94DB
:101D80006A0D82E390E00E946B28F9CFDF93CF9336
:101D900000D00F92CDB7DEB79B838A8319828091E2
:101DA000C5009091C60060E070E041E050E020E0A6
:101DB0000E942E21813011F481E089838981813054
:101DC00031F48091C400882311F40E946B0C0E94AE
:101DD000300D813061F419828091C5009091C60068
:101DE00060E070E040E050E020E00E94202082E0CF
:101DF00090E00E946B28D3CFDF93CF9300D000D028
:101E0000CDB7DEB79C838B831A821982E3E4F0E0BE
:101E10008A8180838091C5009091C60060E070E067
:101E200041E050E020E00E942E21813011F481E059
:101E300089838981813031F48091C400882311F431
:101E40000E94B50C0E941B0D813079F48A818F5F4E
:101E50008A8319828091C5009091C60060E070E08D
:101E600040E050E020E00E94202082E090E00E94CC
:101E70006B28CCCFDF93CF9300D00F92CDB7DEB7D6
:101E80009B838A838091C7009091C80060E070E0D6
:101E900041E050E020E00E942E21813009F042C054
:101EA000198214C04091C9005091CA008981882FBD
:101EB00090E09C0125543F4FCA01B90141E050E038
:101EC00020E00E942E2189818F5F8983898188305B
:101ED00048F31092C4008BEB90E020E630E0B901AB
:101EE0000E94E60F8823D1F08091C000882F90E0F7
:101EF0009C01220F331FC901880F991F880F991F5A
:101F0000820F931F982F8091C100890F80510E94EA
:101F1000FF0C86E690E00E94320704C08DE690E058
:101F20000E94320785E090E00E946B28ABCF1F92A1
:101F30000F920FB60F9211242F933F934F935F93FD
:101F40006F937F938F939F93AF93BF93EF93FF9381
:101F5000DF93CF930F92CDB7DEB70E9476068983C9
:101F600081E08093C40089810E94F80689818D30C8
:101F700071F08091C9009091CA009E012F5F3F4F80
:101F8000B90140E050E020E00E94CC200BC08091DD
:101F9000C7009091C80060E070E040E050E020E0B1
:101FA0000E94CC200F90CF91DF91FF91EF91BF91D4
:101FB000AF919F918F917F916F915F914F913F91E1
:101FC0002F910F900FBE0F901F901895DF93CF9316
:101FD00000D000D000D0CDB7DEB79C838B837E834A
:101FE0006D8381E08A83198219C08981282F30E0AE
:101FF0008B819C81FC01E20FF31F40818981282F96
:1020000030E08D819E81FC01E20FF31F8081481733
:1020100011F01A820EC089818F5F89838981282FF0
:1020200030E08D819E81FC01E20FF31F80818823C7
:10203000E1F68A8126960FB6F894DEBF0FBECDBFBB
:10204000CF91DF910895DF93CF93CDB7DEB70E9494
:102050006A0BCF91DF910895DF93CF9300D0CDB776
:10206000DEB78091CB00282F30E03A832983898125
:102070009A8182309105A1F129813A81233031057D
:1020800054F489819A81009789F029813A8121301D
:10209000310511F140C089819A818330910591F118
:1020A00029813A812430310581F135C082E60E94D0
:1020B000280C8DE20E94280C8091CC009AE0692FB8
:1020C0000E948135892F0E94CA0B82E60E94040C6F
:1020D00081E08093CB001FC082E08093CB001BC0C7
:1020E00082E60E94280C8091CC009AE0692F0E9421
:1020F00081350E94CA0B8DE20E94040C83E080931C
:10210000CB0009C01092CB0006C082E60E94280CCA
:102110008DE20E94280C0F900F90CF91DF910895CF
:10212000DF93CF930F92CDB7DEB7898389818093F8
:10213000CC000F90CF91DF910895DF93CF93CDB76F
:10214000DEB784E08093CB00CF91DF910895DF93D9
:10215000CF93CDB7DEB71092CB00CF91DF9108952A
:10216000DF93CF93CDB7DEB76E970FB6F894DEBF8F
:102170000FBECDBF8E8F81E08D8F8E8D843608F09F
:1021800006C182E60E94280C8DE20E94280C8E8DEA
:102190009AE0692F0E948135892F0E94CA0B82E63E
:1021A0000E94040C80E090E0A0E2B1E4898F9A8F55
:1021B000AB8FBC8F698D7A8D8B8D9C8D20E030E04C
:1021C0004AE755E40E941F02DC01CB018D8B9E8BF8
:1021D000AF8BB88F6D897E898F89988D20E030E034
:1021E00040E85FE30E94790388232CF481E090E0CB
:1021F0009C8B8B8B3FC06D897E898F89988D20E069
:102200003FEF4FE757E40E94190318164CF5698D0C
:102210007A8D8B8D9C8D20E030E040E251E40E946D
:102220001F02DC01CB01BC01CD010E944900DC0191
:10223000CB019C8B8B8B0FC080E991E09A8B898BB3
:1022400089899A890197F1F79A8B898B8B899C8967
:1022500001979C8B8B8B8B899C89009769F714C0A5
:102260006D897E898F89988D0E944900DC01CB01A0
:102270009C8B8B8B8B899C89988B8F878F8598897A
:102280000197F1F7988B8F8782E60E94280C8E8D3C
:102290009AE0692F0E9481350E94CA0B8DE20E944C
:1022A000040C80E090E0A0E2B1E48B879C87AD87CE
:1022B000BE876B857C858D859E8520E030E04AE772
:1022C00055E40E941F02DC01CB018F839887A98708
:1022D000BA876F81788589859A8520E030E040E86B
:1022E0005FE30E94790388232CF481E090E09E83D1
:1022F0008D833FC06F81788589859A8520E03FEF87
:102300004FE757E40E94190318164CF56B857C853E
:102310008D859E8520E030E040E251E40E941F025E
:10232000DC01CB01BC01CD010E944900DC01CB01E5
:102330009E838D830FC080E991E09C838B838B818A
:102340009C810197F1F79C838B838D819E810197FE
:102350009E838D838D819E81009769F714C06F8164
:10236000788589859A850E944900DC01CB019E838E
:102370008D838D819E819A83898389819A8101973A
:10238000F1F79A8389838DE20E94280C02C082E0D3
:102390008D8F8D8D6E960FB6F894DEBF0FBECDBFBC
:1023A000CF91DF910895AF92BF92CF92DF92EF92DB
:1023B000FF920F93DF93CF930F92CDB7DEB7898350
:1023C0008AE062E040E00E944D1F9093D00080932D
:1023D000CF0087E592E125E730E0EFECF0E0B901CE
:1023E00045E550E09F010981EE24FF24CC24DD2443
:1023F000AA24BB240E94AC268AE192E12DE730E0BA
:10240000EFECF0E0B90145E550E09F010981EE24D1
:10241000FF24CC24DD24AA24BB240E94AC260F90E8
:10242000CF91DF910F91FF90EF90DF90CF90BF9011
:10243000AF900895DF93CF9300D000D000D0CDB7F8
:10244000DEB79E838D831C821B821A82198227C06D
:10245000ED81FE81808191819E012D5F3F4FB90109
:1024600040E050E020E00E942020813019F081E01F
:102470008A8312C08A81882351F40FB6F8940F9290
:102480008091CE008F5F8093CE000F900FBE8B8126
:102490009C8101969C838B8389818F5F898389814D
:1024A0008330B4F288E290E00E946B28CFCFDF93B4
:1024B000CF93CDB7DEB727970FB6F894DEBF0FBE28
:1024C000CDBF9F838E831B821A8219822FC0EE811B
:1024D000FF81808191819E012C5F3F4FB90140E0D7
:1024E00050E020E00E942E21813001F52C813D81B9
:1024F0008A819B812817390739F081E089838C8193
:102500009D819B838A830DC08981882351F40FB6F6
:10251000F8940F928091CD008F5F8093CD000F9043
:102520000FBE8A819B8101969B838A83EE81FF8106
:10253000808191810E949F22882349F684E290E065
:102540000E946B28F3CFDF93CF930F92CDB7DEB706
:102550008091CD00882321F08091CE00882311F452
:10256000198202C081E089831092CD001092CE00C2
:1025700089810F90CF91DF910895DF93CF93CDB7ED
:10258000DEB727970FB6F894DEBF0FBECDBF9D8391
:102590008C836E834F838AE190E00E94F5189A83C2
:1025A000898389819A81009709F46FC08091D10055
:1025B0009091D200009741F489819A819093D20042
:1025C0008093D1000E9424158E81823010F081E02A
:1025D0008E83E981FA81118E108EE981FA818E81D4
:1025E000868BE981FA818F81878BE981FA818C81E1
:1025F0009D819183808389819A8102960E946D1AC0
:1026000089819A810C960E946D1AE981FA818981EB
:102610009A8191878087E981FA8189819A81938B58
:10262000828B8E81282F30E082E090E0821B930B1A
:10263000E981FA8195878487E981FA819689809179
:10264000D300891728F4E981FA8186898093D30021
:10265000E981FA818689282F30E0C901880F991F06
:10266000880F991F880F991F820F931FAC01465244
:102670005F4F89819A819C012E5F3F4FCA01B9014A
:102680000E947D1A81E08B8302C08FEF8B838B8148
:1026900027960FB6F894DEBF0FBECDBFCF91DF9166
:1026A0000895DF93CF9300D000D000D0CDB7DEB730
:1026B0009C838B837E836D832091D4003091D500E1
:1026C0008B819C81820F931F9A8389838091D10093
:1026D0009091D20002960E942D1BE091D100F091C2
:1026E000D20089819A81938382832091D400309192
:1026F000D50089819A818217930770F48091000137
:10270000909101012091D1003091D2002E5F3F4F76
:10271000B9010E94C11A0DC08091FE009091FF0086
:102720002091D1003091D2002E5F3F4FB9010E941D
:10273000C11A8D819E81009761F08091D1009091A6
:10274000D2009C01245F3F4F8D819E81B9010E9480
:10275000C11A26960FB6F894DEBF0FBECDBFCF913B
:10276000DF910895DF93CF9300D0CDB7DEB73AC0A5
:10277000F894E0910701F0910801868197819A838E
:10278000898389819A810C960E942D1B7894898176
:102790009A8102960E942D1BE981FA819689809187
:1027A000D300891728F4E981FA8186898093D300C0
:1027B000E981FA818689282F30E0C901880F991FA5
:1027C000880F991F880F991F820F931FAC014652E3
:1027D0005F4F89819A819C012E5F3F4FCA01B901E9
:1027E0000E947D1A80910201882309F0C1CF0F90C9
:1027F0000F90CF91DF910895DF93CF9300D000D059
:10280000CDB7DEB70E94DB2B2091D6003091D700E8
:10281000821B930B9093D9008093D80085C0809140
:10282000D4009091D50001969093D5008093D40068
:102830008091D8009091D90001979093D90080930E
:10284000D8008091D4009091D500009709F064C021
:102850008091FE009091FF009A838983809100010E
:10286000909101019093FF008093FE0089819A81ED
:1028700090930101809300014FC0E091FE00F09120
:10288000FF000580F681E02D868197819C838B83F4
:10289000EB81FC81228133818091D4009091D5001D
:1028A0008217930708F440C0F8948B819C810296AC
:1028B0000E942D1BEB81FC8184899589009729F06A
:1028C0008B819C810C960E942D1B7894EB81FC815E
:1028D00096898091D300891728F4EB81FC81868941
:1028E0008093D300EB81FC818689282F30E0C901D9
:1028F000880F991F880F991F880F991F820F931FA8
:10290000AC0146525F4F8B819C819C012E5F3F4FF3
:10291000CA01B9010E947D1AE091FE00F091FF000A
:102920008081882309F0A9CF8091D8009091D900A7
:10293000009709F074CF8091D4009091D5009093C6
:10294000D7008093D6000F900F900F900F90CF91EB
:10295000DF910895DF93CF9300D0CDB7DEB70E940B
:10296000B2130E94FC130AC08091D300882309F49B
:1029700066C08091D30081508093D3008091D300B2
:10298000282F30E0C901880F991F880F991F880FE1
:10299000991F820F931FFC01E652FF4F808188230D
:1029A00019F38091D300282F30E0C901880F991FB7
:1029B000880F991F880F991F820F931F86529F4F70
:1029C0009A838983E981FA810180F281E02D8281F5
:1029D0009381E981FA8192838183E981FA8121815E
:1029E000328189819A8103962817390759F4E98140
:1029F000FA810180F281E02D82819381E981FA815F
:102A000092838183E981FA810180F281E02D8681C0
:102A100097819093D2008093D100E091D100F09102
:102A2000D200408151818091D1009091D200E091FB
:102A3000D100F091D2002789622FFA0109950F90F9
:102A40000F90CF91DF910895DF93CF930F92CDB781
:102A5000DEB7198213C08981282F30E0C901880FA1
:102A6000991F880F991F880F991F820F931F8652F5
:102A70009F4F0E94431A89818F5F898389818230A9
:102A800050F38CEE90E00E94431A85EF90E00E9494
:102A9000431A82E091E00E94431A8CEE90E09093FA
:102AA000FF008093FE0085EF90E0909301018093FA
:102AB00000010F90CF91DF910895DF93CF9300D065
:102AC00000D00F92CDB7DEB79D838C83EC81FD8162
:102AD0000580F681E02D868197819B838A838A8198
:102AE0009B810C960E942D1B8A819B819C01245FF7
:102AF0003F4F82E091E0B9010E947D1AEA81FB819B
:102B00009689E091D100F091D2008689981718F04B
:102B100081E0898301C0198289810F900F900F9005
:102B20000F900F90CF91DF910895DF93CF9300D056
:102B3000CDB7DEB78CE090E00E94F5189A838983C8
:102B400089819A81009749F0E981FA811182108286
:102B500089819A8102960E94431A89819A810F90F5
:102B60000F90CF91DF910895DF93CF93CDB7DEB76C
:102B700060970FB6F894DEBF0FBECDBF9A878987E6
:102B80007C876B875E874D87388B2F8789859A85F1
:102B90009C838B8319820E94452BEB81FC81808171
:102BA000918198878F8389859A852B853C85B9018A
:102BB0000E9486172F8138858B859C85282B392B81
:102BC0008D859E85282339238D859E852817390775
:102BD000C9F42F8138858B859C85822B932B9E830E
:102BE0008D83EB81FC81208131818D859E8580954F
:102BF000909582239323EB81FC8191838083188AB3
:102C00001F861CC08F859889009791F08B819C81CD
:102C1000BC016E5F7F4F8D859E859C0135604F8521
:102C20005889CB01B9010E948C2E1E821D8206C0DC
:102C3000EB81FC81808191819E838D830E94512B49
:102C40008A838F859889009709F43AC08A818823FE
:102C500011F40E94B21D0E9423359E838D838D81C5
:102C60009E8180709270009731F50FB6F8940F92A4
:102C7000EB81FC81808191819E838D832D813E81BA
:102C80008D859E85282339238D859E8528173907B4
:102C900071F4EB81FC81208131818D859E85809549
:102CA000909582239323EB81FC81918380830F9005
:102CB0000FBE81E089838D819E8190709E838D837C
:102CC0008D819E8160960FB6F894DEBF0FBECDBF9A
:102CD000CF91DF9108950F931F93DF93CF93CDB7DB
:102CE000DEB763970FB6F894DEBF0FBECDBF9D87EA
:102CF0008C877F876E87488B298B1B8B0A8B8C85F3
:102D00009D859B878A871F821E821B820E94452B7E
:102D1000EA85FB85808191819A83898389819A8163
:102D20002E853F85B90149890E94A3188D838D8125
:102D30008823C1F089819A81998788871B8A1A8A9A
:102D400088898823D9F1EA85FB85208131818E85A8
:102D50009F858095909582239323EA85FB859183B7
:102D600080832CC08A899B89009729F489819A8164
:102D70009987888723C08889882329F08E819F813D
:102D800091609F838E838989882329F08E819F811A
:102D900094609F838E838A859B85BC016E5F7F4F85
:102DA0002E853F858E819F81282B392B4A895B890F
:102DB000CB01B9010E948C2E198618860E94512BD6
:102DC0008C838A899B89009709F43BC08C81882376
:102DD00011F40E94B21D0E94233599878887888547
:102DE000998580709270009739F50FB6F8940F921C
:102DF000EA85FB8580819181998788878885998577
:102E00002E853F85B90149890E94A318882389F03E
:102E10008889882371F0EA85FB85208131818E8540
:102E20009F858095909582239323EA85FB859183E6
:102E300080830F900FBE1B8288859985907099873B
:102E400088878885998563960FB6F894DEBF0FBE94
:102E5000CDBFCF91DF911F910F910895DF93CF9355
:102E6000CDB7DEB728970FB6F894DEBF0FBECDBF43
:102E70009E838D8378876F838D819E819C838B83D6
:102E80000FB6F8940F92EB81FC81808191819A8337
:102E90008983EB81FC81208131818F8198858095A8
:102EA000909582239323EB81FC81918380830F9003
:102EB0000FBE89819A8128960FB6F894DEBF0FBEA7
:102EC000CDBFCF91DF910895DF93CF93CDB7DEB71C
:102ED00027970FB6F894DEBF0FBECDBF9F838E83BA
:102EE0008E819F819C838B831D82EB81FC818081FD
:102EF00091819A83898389819A8127960FB6F89464
:102F0000DEBF0FBECDBFCF91DF910895DF93CF938A
:102F1000CDB7DEB765970FB6F894DEBF0FBECDBF55
:102F20009B8B8A8B7D8B6C8B198618868A899B89F3
:102F30009B838A8319828A819B8102969B878A87D9
:102F40008A859B8503969D878C870E94452BEA8501
:102F5000FB8585819681998B888BEA81FB81208115
:102F600031818C899D89822B932BEA81FB8191830E
:102F7000808359C0E889F989828193819F878E87F0
:102F8000E889F989808191819F838E8319828E815E
:102F90009F8180709D838C838E819F8190709F83A1
:102FA0008E838C819D8180709470009769F4EA8192
:102FB000FB81208131818E819F8182239323009721
:102FC00091F081E089830FC0EA81FB81208131810A
:102FD0008E819F81282339238E819F81281739076D
:102FE00011F481E0898389818823C9F08C819D81D6
:102FF00080709170009741F0888599852E813F817E
:10300000822B932B99878887EA81FB81808191812C
:103010009C01326088899989B9010E944D2F8E8563
:103020009F85998B888B288939898C859D85281760
:10303000390709F09FCFEA81FB81208131818885A2
:1030400099858095909582239323EA81FB819183D2
:1030500080830E94512BEA81FB818081918165965A
:103060000FB6F894DEBF0FBECDBFCF91DF910895AC
:10307000DF93CF9300D000D000D0CDB7DEB79E83D2
:103080008D838D819E819C838B838B819C81029615
:103090009A8389830E94452B08C0E981FA81858142
:1030A000968160E072E00E944D2FE981FA81808173
:1030B000882399F78B819C810E944B190E94512B88
:1030C00026960FB6F894DEBF0FBECDBFCF91DF912D
:1030D0000895DF93CF9300D000D000D0CDB7DEB7F6
:1030E0009A8389834B835C836D837E832B813C81B0
:1030F00089819A81B9010E94861726960FB6F894A5
:10310000DEBF0FBECDBFCF91DF910895DF93CF9388
:1031100000D000D000D0CDB7DEB79A8389834B832F
:103120005C836D837E832B813C8189819A81B90187
:103130000E942E1726960FB6F894DEBF0FBECDBFA5
:10314000CF91DF910895DF93CF9300D000D000D0CE
:10315000CDB7DEB79B838A837D836C834E831982D0
:103160008E81882359F48A819B812C813D81822321
:103170009323009781F081E089830DC02A813B81F0
:103180008C819D81282339238C819D8128173907C3
:1031900011F481E08983898126960FB6F894DEBF09
:1031A0000FBECDBFCF91DF910895DF93CF9300D0B5
:1031B00000D00F92CDB7DEB79D838C838C819D812B
:1031C0009A8389838C819D81009711F41B8204C0AE
:1031D000E981FA8183858B838B810F900F900F900B
:1031E0000F900F90CF91DF910895DF93CF9300D090
:1031F00000D0CDB7DEB79C838B831A8219820E94E0
:10320000452B80910D0190910E01009731F480E1E2
:1032100091E090930E0180930D0180910B019091AC
:103220000C012B813C81820F931F25E08B3D92077F
:1032300038F520910B0130910C018B819C81280F76
:10324000391F80910B0190910C0182179307C0F4F4
:1032500020910D0130910E0180910B0190910C0194
:10326000820F931F9A83898320910B0130910C0167
:103270008B819C81820F931F90930C0180930B0193
:103280000E94512B89819A810F900F900F900F907F
:10329000CF91DF910895DF93CF9300D0CDB7DEB704
:1032A0009A8389830F900F90CF91DF910895DF93D8
:1032B000CF93CDB7DEB710920C0110920B01CF91D6
:1032C000DF910895DF93CF93CDB7DEB720910B0147
:1032D00030910C018BED95E0821B930BCF91DF9128
:1032E0000895AF92BF92CF92DF92EF92FF920F9329
:1032F000DF93CF9300D00F92CDB7DEB78B831A82C6
:1033000019821BC089819A81FC01E551F94F8FEA2E
:1033100099E125E830E0B90145E550E09F010B81D6
:10332000EE24FF24CC24DD24AA24BB240E94AC2656
:1033300089819A8101969A83898389819A81181655
:10334000190604F70F900F900F90CF91DF910F9116
:10335000FF90EF90DF90CF90BF90AF900895DF93F4
:10336000CF93CDB7DEB72A970FB6F894DEBF0FBE66
:10337000CDBF9A8789871C821B8289859A859A830B
:1033800089838BE790E0A0E0B0E08D839E83AF83DC
:10339000B8878D819E81AF81B885895B9B46AC4F94
:1033A000BF4F8D839E83AF83B8878D819E81AF8110
:1033B000B8852DEF3FEF4FEF5FEFBC01CD010E94CD
:1033C0006235DC01CB018D839E83AF83B8878D810D
:1033D0009E81AF81B88527E030E040E050E0BC013D
:1033E000CD010E948D35DA01C9018D839E83AF83A3
:1033F000B8878D819E81AF81B8858B3127E7920791
:103400002EEFA2072FEFB20721F081E090E09C831E
:103410008B838B819C81009709F0B3CF0FB6F89412
:103420000F92E981FA8181E080830F900FBEA9CFCE
:10343000DF93CF9300D00F92CDB7DEB781E08B83BF
:103440001A82198214C089819A81FC01E551F94FD1
:103450008081882309F41B8289819A81FC01E551CE
:10346000F94F108289819A8101969A838983898193
:103470009A81181619063CF78B810F900F900F90C8
:10348000CF91DF910895DF93CF9300D0CDB7DEB712
:103490009A83898389819A810396E981FA8192834B
:1034A0008183E981FA818FEF9FEF94838383898100
:1034B0009A810396E981FA819683858389819A812D
:1034C0000396E981FA8190878783E981FA811082E6
:1034D0000F900F90CF91DF910895DF93CF9300D09D
:1034E000CDB7DEB79A838983E981FA811186108688
:1034F0000F900F90CF91DF910895DF93CF9300D07D
:1035000000D000D0CDB7DEB79C838B837E836D83E4
:10351000EB81FC81818192819A838983ED81FE8197
:1035200089819A8193838283E981FA81848195815B
:10353000ED81FE8195838483E981FA810480F581A0
:10354000E02D8D819E8193838283E981FA818D8133
:103550009E8195838483ED81FE818B819C819187FF
:103560008087EB81FC8180818F5FEB81FC81808390
:1035700026960FB6F894DEBF0FBECDBFCF91DF9178
:103580000895DF93CF93CDB7DEB728970FB6F894A1
:10359000DEBF0FBECDBF9E838D8378876F83EF81A3
:1035A000F885808191819A83898389819A812FEF1F
:1035B0008F3F920739F4ED81FE81878190859C834E
:1035C0008B8318C08D819E8103969C838B8306C05C
:1035D000EB81FC81828193819C838B83EB81FC81D5
:1035E0000280F381E02D2081318189819A818217C7
:1035F000930770F7EB81FC8182819381EF81F885DD
:1036000093838283EF81F8850280F381E02D8F819F
:10361000988595838483EF81F8858B819C81958340
:103620008483EB81FC818F81988593838283EF81F2
:10363000F8858D819E8191878087ED81FE818081D3
:103640008F5FED81FE81808328960FB6F894DEBFF0
:103650000FBECDBFCF91DF910895DF93CF9300D000
:1036600000D0CDB7DEB79C838B83EB81FC81808556
:1036700091859A838983EB81FC81A281B381EB815F
:10368000FC818481958115969C938E931497EB8190
:10369000FC81A481B581EB81FC81828193811396A9
:1036A0009C938E931297E981FA81218132818B81DB
:1036B0009C812817390741F4EB81FC818481958135
:1036C000E981FA8192838183EB81FC8111861086E6
:1036D000E981FA8180818150E981FA818083E981E1
:1036E000FA8180810F900F900F900F90CF91DF9112
:1036F0000895AF92BF92CF92DF92EF92FF920F9315
:10370000DF93CF9300D000D0CDB7DEB79A83898303
:103710007C836B830E94650E8AEA9EE060E070E025
:103720004EE650E020E030E005E0EE24FF24CC241B
:10373000DD24AA24BB240E94AC268AE39FE060E03B
:1037400070E040E550E020E030E004E0EE24FF24AB
:10375000CC24DD24AA24BB240E94AC2688EB9EE066
:1037600060E070E040E550E020E030E003E0EE246F
:10377000FF24CC24DD24AA24BB240E94AC2686ECA2
:103780009EE060E070E044EB50E020E030E002E0DA
:10379000EE24FF24CC24DD24AA24BB240E94AC26E2
:1037A0008CEF9EE060E070E044EB50E020E030E021
:1037B00002E0EE24FF24CC24DD24AA24BB240E94B2
:1037C000AC260E94022B80E090E00F900F900F90AB
:1037D0000F90CF91DF910F91FF90EF90DF90CF90FE
:1037E000BF90AF900895DF93CF93CDB7DEB7289702
:1037F0000FB6F894DEBF0FBECDBF9C838B837E8354
:103800006D8358874F83EB81FC8181E180838B81BD
:103810009C8101979C838B83EB81FC8182E2808376
:103820008B819C8101979C838B83EB81FC8183E35B
:1038300080838B819C8101979C838B838D819E816A
:103840009A8389838981EB81FC8180838B819C8130
:1038500001979C838B8389819A81892F99279A83E9
:1038600089838981EB81FC8180838B819C81019795
:103870009C838B83EB81FC8110828B819C810197DF
:103880009C838B83EB81FC8180E880838B819C818E
:1038900001979C838B83EB81FC8110828B819C81BF
:1038A00001979C838B83EB81FC8182E080838B81F9
:1038B0009C8101979C838B83EB81FC8183E08083D7
:1038C0008B819C8101979C838B83EB81FC8184E0BD
:1038D00080838B819C8101979C838B83EB81FC810E
:1038E00085E080838B819C8101979C838B83EB8116
:1038F000FC8186E080838B819C8101979C838B83F4
:10390000EB81FC8187E080838B819C8101979C8384
:103910008B83EB81FC8188E080838B819C81019784
:103920009C838B83EB81FC8189E080838B819C81EC
:1039300001979C838B83EB81FC8180E180838B8169
:103940009C8101979C838B83EB81FC8181E1808347
:103950008B819C8101979C838B83EB81FC8182E12D
:1039600080838B819C8101979C838B83EB81FC817D
:1039700083E180838B819C8101979C838B83EB8186
:10398000FC8184E180838B819C8101979C838B8364
:10399000EB81FC8185E180838B819C8101979C83F5
:1039A0008B83EB81FC8186E180838B819C810197F5
:1039B0009C838B83EB81FC8187E180838B819C815D
:1039C00001979C838B83EB81FC8188E180838B81D1
:1039D0009C8101979C838B83EB81FC8189E18083AF
:1039E0008B819C8101979C838B83EB81FC8180E29E
:1039F00080838B819C8101979C838B83EB81FC81ED
:103A000081E280838B819C8101979C838B83EB81F6
:103A1000FC8182E280838B819C8101979C838B83D4
:103A2000EB81FC8183E280838B819C8101979C8365
:103A30008B838F8198859A8389838981EB81FC812F
:103A400080838B819C8101979C838B8389819A8160
:103A5000892F99279A8389838981EB81FC818083CF
:103A60008B819C8101979C838B83EB81FC8186E217
:103A700080838B819C8101979C838B83EB81FC816C
:103A800087E280838B819C8101979C838B83EB8170
:103A9000FC8188E280838B819C8101979C838B834E
:103AA000EB81FC8189E280838B819C8101979C83DF
:103AB0008B83EB81FC8180E380838B819C810197E8
:103AC0009C838B83EB81FC8181E380838B819C8150
:103AD00001979C838B838B819C8128960FB6F894E9
:103AE000DEBF0FBECDBFCF91DF910895DF93CF939F
:103AF000CDB7DEB70E94681EA091EC06B091ED062E
:103B0000CD91CDBFDD91DEBFFF91EF91DF91CF91E0
:103B1000BF91AF919F918F917F916F915F914F91E5
:103B20003F912F911F910F91FF90EF90DF90CF90D9
:103B3000BF90AF909F908F907F906F905F904F90CD
:103B40003F902F901F900F900FBE0F90089581E02F
:103B5000CF91DF910895DF93CF93CDB7DEB7CF91AB
:103B6000DF9108950F920FB6F8940F921F921124CF
:103B70002F923F924F925F926F927F928F929F927D
:103B8000AF92BF92CF92DF92EF92FF920F931F936B
:103B90002F933F934F935F936F937F938F939F9355
:103BA000AF93BF93CF93DF93EF93FF93A091EC0676
:103BB000B091ED060DB60D920EB60D920E94DB2D62
:103BC000A091EC06B091ED06CD91CDBFDD91DEBFA9
:103BD000FF91EF91DF91CF91BF91AF919F918F9125
:103BE0007F916F915F914F913F912F911F910F9115
:103BF000FF90EF90DF90CF90BF90AF909F908F900D
:103C00007F906F905F904F903F902F901F900F90FC
:103C10000FBE0F9008950F920FB6F8940F921F9257
:103C200011242F923F924F925F926F927F928F92C8
:103C30009F92AF92BF92CF92DF92EF92FF920F933B
:103C40001F932F933F934F935F936F937F938F9324
:103C50009F93AF93BF93CF93DF93EF93FF93A09185
:103C6000EC06B091ED060DB60D920EB60D920E94C7
:103C7000F42C882311F00E94DB2DA091EC06B0916A
:103C8000ED06CD91CDBFDD91DEBFFF91EF91DF91CC
:103C9000CF91BF91AF919F918F917F916F915F91E4
:103CA0004F913F912F911F910F91FF90EF90DF90D7
:103CB000CF90BF90AF909F908F907F906F905F90CC
:103CC0004F903F902F901F900F900FBE0F90089530
:103CD000DF93CF9300D000D000D0CDB7DEB780E81F
:103CE00098E3A1E0B0E08B839C83AD83BE838B819E
:103CF0009C81AD81BE81689415F8B695A79597957E
:103D000087951694D1F78B839C83AD83BE838B817B
:103D10009C81AD81BE810197A109B1098B839C83F0
:103D2000AD83BE838B8189838B819C81AD81BE8174
:103D3000892F9A2FAB2FBB278B839C83AD83BE83A8
:103D40008B818A83EBE4F0E08A818083EAE4F0E00F
:103D5000898180838BE08983EEE4F0E08981808330
:103D6000E9E5F0E080818983898180618983E9E5E3
:103D7000F0E08981808326960FB6F894DEBF0FBEEF
:103D8000CDBFCF91DF9108950E940B1E1895DF9350
:103D9000CF9300D000D00F92CDB7DEB79C838B833A
:103DA0006D838B819C819A8389830FB6F8940F92DF
:103DB000E981FA8140815181E981FA81838D282F3F
:103DC00030E0E981FA81848D882F90E0BC01269F44
:103DD000C001279F900D369F900D1124840F951FD1
:103DE000E981FA8193838283E981FA81128EE981E4
:103DF000FA8180819181E981FA8195838483E981C7
:103E0000FA8140815181E981FA81838D882F90E088
:103E10009C0121503040E981FA81848D882F90E007
:103E2000BC01269FC001279F900D369F900D112445
:103E3000840F951FE981FA8197838683E981FA814E
:103E40008FEF858FE981FA818FEF868F8D818823AF
:103E500079F4E981FA8180858823A1F089819A81AA
:103E600008960E94E22E813069F40E94B21D0AC0B9
:103E700089819A8108960E94431A89819A81419684
:103E80000E94431A0F900FBE81E00F900F900F9089
:103E90000F900F90CF91DF910895DF93CF93CDB71F
:103EA000DEB729970FB6F894DEBF0FBECDBF8F8364
:103EB000688749871A8219828F81882309F443C051
:103EC00081E290E00E94F5189E838D838D819E8112
:103ED0000097C9F18F81282F30E08885882F90E0E6
:103EE000AC01249FC001259F900D349F900D11249B
:103EF00001969C838B838B819C810E94F518ED81B8
:103F0000FE8191838083ED81FE8180819181009784
:103F1000B1F0ED81FE818F81838FED81FE818885F7
:103F2000848F8D819E8161E00E94C71EED81FE819C
:103F3000898580A38D819E819A83898304C08D8128
:103F40009E810E944B1989819A8129960FB6F89417
:103F5000DEBF0FBECDBFCF91DF910895DF93CF932A
:103F600000D00F92CDB7DEB78B8381E290E00E9444
:103F7000F5189A83898389819A810097C9F1E9812B
:103F8000FA8113821282E981FA8111821082E98119
:103F9000FA8115821482E981FA8117821682E981F9
:103FA000FA81128EE981FA8181E0838FE981FA81B9
:103FB000148EE981FA818FEF858FE981FA818FEF85
:103FC000868FE981FA818B8180A389819A81089605
:103FD0000E94431A89819A8141960E94431A8981DD
:103FE0009A8160E070E040E050E020E00E942020F4
:103FF00089819A810F900F900F90CF91DF91089552
:10400000DF93CF9300D000D0CDB7DEB78B836C8326
:104010008B8160E042E00E944D1F9A8389838981F1
:104020009A81009721F0E981FA818C81828F8981C0
:104030009A810F900F900F900F90CF91DF9108957C
:10404000DF93CF93CDB7DEB72F970FB6F894DEBFCF
:104050000FBECDBF998788877B876A875D874C872E
:104060002E871C82888599859A8389830FB6F89458
:104070000F92E981FA81928DE981FA81838D9817F7
:1040800018F08E85823011F589819A812A853B85C9
:10409000B9014E850E9443238B83E981FA8181898E
:1040A000882351F089819A8141960E94E22E8130C5
:1040B00041F40E94B21D05C08B81882311F00E943B
:1040C000B21D0F900FBE81E08F875CC08C859D85EF
:1040D000009721F40F900FBE1F8654C08C81882357
:1040E00031F4CE0105960E94B22F81E08C830F90AF
:1040F0000FBE0E94452B0FB6F8940F92E981FA810A
:10410000858D8F3F19F4E981FA81158EE981FA8155
:10411000868D8F3F19F4E981FA81168E0F900FBEBC
:10412000CE0105969E01245F3F4FB9010E94CB2F1F
:10413000882309F589819A810E94CC248823A1F0E3
:1041400089819A8108962C853D85B9010E94442E6B
:1041500089819A810E9443240E94512B882309F06F
:1041600085CF0E94B21D82CF89819A810E9443240B
:104170000E94512B7BCF89819A810E9443240E9407
:10418000512B1F868F852F960FB6F894DEBF0FBE7A
:10419000CDBFCF91DF910895DF93CF93CDB7DEB739
:1041A0002B970FB6F894DEBF0FBECDBF9E838D83D5
:1041B00078876F835A8749872B878D819E819A8361
:1041C00089831B82E981FA81928DE981FA81838D4D
:1041D000981718F08B858230B1F589819A812F81EB
:1041E0003885B9014B850E944323882341F0898596
:1041F0009A85009721F0E985FA8581E08083E9813D
:10420000FA81868D8F3FA9F4E981FA81818988231B
:10421000B9F089819A8141960E94E22E882381F02B
:1042200089859A85009761F0E985FA8581E0808328
:1042300007C0E981FA81868D8F5FE981FA81868FD7
:1042400081E08C8301C01C828C812B960FB6F89480
:10425000DEBF0FBECDBFCF91DF910895DF93CF9327
:10426000CDB7DEB760970FB6F894DEBF0FBECDBFF7
:104270009A8789877C876B875E874D872F871D820A
:1042800089859A859A8389830FB6F8940F92E9817C
:10429000FA81828D882309F44BC0E981FA818681F5
:1042A00097819C838B8389819A812B853C85B90179
:1042B0000E94FC238F85882311F5E981FA81828D84
:1042C0008150E981FA81828FE981FA81808191812F
:1042D000009731F40E944A35E981FA819383828301
:1042E000E981FA8180858823F1F089819A81089695
:1042F0000E94E22E8130B9F40E94B21D14C0E981FF
:10430000FA818B819C8197838683E981FA818189F7
:10431000882349F089819A8141960E94E22E882360
:1043200011F00E94B21D0F900FBE81E0888B6DC00E
:104330008D859E85009721F40F900FBE188A65C069
:104340008D81882331F4CE0106960E94B22F81E040
:104350008D830F900FBE0E94452B0FB6F8940F92DD
:10436000E981FA81858D8F3F19F4E981FA81158EF3
:10437000E981FA81868D8F3F19F4E981FA81168EE1
:104380000F900FBECE0106969E01235F3F4FB901ED
:104390000E94CB2F882391F589819A810E949724CE
:1043A000882329F1E981FA8180819181009759F46C
:1043B0000FB6F8940F92E981FA81828193810E946D
:1043C00026340F900FBE89819A8141962D853E85B6
:1043D000B9010E94442E89819A810E9443240E943F
:1043E000512B882309F050CF0E94B21D4DCF8981F7
:1043F0009A810E9443240E94512B46CF89819A8141
:104400000E9443240E94512B188A888960960FB617
:10441000F894DEBF0FBECDBFCF91DF910895DF933B
:10442000CF93CDB7DEB72A970FB6F894DEBF0FBE95
:10443000CDBF9E838D8378876F835A8749878D810F
:104440009E819A8389831B82E981FA81828D8823E8
:1044500091F189819A812F813885B9010E94FC23CD
:10446000E981FA81828D8150E981FA81828FE98127
:10447000FA81858D8F3FA9F4E981FA8180858823AF
:10448000B9F089819A8108960E94E22E882381F0F2
:1044900089859A85009761F0E985FA8581E08083B6
:1044A00007C0E981FA81858D8F5FE981FA81858F67
:1044B00081E08C8301C01C828C812A960FB6F8940F
:1044C000DEBF0FBECDBFCF91DF910895DF93CF93B5
:1044D000CDB7DEB72A970FB6F894DEBF0FBECDBFBB
:1044E00098878F837A8769878F8198859A83898354
:1044F0001D82E981FA81828D8823B1F0E981FA81F8
:10450000868197819C838B8389819A8129853A85CD
:10451000B9010E94FC23E981FA818B819C819783F8
:10452000868381E08E8301C01E828E812A960FB61B
:10453000F894DEBF0FBECDBFCF91DF910895DF931A
:10454000CF9300D00F92CDB7DEB79B838A830FB68F
:10455000F8940F92EA81FB81828D89830F900FBEC0
:1045600089810F900F900F90CF91DF910895DF9385
:10457000CF9300D000D00F92CDB7DEB79D838C8350
:104580008C819D819A8389830FB6F8940F92E9817B
:10459000FA81938DE981FA81828D292F281B822F40
:1045A0008B830F900FBE8B810F900F900F900F9009
:1045B0000F90CF91DF910895DF93CF9300D00F92AA
:1045C000CDB7DEB79B838A83EA81FB81828D8983A5
:1045D00089810F900F900F90CF91DF910895DF9315
:1045E000CF9300D000D0CDB7DEB79C838B838B8177
:1045F0009C819A838983E981FA81808191810097E6
:1046000031F0E981FA81808191810E944B19898181
:104610009A810E944B190F900F900F900F90CF919D
:10462000DF910895DF93CF9300D0CDB7DEB79A83A3
:104630008983E981FA81878D0F900F90CF91DF9167
:104640000895DF93CF9300D00F92CDB7DEB79A8352
:1046500089836B83E981FA818B81878F0F900F901B
:104660000F90CF91DF910895DF93CF9300D0CDB716
:10467000DEB79A838983E981FA8180A10F900F9038
:10468000CF91DF910895DF93CF9300D000D000D079
:10469000CDB7DEB79B838A837D836C834E8319827B
:1046A000EA81FB81848D882399F4EA81FB818081F2
:1046B0009181009709F08FC0EA81FB81828193810B
:1046C0000E94B1348983EA81FB811382128283C004
:1046D0008E81882399F5EA81FB8164817581EA8165
:1046E000FB81848D482F50E02C813D81CB01B901A5
:1046F0000E940136EA81FB8124813581EA81FB81B8
:10470000848D882F90E0820F931FEA81FB8195832F
:104710008483EA81FB8124813581EA81FB81828166
:1047200093812817390708F456C0EA81FB818081FC
:104730009181EA81FB81958384834DC0EA81FB816D
:1047400066817781EA81FB81848D482F50E02C813E
:104750003D81CB01B9010E940136EA81FB812681AE
:104760003781EA81FB81848D882F90E09095819537
:104770009F4F820F931FEA81FB8197838683EA8193
:10478000FB8126813781EA81FB8180819181281715
:10479000390790F4EA81FB8122813381EA81FB8130
:1047A000848D882F90E0909581959F4F820F931F65
:1047B000EA81FB81978386838E81823061F4EA816E
:1047C000FB81828D882339F0EA81FB81828D8150C3
:1047D000EA81FB81828FEA81FB81828D8F5FEA8192
:1047E000FB81828F898126960FB6F894DEBF0FBEBB
:1047F000CDBFCF91DF910895DF93CF9300D000D04C
:10480000CDB7DEB79A8389837C836B83E981FA8194
:10481000848D882389F1E981FA8126813781E981B4
:10482000FA81848D882F90E0820F931FE981FA81AD
:1048300097838683E981FA8126813781E981FA812C
:10484000828193812817390740F0E981FA818081BC
:104850009181E981FA8197838683E981FA81468192
:104860005781E981FA81848D282F30E08B819C81EA
:10487000BA01A9010E9401360F900F900F900F907E
:10488000CF91DF910895DF93CF9300D0CDB7DEB7FE
:104890009A8389830FB6F8940F9215C0E981FA8143
:1048A00081898823A9F089819A8141960E94E22E0C
:1048B000882311F00E943830E981FA81868D815079
:1048C000E981FA81868FE981FA81868D181634F3A1
:1048D000E981FA818FEF868F0F900FBE0FB6F894A3
:1048E0000F9215C0E981FA8180858823A9F089811A
:1048F0009A8108960E94E22E882311F00E94383097
:10490000E981FA81858D8150E981FA81858FE9817C
:10491000FA81858D181634F3E981FA818FEF858F3E
:104920000F900FBE0F900F90CF91DF910895DF93FE
:10493000CF9300D00F92CDB7DEB79B838A830FB69B
:10494000F8940F92EA81FB81828D882319F481E02B
:10495000898301C019820F900FBE89810F900F903B
:104960000F90CF91DF910895DF93CF9300D00F92F6
:10497000CDB7DEB79B838A83EA81FB81828D882352
:1049800019F481E0898301C0198289810F900F9009
:104990000F90CF91DF910895DF93CF9300D00F92C6
:1049A000CDB7DEB79B838A830FB6F8940F92EA8166
:1049B000FB81928DEA81FB81838D981719F481E048
:1049C000898301C019820F900FBE89810F900F90CB
:1049D0000F90CF91DF910895DF93CF9300D00F9286
:1049E000CDB7DEB79B838A83EA81FB81928DEA8112
:1049F000FB81838D981719F481E0898301C01982A6
:104A000089810F900F900F90CF91DF910895DF93E0
:104A1000CF93CDB7DEB72A970FB6F894DEBF0FBE9F
:104A2000CDBF9D838C837F836E83598748878C811C
:104A30009D819A838983F89489819A810E94CC24EC
:104A40008823A9F088859985009771F089819A81DA
:104A50009C01285F3F4F88859985B9010E945113B9
:104A600078948CEF8A872AC078941A8627C0789425
:104A7000F894E981FA81928DE981FA81838D981702
:104A8000C8F489819A812E813F81B90140E00E945A
:104A9000432381E08B83E981FA818189882359F05E
:104AA00089819A8141960E945D15882321F08BEFC0
:104AB0008B8301C01B8278948B818A878A852A9692
:104AC0000FB6F894DEBF0FBECDBFCF91DF91089532
:104AD000DF93CF93CDB7DEB72A970FB6F894DEBF3A
:104AE0000FBECDBF9D838C837F836E83598748879C
:104AF0008C819D819A838983F894E981FA81828DE2
:104B00008823A9F488859985009771F089819A8115
:104B10009C012F5E3F4F88859985B9010E945113F2
:104B200078948CEF8A8758C078941A8655C0789408
:104B3000F894E981FA81828D882309F449C0E981DA
:104B4000FA8126813781E981FA81848D882F90E06E
:104B5000820F931FE981FA8197838683E981FA8125
:104B600026813781E981FA8182819381281739076B
:104B700040F0E981FA8180819181E981FA8197830E
:104B80008683E981FA81828D8150E981FA81828F61
:104B9000E981FA8146815781E981FA81848D282F44
:104BA00030E08E819F81BA01A9010E94013681E027
:104BB0008B83E981FA818085882359F089819A81E4
:104BC00008960E945D15882321F08BEF8B8301C02E
:104BD0001B8278948B818A878A852A960FB6F894EF
:104BE000DEBF0FBECDBFCF91DF910895DF93CF938E
:104BF000CDB7DEB728970FB6F894DEBF0FBECDBF96
:104C00009C838B837E836D834F838B819C819A836E
:104C10008983E981FA81928DE981FA81838D9817E0
:104C2000D0F489819A812D813E81B90140E00E94B2
:104C300043238F81882379F4E981FA81818988234C
:104C400051F089819A8141960E945D15882319F05F
:104C500081E0888702C08F818887888528960FB673
:104C6000F894DEBF0FBECDBFCF91DF910895DF93E3
:104C7000CF93CDB7DEB729970FB6F894DEBF0FBE3E
:104C8000CDBF9D838C837F836E83598748878C81BA
:104C90009D819A838983E981FA81828D882309F431
:104CA00050C0E981FA8126813781E981FA81848DBA
:104CB000882F90E0820F931FE981FA819783868382
:104CC000E981FA8126813781E981FA8182819381A4
:104CD0002817390740F0E981FA8180819181E981C3
:104CE000FA8197838683E981FA81828D8150E981F7
:104CF000FA81828FE981FA8146815781E981FA81BF
:104D0000848D282F30E08E819F81BA01A9010E94F5
:104D10000136E885F9858081882381F4E981FA816B
:104D20008085882359F089819A8108960E945D15B3
:104D3000882321F0E885F98581E0808381E08B83F9
:104D400001C01B828B8129960FB6F894DEBF0FBE7F
:104D5000CDBFCF91DF910895AF92BF92CF92DF92F6
:104D6000EF92FF920F931F93DF93CF93CDB7DEB7F0
:104D700064970FB6F894DEBF0FBECDBF9F838E83BE
:104D8000798768875B874A873D872C870E87F88AF3
:104D9000EF86DA8AC98ABC8AAB8A8A859B8529898B
:104DA0003A89B9010E94D3319C838B838B819C818A
:104DB000009709F492C0EB81FC812789308D8A85A8
:104DC0009B850197820F931F9A8389838B819C8196
:104DD00028853985EB89FC89AA85BB85B9014E8573
:104DE0009F018D010E94903089819A812E813F819F
:104DF0004C855D85B9010E94F31BEB81FC81918399
:104E000080838F859889009731F0EF85F8898B81B1
:104E10009C81918380830FB6F8940F928091EF0666
:104E20008F5F8093EF068091EC069091ED060097DE
:104E300069F48B819C819093ED068093EC068091C0
:104E4000EF068130A9F40E940A3112C08091F30666
:104E5000882371F4E091EC06F091ED0696898E8539
:104E6000891730F08B819C819093ED068093EC063E
:104E70008091F7068F5F8093F7068091F706EB81AC
:104E8000FC8185A7EB81FC8196898091F2068917C8
:104E900028F4EB81FC8186898093F206EB81FC810A
:104EA0008689282F30E0C901880F991F880F991F24
:104EB000880F991F820F931FAC014750594F8B8168
:104EC0009C819C012E5F3F4FCA01B9010E947D1A4F
:104ED00081E08D830F900FBE02C08FEF8D838D8197
:104EE000813071F48091F306882351F0E091EC0653
:104EF000F091ED0696898E85981710F40E94B21DE8
:104F00008D8164960FB6F894DEBF0FBECDBFCF91F2
:104F1000DF911F910F91FF90EF90DF90CF90BF90A6
:104F2000AF900895DF93CF9300D000D000D0CDB7DD
:104F3000DEB79C838B830FB6F8940F928B819C8194
:104F4000009739F48091EC069091ED069E838D8355
:104F500004C08B819C819E838D838D819E819A83E9
:104F6000898389819A8102960E942D1BE981FA81A9
:104F700084899589009729F089819A810C960E94ED
:104F80002D1B89819A819C012E5F3F4F8EE497E013
:104F9000B9010E947D1A8091EE068F5F8093EE0624
:104FA0008091F7068F5F8093F7060F900FBE809178
:104FB000F306882399F02091EC063091ED06898163
:104FC0009A818217930719F40E94B21D07C00FB689
:104FD000F8940F920E94E9330F900FBE26960FB6F9
:104FE000F894DEBF0FBECDBFCF91DF910895DF9360
:104FF000CF93CDB7DEB72A970FB6F894DEBF0FBEBA
:10500000CDBF98878F837A8769871B820E94452B43
:105010008091F0069091F1069A838983EF81F8855B
:105020002081318189859A85820F931F9E838D838C
:10503000EF81F8852081318189819A8182179307D8
:1050400098F4EF81F885208131818D819E818217CE
:105050009307E0F42D813E8189819A81821793071D
:10506000A8F481E08B8312C0EF81F8852081318123
:105070008D819E818217930738F02D813E81898131
:105080009A818217930710F481E08B83EF81F88572
:105090008D819E81918380838B81882359F08091BB
:1050A000EC069091ED0602960E942D1B8D819E814B
:1050B0000E948A310E94512B8C838C81882311F4A9
:1050C0000E94B21D2A960FB6F894DEBF0FBECDBF68
:1050D000CF91DF910895DF93CF9300D000D00F924E
:1050E000CDB7DEB79D838C8319828C819D8100971B
:1050F000D1F00E94452B2091F0063091F1068C8171
:105100009D81820F931F9B838A838091EC069091EF
:10511000ED0602960E942D1B8A819B810E948A3196
:105120000E94512B89838981882311F40E94B21D2A
:105130000F900F900F900F900F90CF91DF910895E7
:10514000DF93CF93CDB7DEB727970FB6F894DEBFC6
:105150000FBECDBF9D838C830FB6F8940F928C81C8
:105160009D81009739F48091EC069091ED069F8324
:105170008E8304C08C819D819F838E838E819F81CD
:105180009B838A83EA81FB81868989830F900FBE86
:10519000898127960FB6F894DEBF0FBECDBFCF91A1
:1051A000DF910895DF93CF93CDB7DEB72A970FB67F
:1051B000F894DEBF0FBECDBF9F838E8368871982B0
:1051C0008885863010F085E088870FB6F8940F92B6
:1051D0008E819F81009739F48091EC069091ED06C5
:1051E0009A87898704C08E819F819A87898789855C
:1051F0009A859D838C83EC81FD8187A58B839B8120
:105200008885981709F48DC098858B818917A0F43B
:105210002091EC063091ED068C819D8182179307D9
:10522000B1F0E091EC06F091ED069689888589173A
:1052300070F081E089830BC02091EC063091ED067F
:105240008C819D818217930711F481E08983EC8121
:10525000FD8186898A83EC81FD8197A5EC81FD81A2
:105260008689981721F4EC81FD818885868BEC81F5
:10527000FD81888587A7EC81FD81848595859923AB
:105280005CF08885282F30E086E090E0821B930B4D
:10529000EC81FD8195878487EC81FD814285538572
:1052A0008A81282F30E0C901880F991F880F991F24
:1052B000880F991F820F931F8750994F48175907DE
:1052C00059F58C819D8102960E942D1BEC81FD81F8
:1052D00096898091F206891728F4EC81FD818689F0
:1052E0008093F206EC81FD818689282F30E0C90188
:1052F000880F991F880F991F880F991F820F931F7E
:10530000AC014750594F8C819D819C012E5F3F4FCE
:10531000CA01B9010E947D1A8981813011F40E946D
:10532000B21D0F900FBE2A960FB6F894DEBF0FBEC7
:10533000CDBFCF91DF910895DF93CF9300D000D000
:1053400000D0CDB7DEB79C838B830FB6F8940F9255
:105350008B819C81009739F48091EC069091ED0649
:105360009E838D8304C08B819C819E838D838D81E0
:105370009E819A83898389819A8102960E942D1B3E
:10538000E981FA8184899589009729F089819A8138
:105390000C960E942D1B89819A819C012E5F3F4FA4
:1053A00087E597E0B9010E947D1A0F900FBE20910A
:1053B000EC063091ED0689819A8182179307A9F452
:1053C0008091F306882319F00E94B21D19C09091B4
:1053D00057078091EF06981729F41092ED06109266
:1053E000EC060EC00E94DB2D0BC08091F3068823D3
:1053F00039F00FB6F8940F920E94E9330F900FBE68
:1054000026960FB6F894DEBF0FBECDBFCF91DF91C9
:105410000895DF93CF9300D000D00F92CDB7DEB7C1
:105420009D838C831B828C819D819A838983E981F2
:10543000FA818285938527E08735920781F4E98197
:10544000FA818489958927E08534920741F0E981C2
:10545000FA8184899589009711F481E08B838B818F
:105460000F900F900F900F900F90CF91DF910895B4
:10547000DF93CF9300D000D0CDB7DEB79C838B8372
:105480008B819C819A83898389819A81009709F411
:105490004CC02091EC063091ED0689819A818217EB
:1054A000930709F442C00FB6F8940F9289819A814C
:1054B0000E94092A8130B9F589819A8102960E9459
:1054C0002D1BE981FA8196898091F206891728F4CB
:1054D000E981FA8186898093F206E981FA818689D9
:1054E000282F30E0C901880F991F880F991F880F56
:1054F000991F820F931FAC014750594F89819A81A0
:105500009C012E5F3F4FCA01B9010E947D1AE981BB
:10551000FA819689E091EC06F091ED06868998175C
:1055200010F00E94B21D0F900FBE0F900F900F90C1
:105530000F90CF91DF910895DF93CF9300D000D0EB
:1055400000D0CDB7DEB79E838D831C828D819E8176
:105550009B838A8319828A819B810E94092A8130D8
:1055600009F046C08091F8068823C1F5EA81FB81E5
:105570009689E091EC06F091ED068689981710F077
:1055800081E08C838A819B8102960E942D1BEA8197
:10559000FB8196898091F206891728F4EA81FB81C4
:1055A00086898093F206EA81FB818689282F30E084
:1055B000C901880F991F880F991F880F991F820FA3
:1055C000931FAC014750594F8A819B819C012E5FEC
:1055D0003F4FCA01B9010E947D1A0AC08A819B818E
:1055E0009C01245F3F4F85E497E0B9010E947D1A3A
:1055F0008C8126960FB6F894DEBF0FBECDBFCF913B
:10560000DF910895AF92BF92CF92DF92EF92FF9217
:105610000F93DF93CF930F92CDB7DEB780E890E37F
:105620002DE830E0B90145E550E020E030E000E051
:10563000EE24FF24CC24DD24AA24BB240E94AC2623
:1056400089838981813051F4F89481E08093F30655
:105650001092F1061092F0060E94761D0F90CF91E5
:10566000DF910F91FF90EF90DF90CF90BF90AF90C0
:105670000895DF93CF93CDB7DEB7F8941092F30679
:105680000E94AB1DCF91DF910895DF93CF93CDB7EB
:10569000DEB78091F8068F5F8093F806CF91DF9197
:1056A0000895DF93CF9300D00F92CDB7DEB7198264
:1056B0000FB6F8940F928091F80681508093F80607
:1056C0008091F806882309F06DC08091EF06882349
:1056D00009F468C045C0E0914A07F0914B07868104
:1056E00097819B838A838A819B810C960E942D1BC4
:1056F0008A819B8102960E942D1BEA81FB819689FB
:105700008091F206891728F4EA81FB8186898093CB
:10571000F206EA81FB818689282F30E0C901880FD3
:10572000991F880F991F880F991F820F931FAC0133
:105730004750594F8A819B819C012E5F3F4FCA0180
:10574000B9010E947D1AEA81FB819689E091EC06FD
:10575000F091ED068689981718F081E08093F506A0
:1057600080914507882309F0B6CF8091F4068823FD
:1057700089F00CC00E94F42C882319F081E08093FA
:10578000F5068091F40681508093F4068091F4062A
:10579000882381F78091F506813021F481E08983A7
:1057A0000E94B21D0F900FBE89810F900F900F9035
:1057B000CF91DF910895DF93CF9300D0CDB7DEB7BF
:1057C0000FB6F8940F928091F0069091F1069A83AB
:1057D00089830F900FBE89819A810F900F90CF918E
:1057E000DF910895DF93CF9300D00F92CDB7DEB74E
:1057F00019828091F0069091F1069B838A838A81B9
:105800009B810F900F900F90CF91DF910895DF93C0
:10581000CF93CDB7DEB78091EF06CF91DF9108959A
:10582000DF93CF93CDB7DEB727970FB6F894DEBFDF
:105830000FBECDBF9C838B836D835F834E831A82A3
:1058400086E089830E94452B9091EF068D81891710
:1058500008F4BEC08981815089838A81882F90E0B5
:105860009C01220F331FC901880F991F880F991FB0
:10587000880F991FAC01421B530B9A018B819C81AD
:10588000AC01420F531F8981282F30E0C901880FD6
:10589000991F880F991F880F991F820F931F9C01D2
:1058A0002750394FCA01B90141E00E942332982F95
:1058B0008A81890F8A838981882361F68A81882F6A
:1058C00090E09C01220F331FC901880F991F880F98
:1058D000991F880F991FAC01421B530B9A018B81B2
:1058E0009C81820F931F2091410730914207B9019B
:1058F00042E00E942332982F8A81890F8A838A810D
:10590000882F90E09C01220F331FC901880F991F37
:10591000880F991F880F991FAC01421B530B9A01E6
:105920008B819C81820F931F209143073091440704
:10593000B90142E00E942332982F8A81890F8A831D
:105940008A81882F90E09C01220F331FC901880FA4
:10595000991F880F991F880F991FAC01421B530B89
:105960009A018B819C81820F931F2EE437E0B9014D
:1059700044E00E942332982F8A81890F8A838A818A
:10598000882F90E09C01220F331FC901880F991FB7
:10599000880F991F880F991FAC01421B530B9A0166
:1059A0008B819C81820F931F27E537E0B90143E08B
:1059B0000E942332982F8A81890F8A838E819F814A
:1059C000009731F0EE81FF811082118212821382E2
:1059D0000E94512B8A8127960FB6F894DEBF0FBE26
:1059E000CDBFCF91DF910895DF93CF93CDB7DEB7D1
:1059F00029970FB6F894DEBF0FBECDBF1D828091F0
:105A0000F806882309F0C2C08091F0069091F10653
:105A100001969093F1068093F0068091F0069091A4
:105A2000F1069C838B838B819C810097D9F48091B4
:105A30004107909142079A8389838091430790910F
:105A40004407909342078093410789819A819093FC
:105A50004407809343078091F6068F5F8093F60694
:105A60000E94E9332091A6003091A7008B819C8190
:105A70008217930708F471C0E0914107F091420743
:105A80008081882339F48FEF9FEF9093A700809354
:105A9000A60063C0E0914107F09142070580F681BE
:105AA000E02D8681978199878887E885F9858281AD
:105AB00093819F838E832B813C818E819F812817C8
:105AC000390738F48E819F819093A7008093A600B8
:105AD00044C08885998502960E942D1BE885F9852A
