S015000041544D454C5F4932435F5458442E7372656330
S11300000C942A000C9442020C946B020C949402FB
S11300100C9447000C9447000C949F040C94C8045F
S11300200C94F1040C941A050C944D040C9476046D
S11300300C9424040C9443050C946C050C949505C1
S11300400C9419020C9447000C9447000C9447003C
S11300500C94470011241FBECFE5D8E0DEBFCDBF0E
S113006010E0A0E6B0E0E0E8FBE002C005900D92ED
S1130070AC39B107D9F720E0ACE9B0E001C01D927A
S1130080A83BB207E1F70E94A6000C94BE050C94AD
S113009000000E942A0160E080E00E94020281E6E2
S11300A090E00E94EF0183E294EF0197F1F700C022
S11300B000000E94C90383E294EF0197F1F700C0A6
S11300C00000089560E081E00E9402028FE690E063
S11300D00E94EF010E94D50360E081E00E940202C9
S11300E08EE690E00E94EF0182E00E94EB0360E064
S11300F081E00E94020289E790E00E94EF01809172
S113010060000E94060460E081E00E94020284E82C
S113011090E00E94EF010E941A0460E082E00E94D5
S113012002028FE890E00E94EF0165E082E00E9405
S11301300202809160000E94700160E083E00E94EE
S1130140020285E990E00E94EF0108950E944900AF
S11301500E946200FFCFCF93C82F40E061E080E0AF
S11301600E94430389EF90E00197F1F700C000007B
S113017041E062E080E00E94430389EF90E0019750
S1130180F1F700C00000C4FB442740F963E080E0BD
S11301900E944303C5FB442740F964E080E00E94C9
S11301A04303C6FB442740F965E080E00E94430313
S11301B04C2F441F4427441F66E080E00E94430301
S11301C089EF90E00197F1F700C0000040E062E0A1
S11301D080E00E94430389EF90E00197F1F700C0AB
S11301E0000041E062E080E00E94430389EF90E078
S11301F00197F1F700C000004C2F417063E080E0EC
S11302000E944303C1FB442740F964E080E00E945C
S11302104303C2FB442740F965E080E00E944303A6
S1130220C3FB442740F966E080E00E94430389EF62
S113023090E00197F1F700C0000040E062E080E048
S11302400E94430389EF90E00197F1F700C000009A
S1130250CF91089541E061E080E00E94BD0241E059
S113026062E080E00E94BD0287E893E10197F1F724
S113027000C0000041E063E080E00E94BD0241E074
S113028064E080E00E94BD0241E065E080E00E94FD
S1130290BD0241E066E080E00E94BD0283E30E946B
S11302A0AB0082E30E94AB0088E20E94AB0083EFC4
S11302B091E00197F1F700C000008CE00E94AB00D0
S11302C083EF91E00197F1F700C0000081E00E9404
S11302D0AB0083EF91E00197F1F700C000000895AF
S11302E0CF93C82F41E061E080E00E94430389EF8F
S11302F090E00197F1F700C0000041E062E080E087
S11303000E94430389EF90E00197F1F700C00000D9
S1130310C4FB442740F963E080E00E944303C5FB2B
S1130320442740F964E080E00E944303C6FB44276D
S113033040F965E080E00E9443034C2F441F4427AA
S1130340441F66E080E00E94430389EF90E0019738
S1130350F1F700C0000040E062E080E00E94430347
S113036089EF90E00197F1F700C0000041E062E0FE
S113037080E00E94430389EF90E00197F1F700C009
S113038000004C2F417063E080E00E944303C1FBF6
S1130390442740F964E080E00E944303C2FB442701
S11303A040F965E080E00E944303C3FB442740F921
S11303B066E080E00E94430389EF90E00197F1F743
S11303C000C0000040E062E080E00E94430389EF47
S11303D090E00197F1F700C00000CF9108950F93CA
S11303E01F93CF938C01C0E003C00E947001CF5FC4
S11303F0F801EC0FF11D80818111F7CFCF911F918E
S11304000F910895813031F070F0823031F08330F3
S113041039F00AC090E4960F07C090E1960F04C02B
S113042090E5960F01C0962F892F80680E94AB003B
S113043008951F920F920FB60F9211242F933F939A
S11304404F935F936F937F938F939F93AF93BF93D8
S1130450EF93FF93E0919C00F0919D00309709F099
S11304600995FF91EF91BF91AF919F918F917F91EA
S11304706F915F914F913F912F910F900FBE0F900D
S11304801F9018951F920F920FB60F9211242F935D
S11304903F934F935F936F937F938F939F93AF9308
S11304A0BF93EF93FF93E091A000F091A1003097E8
S11304B009F00995FF91EF91BF91AF919F918F91B1
S11304C07F916F915F914F913F912F910F900FBE4C
S11304D00F901F9018951F920F920FB60F92112430
S11304E02F933F934F935F936F937F938F939F9338
S11304F0AF93BF93EF93FF93E091A200F091A30019
S1130500309709F00995FF91EF91BF91AF919F91B9
S11305108F917F916F915F914F913F912F910F90A8
S11305200FBE0F901F9018951F920F920FB60F9247
S113053011242F933F934F935F936F937F938F93E4
S11305409F93AF93BF93EF93FF93E0919E00F0913D
S11305509F00309709F00995FF91EF91BF91AF91FA
S11305609F918F917F916F915F914F913F912F91C7
S11305700F900FBE0F901F901895683008F07BC045
S1130580843008F07AC0423008F079C0813011F12B
S113059030F08230D1F1833009F452C072C041305E
S11305A061F42AB381E090E002C0880F991F6A9534
S11305B0E2F7822B8ABB80E008952AB381E090E0C1
S11305C002C0880F991F6A95E2F7809582238ABB3F
S11305D080E00895413061F427B381E090E002C0E7
S11305E0880F991F6A95E2F7822B87BB80E00895F4
S11305F027B381E090E002C0880F991F6A95E2F763
S11306008095822387BB80E00895413061F424B350
S113061081E090E002C0880F991F6A95E2F7822B6F
S113062084BB80E0089524B381E090E002C0880F89
S1130630991F6A95E2F78095822384BB80E0089530
S1130640413061F421B381E090E002C0880F991F2A
S11306506A95E2F7822B81BB80E0089521B381E0A3
S113066090E002C0880F991F6A95E2F78095822373
S113067081BB80E0089581E0089582E0089583E0DD
S1130680089580E00895683008F07BC0843008F055
S11306907AC0423008F079C0813011F130F08230F4
S11306A0D1F1833009F452C072C0413061F42BB3EC
S11306B081E090E002C0880F991F6A95E2F7822BCF
S11306C08BBB80E008952BB381E090E002C0880FDB
S11306D0991F6A95E2F7809582238BBB80E0089589
S11306E0413061F428B381E090E002C0880F991F83
S11306F06A95E2F7822B88BB80E0089528B381E0F5
S113070090E002C0880F991F6A95E2F780958223D2
S113071088BB80E00895413061F425B381E090E026
S113072002C0880F991F6A95E2F7822B85BB80E08F
S1130730089525B381E090E002C0880F991F6A955F
S1130740E2F78095822385BB80E00895413061F40F
S113075022B381E090E002C0880F991F6A95E2F706
S1130760822B82BB80E0089522B381E090E002C036
S1130770880F991F6A95E2F78095822382BB80E0F7
S1130780089581E0089582E0089583E0089580E06B
S1130790089582E080B981B18C7F81B981B187707D
S11307A081B986B7806486BF089586B7806886BF9E
S11307B086B7806286BF86B7846086BF06B607FEAA
S11307C0FDCF80E001C081E091B196959695969514
S11307D09130C9F70895880F83B983B18E7F83B9A7
S11307E086B78F7D86BF86B7806886BF86B78460EC
S11307F086BF06B607FEFDCF80E001C083E091B15D
S11308009695969596959330C9F7089583B986B7CA
S1130810806886BF86B7846086BF06B607FEFDCFB4
S113082080E001C085E091B19695969596959530B6
S1130830C9F7089586B7806186BF86B7806886BF8A
S113084086B7846086BF08951F920F920FB60F92E9
S113085011242F933F934F935F936F937F938F93C1
S11308609F93AF93BF93EF93FF93E091A400F09114
S1130870A500309709F00995FF91EF91BF91AF91D1
S11308809F918F917F916F915F914F913F912F91A4
S11308900F900FBE0F901F9018951F920F920FB6D6
S11308A00F9211242F933F934F935F936F937F93F2
S11308B08F939F93AF93BF93EF93FF93E091A60021
S11308C0F091A700309709F00995FF91EF91BF913E
S11308D0AF919F918F917F916F915F914F913F91D4
S11308E02F910F900FBE0F901F9018951F920F928B
S11308F00FB60F9211242F933F934F935F936F93EF
S11309007F938F939F93AF93BF93EF93FF93E09164
S1130910A800F091A900309709F00995FF91EF9193
S1130920BF91AF919F918F917F916F915F914F9103
S11309303F912F910F900FBE0F901F9018951F920B
S11309400F920FB60F9211242F933F934F935F93FF
S11309506F937F938F939F93AF93BF93EF93FF9383
S1130960E091AE00F091AF00309709F00995FF9146
S1130970EF91BF91AF919F918F917F916F915F9113
S11309804F913F912F910F900FBE0F901F9018958C
S11309901F920F920FB60F9211242F933F934F93F0
S11309A05F936F937F938F939F93AF93BF93EF93D3
S11309B0FF93E091B000F091B100309709F00995F0
S11309C0FF91EF91BF91AF919F918F917F916F9123
S11309D05F914F913F912F910F900FBE0F901F90F9
S11309E018951F920F920FB60F9211242F933F93D5
S11309F04F935F936F937F938F939F93AF93BF9323
S1130A00EF93FF93E091AA00F091AB00309709F0C7
S1130A100995FF91EF91BF91AF919F918F917F9134
S1130A206F915F914F913F912F910F900FBE0F9057
S1130A301F9018951F920F920FB60F9211242F93A7
S1130A403F934F935F936F937F938F939F93AF9352
S1130A50BF93EF93FF93E091AC00F091AD0030971A
S1130A6009F00995FF91EF91BF91AF919F918F91FB
S1130A707F916F915F914F913F912F910F900FBE96
S1130A800F901F9018951F920F920FB60F9211247A
S1130A902F933F934F935F936F937F938F939F9382
S1130AA0AF93BF93EF93FF93E091B200F091B30043
S1130AB0309709F00995FF91EF91BF91AF919F9104
S1130AC08F917F916F915F914F913F912F910F90F3
S1130AD00FBE0F901F9018951F920F920FB60F9292
S1130AE011242F933F934F935F936F937F938F932F
S1130AF09F93AF93BF93EF93FF93E091B600F09170
S1130B00B700309709F00995FF91EF91BF91AF912C
S1130B109F918F917F916F915F914F913F912F9111
S1130B200F900FBE0F901F9018951F920F920FB643
S1130B300F9211242F933F934F935F936F937F935F
S1130B408F939F93AF93BF93EF93FF93E091B40080
S1130B50F091B500309709F00995FF91EF91BF919D
S1130B60AF919F918F917F916F915F914F913F9141
S1130B702F910F900FBE0F901F901895F894FFCFF0
S1130B8050493243205452414E534D49540031533D
S1130B90656E64696E672E2E003253656E64696EED
S1130BA0672E2E003353656E64696E672E2E0054D3
S10F0BB078443A2000446F6E6521000078
S9030000FC
