:100000000C942A000C9436020C945F020C94880223
:100010000C9447000C9447000C948D040C94B60487
:100020000C94DF040C9408050C943B040C946404B9
:100030000C9412040C9431050C945A050C9483050D
:100040000C940D020C9447000C9447000C9447004C
:100050000C94470011241FBECFE5D8E0DEBFCDBF12
:1000600010E0A0E6B0E0ECE5FBE002C005900D92E8
:10007000AC39B107D9F720E0ACE9B0E001C01D927E
:10008000A83BB207E1F70E949A000C94AC050C94CF
:1000900000000E941E0160E080E00E94F60181E6FF
:1000A00090E00E94E3010E94BD03089560E081E0BA
:1000B0000E94F6018FE690E00E94E3010E94C603D1
:1000C00060E081E00E94F6018EE690E00E94E3018C
:1000D00082E00E94DC0360E081E00E94F60189E793
:1000E00090E00E94E301809160000E94F40360E0D0
:1000F00081E00E94F60184E890E00E94E3010E9402
:10010000080460E082E00E94F6018FE890E00E941F
:10011000E30165E082E00E94F601809160000E94A8
:10012000640160E083E00E94F60185E990E00E94AE
:10013000E30108950E9449000E945600FFCFCF932B
:10014000C82F40E061E080E00E94370389EF90E033
:100150000197F1F700C0000041E062E080E00E94FA
:10016000370389EF90E00197F1F700C00000C4FB6E
:10017000442740F963E080E00E943703C5FB442731
:1001800040F964E080E00E943703C6FB442740F951
:1001900065E080E00E9437034C2F441F4427441F32
:1001A00066E080E00E94370389EF90E00197F1F765
:1001B00000C0000040E062E080E00E94370389EF69
:1001C00090E00197F1F700C0000041E062E080E0BC
:1001D0000E94370389EF90E00197F1F700C000001B
:1001E0004C2F417063E080E00E943703C1FB44273D
:1001F00040F964E080E00E943703C2FB442740F9E5
:1002000065E080E00E943703C3FB442740F966E0C5
:1002100080E00E94370389EF90E00197F1F700C07A
:10022000000040E062E080E00E94370389EF90E048
:100230000197F1F700C00000CF91089541E061E01F
:1002400080E00E94B10241E062E080E00E94B102E1
:1002500087E893E10197F1F700C0000041E063E017
:1002600080E00E94B10241E064E080E00E94B102BF
:1002700041E065E080E00E94B10241E066E080E09C
:100280000E94B10283E30E949F0082E30E949F00CC
:1002900088E20E949F0083EF91E00197F1F700C090
:1002A00000008CE00E949F0083EF91E00197F1F73E
:1002B00000C0000081E00E949F0083EF91E0019761
:1002C000F1F700C000000895CF93C82F41E061E02E
:1002D00080E00E94370389EF90E00197F1F700C0BA
:1002E000000041E062E080E00E94370389EF90E087
:1002F0000197F1F700C00000C4FB442740F963E018
:1003000080E00E943703C5FB442740F964E080E0A9
:100310000E943703C6FB442740F965E080E00E9455
:1003200037034C2F441F4427441F66E080E00E949F
:10033000370389EF90E00197F1F700C0000040E03B
:1003400062E080E00E94370389EF90E00197F1F7C7
:1003500000C0000041E062E080E00E94370389EFC6
:1003600090E00197F1F700C000004C2F417063E06E
:1003700080E00E943703C1FB442740F964E080E03D
:100380000E943703C2FB442740F965E080E00E94E9
:100390003703C3FB442740F966E080E00E9437033F
:1003A00089EF90E00197F1F700C0000040E062E0C3
:1003B00080E00E94370389EF90E00197F1F700C0D9
:1003C0000000CF9108950F931F93CF938C01C0E04D
:1003D00003C00E946401CF5FF801EC0FF11D808122
:1003E0008111F7CFCF911F910F910895813031F096
:1003F00070F0823031F0833039F00AC090E4960F0B
:1004000007C090E1960F04C090E5960F01C0962FAB
:10041000892F80680E949F0008951F920F920FB647
:100420000F9211242F933F934F935F936F937F937A
:100430008F939F93AF93BF93EF93FF93E0919C00B3
:10044000F0919D00309709F00995FF91EF91BF91D0
:10045000AF919F918F917F916F915F914F913F915C
:100460002F910F900FBE0F901F9018951F920F9213
:100470000FB60F9211242F933F934F935F936F9377
:100480007F938F939F93AF93BF93EF93FF93E091ED
:10049000A000F091A100309709F00995FF91EF912C
:1004A000BF91AF919F918F917F916F915F914F918C
:1004B0003F912F910F900FBE0F901F9018951F9294
:1004C0000F920FB60F9211242F933F934F935F9388
:1004D0006F937F938F939F93AF93BF93EF93FF930C
:1004E000E091A200F091A300309709F00995FF91E7
:1004F000EF91BF91AF919F918F917F916F915F919C
:100500004F913F912F910F900FBE0F901F90189514
:100510001F920F920FB60F9211242F933F934F9378
:100520005F936F937F938F939F93AF93BF93EF935B
:10053000FF93E0919E00F0919F00309709F009959C
:10054000FF91EF91BF91AF919F918F917F916F91AB
:100550005F914F913F912F910F900FBE0F901F9081
:100560001895683008F07BC0843008F07AC04230BB
:1005700008F079C0813011F130F08230D1F1833050
:1005800009F452C072C0413061F42AB381E090E0B6
:1005900002C0880F991F6A95E2F7822B8ABB80E020
:1005A00008952AB381E090E002C0880F991F6A95F0
:1005B000E2F7809582238ABB80E00895413061F4A0
:1005C00027B381E090E002C0880F991F6A95E2F797
:1005D000822B87BB80E0089527B381E090E002C0C2
:1005E000880F991F6A95E2F78095822387BB80E088
:1005F0000895413061F424B381E090E002C0880F97
:10060000991F6A95E2F7822B84BB80E0089524B39A
:1006100081E090E002C0880F991F6A95E2F780950B
:10062000822384BB80E00895413061F421B381E0EE
:1006300090E002C0880F991F6A95E2F7822B81BB78
:1006400080E0089521B381E090E002C0880F991FF7
:100650006A95E2F78095822381BB80E0089581E06E
:10066000089582E0089583E0089580E00895683059
:1006700008F07BC0843008F07AC0423008F079C0BE
:10068000813011F130F08230D1F1833009F452C061
:1006900072C0413061F42BB381E090E002C0880F5A
:1006A000991F6A95E2F7822B8BBB80E008952BB3EC
:1006B00081E090E002C0880F991F6A95E2F780956B
:1006C00082238BBB80E00895413061F428B381E040
:1006D00090E002C0880F991F6A95E2F7822B88BBD1
:1006E00080E0089528B381E090E002C0880F991F50
:1006F0006A95E2F78095822388BB80E008954130B7
:1007000061F425B381E090E002C0880F991F6A95DB
:10071000E2F7822B85BB80E0089525B381E090E06D
:1007200002C0880F991F6A95E2F78095822385BBE6
:1007300080E00895413061F422B381E090E002C08E
:10074000880F991F6A95E2F7822B82BB80E008959B
:1007500022B381E090E002C0880F991F6A95E2F70A
:100760008095822382BB80E0089581E0089582E035
:10077000089583E0089580E0089582E080B981B112
:100780008C7F81B981B1877081B9089586B78068FF
:1007900086BF86B7806286BF86B7846086BF06B68E
:1007A00007FEFDCF80E001C081E091B1969596955E
:1007B00096959130C9F70895880F83B983B18E7FDC
:1007C00083B986B7806886BF86B7846086BF06B661
:1007D00007FEFDCF81B1869586958695833011F40D
:1007E00080E0089583E0089583B986B7806886BF66
:1007F00086B7846086BF06B607FEFDCF81B18695B9
:1008000086958695853011F480E0089585E00895F9
:1008100086B7806186BF86B7806886BF86B78460EA
:1008200086BF08951F920F920FB60F9211242F9337
:100830003F934F935F936F937F938F939F93AF9368
:10084000BF93EF93FF93E091A400F091A500309740
:1008500009F00995FF91EF91BF91AF919F918F9111
:100860007F916F915F914F913F912F910F900FBEAC
:100870000F901F9018951F920F920FB60F92112490
:100880002F933F934F935F936F937F938F939F9398
:10089000AF93BF93EF93FF93E091A600F091A70071
:1008A000309709F00995FF91EF91BF91AF919F911A
:1008B0008F917F916F915F914F913F912F910F9009
:1008C0000FBE0F901F9018951F920F920FB60F92A8
:1008D00011242F933F934F935F936F937F938F9345
:1008E0009F93AF93BF93EF93FF93E091A800F09194
:1008F000A900309709F00995FF91EF91BF91AF9151
:100900009F918F917F916F915F914F913F912F9127
:100910000F900FBE0F901F9018951F920F920FB659
:100920000F9211242F933F934F935F936F937F9375
:100930008F939F93AF93BF93EF93FF93E091AE009C
:10094000F091AF00309709F00995FF91EF91BF91B9
:10095000AF919F918F917F916F915F914F913F9157
:100960002F910F900FBE0F901F9018951F920F920E
:100970000FB60F9211242F933F934F935F936F9372
:100980007F938F939F93AF93BF93EF93FF93E091E8
:10099000B000F091B100309709F00995FF91EF9107
:1009A000BF91AF919F918F917F916F915F914F9187
:1009B0003F912F910F900FBE0F901F9018951F928F
:1009C0000F920FB60F9211242F933F934F935F9383
:1009D0006F937F938F939F93AF93BF93EF93FF9307
:1009E000E091AA00F091AB00309709F00995FF91D2
:1009F000EF91BF91AF919F918F917F916F915F9197
:100A00004F913F912F910F900FBE0F901F9018950F
:100A10001F920F920FB60F9211242F933F934F9373
:100A20005F936F937F938F939F93AF93BF93EF9356
:100A3000FF93E091AC00F091AD00309709F009957B
:100A4000FF91EF91BF91AF919F918F917F916F91A6
:100A50005F914F913F912F910F900FBE0F901F907C
:100A600018951F920F920FB60F9211242F933F9358
:100A70004F935F936F937F938F939F93AF93BF93A6
:100A8000EF93FF93E091B200F091B300309709F03B
:100A90000995FF91EF91BF91AF919F918F917F91B8
:100AA0006F915F914F913F912F910F900FBE0F90DB
:100AB0001F9018951F920F920FB60F9211242F932B
:100AC0003F934F935F936F937F938F939F93AF93D6
:100AD000BF93EF93FF93E091B600F091B70030978A
:100AE00009F00995FF91EF91BF91AF919F918F917F
:100AF0007F916F915F914F913F912F910F900FBE1A
:100B00000F901F9018951F920F920FB60F921124FD
:100B10002F933F934F935F936F937F938F939F9305
:100B2000AF93BF93EF93FF93E091B400F091B500C2
:100B3000309709F00995FF91EF91BF91AF919F9187
:100B40008F917F916F915F914F913F912F910F9076
:0C0B50000FBE0F901F901895F894FFCF77
:100B5C004B493243205452414E534D49540031536A
:100B6C00656E64696E672E2E003253656E64696E15
:100B7C00672E2E003353656E64696E672E2E0054FB
:0C0B8C0078443A2000446F6E65210000A0
:00000001FF
