:100000000C942A000C9418030C9441030C946A037A
:100010000C9447000C9447000C944D050C94760505
:100020000C949F050C94C8050C94FB040C942405B7
:100030000C94D2040C9406060C942F060C945806CB
:100040000C94EF020C9447000C9447000C9447006A
:100050000C94470011241FBECFE5D8E0DEBFCDBF12
:1000600010E0A0E6B0E0E2EDFDE002C005900D92E8
:10007000A039B107D9F720E0A0E9B0E001C01D9296
:10008000AF3AB207E1F70E941A010C94E7060C940C
:1000900000000E9493030E94F1050E94A00160E00D
:1000A00080E00E94780281E690E00E9465020E9452
:1000B000A30487EA91E60197F1F700C0000060E031
:1000C00081E00E9478028CE690E00E94650240E0A8
:1000D00060E082E00E94970340E061E082E00E94DD
:1000E000970340E060E082E00E941D0441E061E08F
:1000F00082E00E941D040E94AE02089540E060E08C
:1001000082E00E941D0441E061E082E00E941D0443
:10011000089540E061E082E00E941D0441E060E05B
:1001200082E00E941D04089580916000813009F0F2
:1001300068C084E78093910080919100873781F0B7
:1001400080919100833761F080919100883741F070
:1001500080919100873621F080919100863609F5D3
:100160000E948900809191000E94CA0480939200AD
:1001700064E082E00E947802809191000E94E60192
:100180006CE082E00E947802809192000E94E60179
:1001900060E083E00E9478028DE790E00E946502B3
:1001A0002EC080919100843721F080919100823798
:1001B00031F50E947E00809191000E94CA048093D4
:1001C000920064E082E00E947802809191000E9497
:1001D000E6016CE082E00E947802809192000E9429
:1001E000E60160E083E00E94780283E890E00E94EC
:1001F000650287EA91E60197F1F700C000001092CE
:10020000920060E083E00E94780289E890E00E941A
:10021000650266E083E00E94780280E00E94E102CD
:1002200080939000682F70E080E090E00E948F0241
:10023000089508950E9449000E9419010E949400A7
:10024000FBCFCF93C82F40E063E080E00E941D0405
:1002500089EF90E00197F1F700C0000041E062E013
:1002600080E00E941D0489EF90E00197F1F700C043
:100270000000C4FB442740F960E081E00E941D04B7
:10028000C5FB442740F961E081E00E941D04C6FBE4
:10029000442740F962E081E00E941D044C2F441F76
:1002A0004427441F63E081E00E941D0489EF90E031
:1002B0000197F1F700C0000040E062E080E00E949A
:1002C0001D0489EF90E00197F1F700C0000041E0C4
:1002D00062E080E00E941D0489EF90E00197F1F751
:1002E00000C000004C2F417060E081E00E941D04BE
:1002F000C1FB442740F961E081E00E941D04C2FB7C
:10030000442740F962E081E00E941D04C3FB4427BA
:1003100040F963E081E00E941D0489EF90E00197BD
:10032000F1F700C0000040E062E080E00E941D04A0
:1003300089EF90E00197F1F700C00000CF91089598
:1003400041E063E080E00E94970341E062E080E0EA
:100350000E94970387E893E10197F1F700C000003E
:1003600041E060E081E00E94970341E061E081E0CC
:100370000E94970341E062E081E00E94970341E020
:1003800063E081E00E94970383E30E94210182E3FE
:100390000E94210188E20E94210183EF91E00197F0
:1003A000F1F700C000008CE00E94210183EF91E092
:1003B0000197F1F700C0000081E00E94210183EF66
:1003C00091E00197F1F700C000000895CF93C82F86
:1003D00041E063E080E00E941D0489EF90E0019716
:1003E000F1F700C0000041E062E080E00E941D04DF
:1003F00089EF90E00197F1F700C00000C4FB4427AB
:1004000040F960E081E00E941D04C5FB442740F9EB
:1004100061E081E00E941D04C6FB442740F962E0D0
:1004200081E00E941D044C2F441F4427441F63E0B9
:1004300081E00E941D0489EF90E00197F1F700C070
:10044000000040E062E080E00E941D0489EF90E03F
:100450000197F1F700C0000041E062E080E00E94F7
:100460001D0489EF90E00197F1F700C000004C2FC8
:10047000417060E081E00E941D04C1FB442740F907
:1004800061E081E00E941D04C2FB442740F962E064
:1004900081E00E941D04C3FB442740F963E081E032
:1004A0000E941D0489EF90E00197F1F700C0000061
:1004B00040E062E080E00E941D0489EF90E0019737
:1004C000F1F700C00000CF9108950F931F93CF93D1
:1004D0008C01C0E003C00E94E601CF5FF801EC0F81
:1004E000F11D80818111F7CFCF911F910F91089558
:1004F000813031F070F0823031F0833039F00AC051
:1005000090E4960F07C090E1960F04C090E5960F17
:1005100001C0962F892F80680E9421010895CF93F2
:10052000DF93CDB7DEB760970FB6F894DEBF0FBE8E
:10053000CDBFDC01CB014AE0BE016F5F7F4F0E945F
:10054000B206CE0101960E94650260960FB6F8943D
:10055000DEBF0FBECDBFDF91CF91089587B18F73FE
:10056000806487B987B18F7D87B986B1806886B985
:1005700086B1876086B986B18F7D86B980B78F7165
:1005800080BF08958F7197B1907E892B87B986B10E
:10059000806486B9349BFECF86B1806186B984B110
:1005A00095B108950E94C2029C01A8E8B3E10E949F
:1005B000A3062FEF33E040E050E00E948106C9011E
:1005C00008950E94D2029C01ADECBCEC0E94A306EF
:1005D00096958795969587959695879508951F92F8
:1005E0000F920FB60F9211242F933F934F935F9367
:1005F0006F937F938F939F93AF93BF93EF93FF93EB
:10060000E0919300F0919400309709F00995FF91E3
:10061000EF91BF91AF919F918F917F916F915F917A
:100620004F913F912F910F900FBE0F901F901895F3
:100630001F920F920FB60F9211242F933F934F9357
:100640005F936F937F938F939F93AF93BF93EF933A
:10065000FF93E0919700F0919800309709F0099589
:10066000FF91EF91BF91AF919F918F917F916F918A
:100670005F914F913F912F910F900FBE0F901F9060
:1006800018951F920F920FB60F9211242F933F933C
:100690004F935F936F937F938F939F93AF93BF938A
:1006A000EF93FF93E0919900F0919A00309709F051
:1006B0000995FF91EF91BF91AF919F918F917F919C
:1006C0006F915F914F913F912F910F900FBE0F90BF
:1006D0001F9018951F920F920FB60F9211242F930F
:1006E0003F934F935F936F937F938F939F93AF93BA
:1006F000BF93EF93FF93E0919500F09196003097B0
:1007000009F00995FF91EF91BF91AF919F918F9162
:100710007F916F915F914F913F912F910F900FBEFD
:100720000F901F9018958FB780688FBF089568301D
:1007300008F07BC0843008F07AC0423008F079C0FD
:10074000813011F130F08230D1F1833009F452C0A0
:1007500072C0413061F42AB381E090E002C0880F9A
:10076000991F6A95E2F7822B8ABB80E008952AB32D
:1007700081E090E002C0880F991F6A95E2F78095AA
:1007800082238ABB80E00895413061F427B381E081
:1007900090E002C0880F991F6A95E2F7822B87BB11
:1007A00080E0089527B381E090E002C0880F991F90
:1007B0006A95E2F78095822387BB80E008954130F7
:1007C00061F424B381E090E002C0880F991F6A951C
:1007D000E2F7822B84BB80E0089524B381E090E0AF
:1007E00002C0880F991F6A95E2F78095822384BB27
:1007F00080E00895413061F421B381E090E002C0CF
:10080000880F991F6A95E2F7822B81BB80E00895DB
:1008100021B381E090E002C0880F991F6A95E2F74A
:100820008095822381BB80E0089581E0089582E075
:10083000089583E0089580E00895683008F07BC053
:10084000843008F07AC0423008F079C0813011F16C
:1008500030F08230D1F1833009F452C072C041309F
:1008600061F42BB381E090E002C0880F991F6A9574
:10087000E2F7822B8BBB80E008952BB381E090E000
:1008800002C0880F991F6A95E2F7809582238BBB7F
:1008900080E00895413061F428B381E090E002C027
:1008A000880F991F6A95E2F7822B88BB80E0089534
:1008B00028B381E090E002C0880F991F6A95E2F7A3
:1008C0008095822388BB80E00895413061F425B390
:1008D00081E090E002C0880F991F6A95E2F7822BB1
:1008E00085BB80E0089525B381E090E002C0880FC9
:1008F000991F6A95E2F78095822385BB80E0089571
:10090000413061F422B381E090E002C0880F991F6A
:100910006A95E2F7822B82BB80E0089522B381E0E2
:1009200090E002C0880F991F6A95E2F780958223B4
:1009300082BB80E0089581E0089582E0089583E01D
:10094000089580E0089541E064E081E00E9497030B
:1009500041E065E081E00E94970340E066E081E0CD
:100960000E94970341E067E081E00E9497038DB108
:1009700080648DB98DB180618DB98DB18C7F8DB959
:100980008DB18F7D8DB98EB18E7F8EB98DB180681E
:100990008DB908958FB9779BFECF8EB180688EB9DF
:1009A0008FB108951F920F920FB60F9211242F93BB
:1009B0003F934F935F936F937F938F939F93AF93E7
:1009C000BF93EF93FF93E0919B00F0919C003097D1
:1009D00009F00995FF91EF91BF91AF919F918F9190
:1009E0007F916F915F914F913F912F910F900FBE2B
:1009F0000F901F9018951F920F920FB60F9211240F
:100A00002F933F934F935F936F937F938F939F9316
:100A1000AF93BF93EF93FF93E0919D00F0919E0001
:100A2000309709F00995FF91EF91BF91AF919F9198
:100A30008F917F916F915F914F913F912F910F9087
:100A40000FBE0F901F9018951F920F920FB60F9226
:100A500011242F933F934F935F936F937F938F93C3
:100A60009F93AF93BF93EF93FF93E0919F00F0911B
:100A7000A000309709F00995FF91EF91BF91AF91D8
:100A80009F918F917F916F915F914F913F912F91A6
:100A90000F900FBE0F901F9018951F920F920FB6D8
:100AA0000F9211242F933F934F935F936F937F93F4
:100AB0008F939F93AF93BF93EF93FF93E091A50024
:100AC000F091A600309709F00995FF91EF91BF9141
:100AD000AF919F918F917F916F915F914F913F91D6
:100AE0002F910F900FBE0F901F9018951F920F928D
:100AF0000FB60F9211242F933F934F935F936F93F1
:100B00007F938F939F93AF93BF93EF93FF93E09166
:100B1000A700F091A800309709F00995FF91EF9197
:100B2000BF91AF919F918F917F916F915F914F9105
:100B30003F912F910F900FBE0F901F9018951F920D
:100B40000F920FB60F9211242F933F934F935F9301
:100B50006F937F938F939F93AF93BF93EF93FF9385
:100B6000E091A100F091A200309709F00995FF9162
:100B7000EF91BF91AF919F918F917F916F915F9115
:100B80004F913F912F910F900FBE0F901F9018958E
:100B90001F920F920FB60F9211242F933F934F93F2
:100BA0005F936F937F938F939F93AF93BF93EF93D5
:100BB000FF93E091A300F091A400309709F009950C
:100BC000FF91EF91BF91AF919F918F917F916F9125
:100BD0005F914F913F912F910F900FBE0F901F90FB
:100BE00018958AB188608AB98AB180618AB986E825
:100BF00080BD83E389B910BC8AB180688AB98AB1A3
:100C000080648AB98AB180628AB908951F920F926E
:100C10000FB60F9211242F933F934F935F936F93CF
:100C20007F938F939F93AF93BF93EF93FF93E09145
:100C3000A900F091AA00309709F00995FF91EF9172
:100C4000BF91AF919F918F917F916F915F914F91E4
:100C50003F912F910F900FBE0F901F9018951F92EC
:100C60000F920FB60F9211242F933F934F935F93E0
:100C70006F937F938F939F93AF93BF93EF93FF9364
:100C8000E091AD00F091AE00309709F00995FF9129
:100C9000EF91BF91AF919F918F917F916F915F91F4
:100CA0004F913F912F910F900FBE0F901F9018956D
:100CB0001F920F920FB60F9211242F933F934F93D1
:100CC0005F936F937F938F939F93AF93BF93EF93B4
:100CD000FF93E091AB00F091AC00309709F00995DB
:100CE000FF91EF91BF91AF919F918F917F916F9104
:100CF0005F914F913F912F910F900FBE0F901F90DA
:100D00001895A1E21A2EAA1BBB1BFD010DC0AA1F3C
:100D1000BB1FEE1FFF1FA217B307E407F50720F064
:100D2000A21BB30BE40BF50B661F771F881F991FDF
:100D30001A9469F760957095809590959B01AC0128
:100D4000BD01CF010895A29FB001B39FC001A39F31
:100D5000700D811D1124911DB29F700D811D1124F4
:100D6000911D0895BB274A3031F4992322F4BDE246
:100D7000909581959F4F0C94BE06BB27FB0155278C
:100D8000AA27880F991FAA1FA41710F0A41B8395E8
:100D90005051B9F7A05DAA3308F0A95DA19300975F
:100DA00079F7B111B1931192CB010C94D706DC0104
:100DB000FC01672F71917723E1F7329704C07C9192
:100DC0006D9370836291AE17BF07C8F30895F894CE
:020DD000FFCF53
:100DD200014D415354455220535049002020554162
:100DE20052542020202020535049202000535049A3
:100DF20020320053504920310054656D703A200072
:00000001FF
