:100000000C943E000C94EA030C9413040C943C04EE
:100010000C945B000C945B000C9415060C943E064B
:100020000C9467060C9490060C94C3050C94EC0594
:100030000C949A050C94D8060C9401070C942A078A
:100040000C94C1030C945B000C945B000C945B005B
:100050000C945B000501EC006901CC015001CC015E
:10006000CC01CC01CC01CC01CC01CC01D3009B0153
:10007000BA001E01CC018201B401370111241FBE58
:10008000CFE5D8E0DEBFCDBF10E0A0E6B0E0E2E80B
:10009000FFE002C005900D92AA3AB107D9F720E01F
:1000A000AAEAB0E001C01D92AA3CB207E1F70E94A3
:1000B000EC010C94BF070C94000081E08093AA002F
:1000C00008950E94B9060E94720260E080E00E94DA
:1000D0004A0380E690E00E9437030E94710587EA98
:1000E00091E60197F1F700C0000060E081E00E9416
:1000F0004A038BE690E00E94370360E082E00E94B2
:100100004A038CE790E00E94370340E060E082E021
:100110000E94650440E061E082E00E94650440E0E6
:1001200060E082E00E94EB0441E061E082E00E9436
:10013000EB040E948003089540E060E082E00E94AA
:10014000EB0441E061E082E00E94EB0408950E942C
:10015000D1068093AC00E091AC008E2F90E0FC01C2
:10016000E656F109E431F10508F016C1E65DFF4FEE
:100170000C9475070E949C008091AC000E9495052C
:100180008093AD0060E082E00E944A038DE890E039
:100190000E9437031092AA0087EA91E60197F1F7CF
:1001A00000C00000F9C00E949C008091AC000E9439
:1001B00095058093AD0060E082E00E944A0380E9EB
:1001C00090E00E9437031092AA0087EA91E6019717
:1001D000F1F700C00000E0C00E949C008091AC00DC
:1001E0000E9495058093AD0063E082E00E944A037F
:1001F0008DE890E00E9437031092AA0087EA91E60A
:100200000197F1F700C00000C7C00E949C008091D8
:10021000AC000E9495058093AD0063E082E00E94EF
:100220004A0380E990E00E9437031092AA0087EA0F
:1002300091E60197F1F700C00000AEC00E949C005B
:100240008091AC000E9495058093AD0060E082E053
:100250000E944A038DE890E00E9437031092AA00A2
:1002600087EA91E60197F1F700C0000095C00E946F
:100270009C008091AC000E9495058093AD0060E0E9
:1002800082E00E944A0380E990E00E9437031092C6
:10029000AA0087EA91E60197F1F700C000007CC050
:1002A0000E949C008091AC000E9495058093AD0057
:1002B00063E082E00E944A038DE890E00E943703E9
:1002C0001092AA0087EA91E60197F1F700C00000BA
:1002D00063C00E949C008091AC000E9495058093B1
:1002E000AD0063E082E00E944A0380E990E00E9452
:1002F00037031092AA0087EA91E60197F1F700C050
:1003000000004AC00E949C008091AC000E949505AC
:100310008093AD006DE082E00E944A0383E990E0A3
:100320000E9437031092AA0087EA91E60197F1F73D
:1003300000C0000031C00E949C008091AC000E946F
:1003400095058093AD006DE082E00E944A0389E844
:1003500090E00E9437031092AA0087EA91E6019785
:10036000F1F700C0000018C00E949C008091AC0012
:100370000E9495058093AD006DE082E00E944A03E3
:1003800087E990E00E9437031092AA0087EA91E67D
:100390000197F1F700C000001092AD0060E083E02B
:1003A0000E944A038BE990E00E9437036DE083E0EE
:1003B0000E944A0380E00E94B3038093AB006091E7
:1003C000AB0070E080E090E00E94610308958DE54D
:1003D00090E00E94D30608950E9461000E94E70108
:1003E0000E94A700FDCFCF93C82F40E063E080E0DC
:1003F0000E94EB0489EF90E00197F1F700C0000044
:1004000041E062E080E00E94EB0489EF90E0019718
:10041000F1F700C00000C4FB442740F960E081E030
:100420000E94EB04C5FB442740F961E081E00E9493
:10043000EB04C6FB442740F962E081E00E94EB0434
:100440004C2F441F4427441F63E081E00E94EB04CB
:1004500089EF90E00197F1F700C0000040E062E012
:1004600080E00E94EB0489EF90E00197F1F700C073
:10047000000041E062E080E00E94EB0489EF90E040
:100480000197F1F700C000004C2F417060E081E05F
:100490000E94EB04C1FB442740F961E081E00E9427
:1004A000EB04C2FB442740F962E081E00E94EB04C8
:1004B000C3FB442740F963E081E00E94EB0489EF2D
:1004C00090E00197F1F700C0000040E062E080E0BA
:1004D0000E94EB0489EF90E00197F1F700C0000063
:1004E000CF91089541E063E080E00E94650441E01F
:1004F00062E080E00E94650487E893E10197F1F7EC
:1005000000C0000041E060E081E00E94650441E03D
:1005100061E081E00E94650441E062E081E00E94C8
:10052000650441E063E081E00E94650483E30E948A
:10053000F30182E30E94F30188E20E94F30183EF5A
:1005400091E00197F1F700C000008CE00E94F301F8
:1005500083EF91E00197F1F700C0000081E00E9475
:10056000F30183EF91E00197F1F700C000000895D7
:10057000CF93C82F41E063E080E00E94EB0489EF55
:1005800090E00197F1F700C0000041E062E080E0F8
:100590000E94EB0489EF90E00197F1F700C00000A2
:1005A000C4FB442740F960E081E00E94EB04C5FBF6
:1005B000442740F961E081E00E94EB04C6FB442738
:1005C00040F962E081E00E94EB044C2F441F442775
:1005D000441F63E081E00E94EB0489EF90E0019703
:1005E000F1F700C0000040E062E080E00E94EB0410
:1005F00089EF90E00197F1F700C0000041E062E070
:1006000080E00E94EB0489EF90E00197F1F700C0D1
:1006100000004C2F417060E081E00E94EB04C1FBC0
:10062000442740F961E081E00E94EB04C2FB4427CB
:1006300040F962E081E00E94EB04C3FB442740F9EB
:1006400063E081E00E94EB0489EF90E00197F1F70D
:1006500000C0000040E062E080E00E94EB0489EF0F
:1006600090E00197F1F700C00000CF9108950F933B
:100670001F93CF938C01C0E003C00E94B802CF5FEC
:10068000F801EC0FF11D80818111F7CFCF911F91FF
:100690000F910895813031F070F0823031F0833065
:1006A00039F00AC090E4960F07C090E1960F04C09D
:1006B00090E5960F01C0962F892F80680E94F30164
:1006C0000895CF93DF93CDB7DEB760970FB6F89458
:1006D000DEBF0FBECDBFDC01CB014AE0BE016F5FC4
:1006E0007F4F0E948A07CE0101960E9437036096D1
:1006F0000FB6F894DEBF0FBECDBFDF91CF91089546
:1007000087B18F73806487B987B18F7D87B986B1D0
:10071000806886B986B1876086B986B18F7D86B9D3
:1007200080B78F7180BF08958F7197B1907E892BAC
:1007300087B986B1806486B9349BFECF86B180616B
:1007400086B984B195B108950E9494039C01A8E8EC
:10075000B3E10E947B072FEF33E040E050E00E94BE
:100760005307C90108950E94A4039C01ADECBCECA1
:100770000E947B0796958795969587959695879580
:1007800008951F920F920FB60F9211242F933F934B
:100790004F935F936F937F938F939F93AF93BF9389
:1007A000EF93FF93E091B200F091B300309709F01E
:1007B0000995FF91EF91BF91AF919F918F917F919B
:1007C0006F915F914F913F912F910F900FBE0F90BE
:1007D0001F9018951F920F920FB60F9211242F930E
:1007E0003F934F935F936F937F938F939F93AF93B9
:1007F000BF93EF93FF93E091B600F091B70030976D
:1008000009F00995FF91EF91BF91AF919F918F9161
:100810007F916F915F914F913F912F910F900FBEFC
:100820000F901F9018951F920F920FB60F921124E0
:100830002F933F934F935F936F937F938F939F93E8
:10084000AF93BF93EF93FF93E091B800F091B9009D
:10085000309709F00995FF91EF91BF91AF919F916A
:100860008F917F916F915F914F913F912F910F9059
:100870000FBE0F901F9018951F920F920FB60F92F8
:1008800011242F933F934F935F936F937F938F9395
:100890009F93AF93BF93EF93FF93E091B400F091D8
:1008A000B500309709F00995FF91EF91BF91AF9195
:1008B0009F918F917F916F915F914F913F912F9178
:1008C0000F900FBE0F901F901895683008F07BC0F6
:1008D000843008F07AC0423008F079C0813011F1DC
:1008E00030F08230D1F1833009F452C072C041300F
:1008F00061F42AB381E090E002C0880F991F6A95E5
:10090000E2F7822B8ABB80E008952AB381E090E071
:1009100002C0880F991F6A95E2F7809582238ABBEF
:1009200080E00895413061F427B381E090E002C097
:10093000880F991F6A95E2F7822B87BB80E00895A4
:1009400027B381E090E002C0880F991F6A95E2F713
:100950008095822387BB80E00895413061F424B301
:1009600081E090E002C0880F991F6A95E2F7822B20
:1009700084BB80E0089524B381E090E002C0880F3A
:10098000991F6A95E2F78095822384BB80E00895E1
:10099000413061F421B381E090E002C0880F991FDB
:1009A0006A95E2F7822B81BB80E0089521B381E054
:1009B00090E002C0880F991F6A95E2F78095822324
:1009C00081BB80E0089581E0089582E0089583E08E
:1009D000089580E00895683008F07BC0843008F006
:1009E0007AC0423008F079C0813011F130F08230A5
:1009F000D1F1833009F452C072C0413061F42BB39D
:100A000081E090E002C0880F991F6A95E2F7822B7F
:100A10008BBB80E008952BB381E090E002C0880F8B
:100A2000991F6A95E2F7809582238BBB80E0089539
:100A3000413061F428B381E090E002C0880F991F33
:100A40006A95E2F7822B88BB80E0089528B381E0A5
:100A500090E002C0880F991F6A95E2F78095822383
:100A600088BB80E00895413061F425B381E090E0D7
:100A700002C0880F991F6A95E2F7822B85BB80E040
:100A8000089525B381E090E002C0880F991F6A9510
:100A9000E2F78095822385BB80E00895413061F4C0
:100AA00022B381E090E002C0880F991F6A95E2F7B7
:100AB000822B82BB80E0089522B381E090E002C0E7
:100AC000880F991F6A95E2F78095822382BB80E0A8
:100AD000089581E0089582E0089583E0089580E01C
:100AE000089541E064E081E00E94650441E065E032
:100AF00081E00E94650440E066E081E00E946504B8
:100B000041E067E081E00E9465048DB180618DB9AC
:100B10008DB181608DB98DB18D7F8DB98DB18064BE
:100B20008DB98DB180688DB908958FB9779BFECF4F
:100B30008FB108951F920F920FB60F9211242F9329
:100B40003F934F935F936F937F938F939F93AF9355
:100B5000BF93EF93FF93E091BA00F091BB00309701
:100B600009F00995FF91EF91BF91AF919F918F91FE
:100B70007F916F915F914F913F912F910F900FBE99
:100B80000F901F9018951F920F920FB60F9211247D
:100B90002F933F934F935F936F937F938F939F9385
:100BA000AF93BF93EF93FF93E091B000F091B1004A
:100BB000309709F00995FF91EF91BF91AF919F9107
:100BC0008F917F916F915F914F913F912F910F90F6
:100BD0000FBE0F901F9018951F920F920FB60F9295
:100BE00011242F933F934F935F936F937F938F9332
:100BF0009F93AF93BF93EF93FF93E091AE00F0917B
:100C0000AF00309709F00995FF91EF91BF91AF9137
:100C10009F918F917F916F915F914F913F912F9114
:100C20000F900FBE0F901F9018951F920F920FB646
:100C30000F9211242F933F934F935F936F937F9362
:100C40008F939F93AF93BF93EF93FF93E091C00077
:100C5000F091C100309709F00995FF91EF91BF9194
:100C6000AF919F918F917F916F915F914F913F9144
:100C70002F910F900FBE0F901F9018951F920F92FB
:100C80000FB60F9211242F933F934F935F936F935F
:100C90007F938F939F93AF93BF93EF93FF93E091D5
:100CA000C200F091C300309709F00995FF91EF91D0
:100CB000BF91AF919F918F917F916F915F914F9174
:100CC0003F912F910F900FBE0F901F9018951F927C
:100CD0000F920FB60F9211242F933F934F935F9370
:100CE0006F937F938F939F93AF93BF93EF93FF93F4
:100CF000E091BC00F091BD00309709F00995FF919B
:100D0000EF91BF91AF919F918F917F916F915F9183
:100D10004F913F912F910F900FBE0F901F901895FC
:100D20001F920F920FB60F9211242F933F934F9360
:100D30005F936F937F938F939F93AF93BF93EF9343
:100D4000FF93E091BE00F091BF00309709F0099544
:100D5000FF91EF91BF91AF919F918F917F916F9193
:100D60005F914F913F912F910F900FBE0F901F9069
:100D700018958AB18B7F8AB98AB188608AB98AB19D
:100D800080618AB986E880BD83E389B910BC8AB1E5
:100D900080688AB98AB180648AB98AB180628AB966
:100DA00008958CB108959093C5008093C400089570
:100DB0001F920F920FB60F9211242F933F934F93D0
:100DC0005F936F937F938F939F93AF93BF93EF93B3
:100DD000FF93E091C400F091C500309709F00995A8
:100DE000FF91EF91BF91AF919F918F917F916F9103
:100DF0005F914F913F912F910F900FBE0F901F90D9
:100E000018951F920F920FB60F9211242F933F93B4
:100E10004F935F936F937F938F939F93AF93BF9302
:100E2000EF93FF93E091C800F091C900309709F06B
:100E30000995FF91EF91BF91AF919F918F917F9114
:100E40006F915F914F913F912F910F900FBE0F9037
:100E50001F9018951F920F920FB60F9211242F9387
:100E60003F934F935F936F937F938F939F93AF9332
:100E7000BF93EF93FF93E091C600F091C7003097C6
:100E800009F00995FF91EF91BF91AF919F918F91DB
:100E90007F916F915F914F913F912F910F900FBE76
:100EA0000F901F901895A1E21A2EAA1BBB1BFD01E3
:100EB0000DC0AA1FBB1FEE1FFF1FA217B307E40739
:100EC000F50720F0A21BB30BE40BF50B661F771F91
:100ED000881F991F1A9469F7609570958095909571
:100EE0009B01AC01BD01CF010895EE0FFF1F0590DE
:100EF000F491E02D0994A29FB001B39FC001A39F7C
:100F0000700D811D1124911DB29F700D811D112442
:100F1000911D0895BB274A3031F4992322F4BDE294
:100F2000909581959F4F0C949607BB27FB01552701
:100F3000AA27880F991FAA1FA41710F0A41B839536
:100F40005051B9F7A05DAA3308F0A95DA1930097AD
:100F500079F7B111B1931192CB010C94AF07DC0179
:100F6000FC01672F71917723E1F7329704C07C91E0
:100F70006D9370836291AE17BF07C8F30895F8941C
:020F8000FFCFA1
:100F82004D41535445522053504900465220464C3D
:100F920020524C20525220204341520044432044CC
:100FA20043204443204443202050524B00444F00EE
:100FB200444300465744005245560054656D7065DF
:0A0FC2007261747572653A20000038
:00000001FF
