S018000041544D454C5F50524F4A4D41535445522E7372656333
S11300000C942A000C941F030C9448030C94710361
S11300100C9447000C9447000C9454050C947D05F3
S11300200C94A6050C94CF050C9402050C942B0596
S11300300C94D9040C940F060C9438060C946106A5
S11300400C94F6020C9447000C9447000C9447005F
S11300500C94470011241FBECFE5D8E0DEBFCDBF0E
S113006010E0A0E6B0E0E4EEFDE002C005900D92E1
S1130070A039B107D9F720E0A0E9B0E001C01D9292
S1130080A03BB207E1F70E9421010C94F0060C9406
S113009000000E949A030E94F8050E94A70160E0F4
S11300A080E00E947F0280E690E00E946C020E9441
S11300B0AA0487EA91E60197F1F700C0000060E026
S11300C081E00E947F028BE690E00E946C0240E097
S11300D060E082E00E949E0340E061E082E00E94D2
S11300E09E0340E060E082E00E94240441E061E07D
S11300F082E00E9424040E94B502089540E060E07A
S113010082E00E94240441E061E082E00E94240431
S1130110089540E061E082E00E94240441E060E050
S113012082E00E942404089580919000813009F0B7
S11301306FC00E940D0680939200809192008737D1
S113014081F080919200833761F08091920088372A
S113015041F080919200873621F08091920086369A
S113016039F50E948900809192000E94D104809305
S1130170930064E082E00E947F02809192000E94DA
S1130180ED016CE082E00E947F02809193000E9466
S1130190ED0160E083E00E947F028CE790E00E9422
S11301A06C0287EA91E60197F1F700C000002EC0C7
S11301B080919200843721F080919200823731F54A
S11301C00E947E00809192000E94D104809393004B
S11301D064E082E00E947F02809192000E94ED011F
S11301E06CE082E00E947F02809193000E94ED0106
S11301F060E083E00E947F0282E890E00E946C024B
S113020087EA91E60197F1F700C00000109293008D
S113021060E083E00E947F0288E890E00E946C0224
S113022066E083E00E947F0280E00E94E8028093FF
S11302309100682F70E080E090E00E94960208959B
S113024008950E9449000E9420010E949400FBCF5F
S1130250CF93C82F40E063E080E00E94240489EF3C
S113026090E00197F1F700C0000041E062E080E017
S11302700E94240489EF90E00197F1F700C0000088
S1130280C4FB442740F960E081E00E942404C5FBDC
S1130290442740F961E081E00E942404C6FB44271E
S11302A040F962E081E00E9424044C2F441F44275B
S11302B0441F63E081E00E94240489EF90E00197E9
S11302C0F1F700C0000040E062E080E00E942404F6
S11302D089EF90E00197F1F700C0000041E062E08F
S11302E080E00E94240489EF90E00197F1F700C0B8
S11302F000004C2F417060E081E00E942404C1FBA7
S1130300442740F961E081E00E942404C2FB4427B1
S113031040F962E081E00E942404C3FB442740F9D1
S113032063E081E00E94240489EF90E00197F1F7F3
S113033000C0000040E062E080E00E94240489EFF5
S113034090E00197F1F700C00000CF91089541E0DB
S113035063E080E00E949E0341E062E080E00E944E
S11303609E0387E893E10197F1F700C0000041E0A4
S113037060E081E00E949E0341E061E081E00E9430
S11303809E0341E062E081E00E949E0341E063E05D
S113039081E00E949E0383E30E94280182E30E947D
S11303A0280188E20E94280183EF91E00197F1F788
S11303B000C000008CE00E94280183EF91E00197C7
S11303C0F1F700C0000081E00E94280183EF91E072
S11303D00197F1F700C000000895CF93C82F41E0C2
S11303E063E080E00E94240489EF90E00197F1F734
S11303F000C0000041E062E080E00E94240489EF34
S113040090E00197F1F700C00000C4FB442740F9D5
S113041060E081E00E942404C5FB442740F961E0C8
S113042081E00E942404C6FB442740F962E081E095
S11304300E9424044C2F441F4427441F63E081E09E
S11304400E94240489EF90E00197F1F700C00000B6
S113045040E062E080E00E94240489EF90E001978C
S1130460F1F700C0000041E062E080E00E94240453
S113047089EF90E00197F1F700C000004C2F417024
S113048060E081E00E942404C1FB442740F961E05C
S113049081E00E942404C2FB442740F962E081E029
S11304A00E942404C3FB442740F963E081E00E94D6
S11304B0240489EF90E00197F1F700C0000040E0C8
S11304C062E080E00E94240489EF90E00197F1F754
S11304D000C00000CF9108950F931F93CF938C0118
S11304E0C0E003C00E94ED01CF5FF801EC0FF11DE5
S11304F080818111F7CFCF911F910F9108958130A1
S113050031F070F0823031F0833039F00AC090E479
S1130510960F07C090E1960F04C090E5960F01C0B6
S1130520962F892F80680E9428010895CF93DF9326
S1130530CDB7DEB760970FB6F894DEBF0FBECDBF60
S1130540DC01CB014AE0BE016F5F7F4F0E94BB0616
S1130550CE0101960E946C0260960FB6F894DEBF3D
S11305600FBECDBFDF91CF91089587B18F738064A3
S113057087B987B18F7D87B986B1806886B986B11E
S1130580876086B986B18F7D86B980B78F7180BF49
S113059008958F7197B1907E892B87B986B1806455
S11305A086B9349BFECF86B1806186B984B195B19A
S11305B008950E94C9029C01A8E8B3E10E94AC0618
S11305C02FEF33E040E050E00E948A06C90108950D
S11305D00E94D9029C01ADECBCEC0E94AC0696953D
S11305E08795969587959695879508951F920F926E
S11305F00FB60F9211242F933F934F935F936F93F2
S11306007F938F939F93AF93BF93EF93FF93E09167
S11306109400F0919500309709F00995FF91EF91BE
S1130620BF91AF919F918F917F916F915F914F9106
S11306303F912F910F900FBE0F901F9018951F920E
S11306400F920FB60F9211242F933F934F935F9302
S11306506F937F938F939F93AF93BF93EF93FF9386
S1130660E0919800F0919900309709F00995FF9175
S1130670EF91BF91AF919F918F917F916F915F9116
S11306804F913F912F910F900FBE0F901F9018958F
S11306901F920F920FB60F9211242F933F934F93F3
S11306A05F936F937F938F939F93AF93BF93EF93D6
S11306B0FF93E0919A00F0919B00309709F009951F
S11306C0FF91EF91BF91AF919F918F917F916F9126
S11306D05F914F913F912F910F900FBE0F901F90FC
S11306E018951F920F920FB60F9211242F933F93D8
S11306F04F935F936F937F938F939F93AF93BF9326
S1130700EF93FF93E0919600F0919700309709F0F2
S11307100995FF91EF91BF91AF919F918F917F9137
S11307206F915F914F913F912F910F900FBE0F905A
S11307301F9018958FB780688FBF0895683008F0B0
S11307407BC0843008F07AC0423008F079C0813030
S113075011F130F08230D1F1833009F452C072C00B
S1130760413061F42AB381E090E002C0880F991F00
S11307706A95E2F7822B8ABB80E008952AB381E070
S113078090E002C0880F991F6A95E2F78095822352
S11307908ABB80E00895413061F427B381E090E0A2
S11307A002C0880F991F6A95E2F7822B87BB80E00D
S11307B0089527B381E090E002C0880F991F6A95DD
S11307C0E2F78095822387BB80E00895413061F48D
S11307D024B381E090E002C0880F991F6A95E2F784
S11307E0822B84BB80E0089524B381E090E002C0B2
S11307F0880F991F6A95E2F78095822384BB80E075
S11308000895413061F421B381E090E002C0880F83
S1130810991F6A95E2F7822B81BB80E0089521B38A
S113082081E090E002C0880F991F6A95E2F78095F5
S1130830822381BB80E0089581E0089582E00895D9
S113084083E0089580E00895683008F07BC0843028
S113085008F07AC0423008F079C0813011F130F0EC
S11308608230D1F1833009F452C072C0413061F456
S11308702BB381E090E002C0880F991F6A95E2F7DC
S1130880822B8BBB80E008952BB381E090E002C003
S1130890880F991F6A95E2F7809582238BBB80E0CD
S11308A00895413061F428B381E090E002C0880FDC
S11308B0991F6A95E2F7822B88BB80E0089528B3DC
S11308C081E090E002C0880F991F6A95E2F7809555
S11308D0822388BB80E00895413061F425B381E030
S11308E090E002C0880F991F6A95E2F7822B85BBBE
S11308F080E0089525B381E090E002C0880F991F3D
S11309006A95E2F78095822385BB80E008954130A3
S113091061F422B381E090E002C0880F991F6A95C8
S1130920E2F7822B82BB80E0089522B381E090E05D
S113093002C0880F991F6A95E2F78095822382BBD3
S113094080E0089581E0089582E0089583E00895A9
S113095080E0089541E064E081E00E949E0341E06C
S113096065E081E00E949E0340E066E081E00E9431
S11309709E0341E067E081E00E949E038DB18064A4
S11309808DB98DB180618DB98DB18C7F8DB98DB1EB
S11309908F7D8DB98EB18E7F8EB98DB180688DB902
S11309A008958FB9779BFECF8EB180688EB98FB1D1
S11309B008951F920F920FB60F9211242F933F9315
S11309C04F935F936F937F938F939F93AF93BF9353
S11309D0EF93FF93E0919C00F0919D00309709F014
S11309E00995FF91EF91BF91AF919F918F917F9165
S11309F06F915F914F913F912F910F900FBE0F9088
S1130A001F9018951F920F920FB60F9211242F93D7
S1130A103F934F935F936F937F938F939F93AF9382
S1130A20BF93EF93FF93E0919E00F0919F00309766
S1130A3009F00995FF91EF91BF91AF919F918F912B
S1130A407F916F915F914F913F912F910F900FBEC6
S1130A500F901F9018951F920F920FB60F921124AA
S1130A602F933F934F935F936F937F938F939F93B2
S1130A70AF93BF93EF93FF93E091A000F091A10097
S1130A80309709F00995FF91EF91BF91AF919F9134
S1130A908F917F916F915F914F913F912F910F9023
S1130AA00FBE0F901F9018951F920F920FB60F92C2
S1130AB011242F933F934F935F936F937F938F935F
S1130AC09F93AF93BF93EF93FF93E091A600F091B0
S1130AD0A700309709F00995FF91EF91BF91AF916D
S1130AE09F918F917F916F915F914F913F912F9142
S1130AF00F900FBE0F901F9018951F920F920FB674
S1130B000F9211242F933F934F935F936F937F938F
S1130B108F939F93AF93BF93EF93FF93E091A800BC
S1130B20F091A900309709F00995FF91EF91BF91D9
S1130B30AF919F918F917F916F915F914F913F9171
S1130B402F910F900FBE0F901F9018951F920F9228
S1130B500FB60F9211242F933F934F935F936F938C
S1130B607F938F939F93AF93BF93EF93FF93E09102
S1130B70A200F091A300309709F00995FF91EF913D
S1130B80BF91AF919F918F917F916F915F914F91A1
S1130B903F912F910F900FBE0F901F9018951F92A9
S1130BA00F920FB60F9211242F933F934F935F939D
S1130BB06F937F938F939F93AF93BF93EF93FF9321
S1130BC0E091A400F091A500309709F00995FF91F8
S1130BD0EF91BF91AF919F918F917F916F915F91B1
S1130BE04F913F912F910F900FBE0F901F9018952A
S1130BF08AB188608AB98AB180618AB986E880BD81
S1130C0083E389B910BC8AB180688AB98AB18064E7
S1130C108AB98AB180628AB908958CB108951F9205
S1130C200F920FB60F9211242F933F934F935F931C
S1130C306F937F938F939F93AF93BF93EF93FF93A0
S1130C40E091AA00F091AB00309709F00995FF916B
S1130C50EF91BF91AF919F918F917F916F915F9130
S1130C604F913F912F910F900FBE0F901F901895A9
S1130C701F920F920FB60F9211242F933F934F930D
S1130C805F936F937F938F939F93AF93BF93EF93F0
S1130C90FF93E091AE00F091AF00309709F0099511
S1130CA0FF91EF91BF91AF919F918F917F916F9140
S1130CB05F914F913F912F910F900FBE0F901F9016
S1130CC018951F920F920FB60F9211242F933F93F2
S1130CD04F935F936F937F938F939F93AF93BF9340
S1130CE0EF93FF93E091AC00F091AD00309709F0E1
S1130CF00995FF91EF91BF91AF919F918F917F9152
S1130D006F915F914F913F912F910F900FBE0F9074
S1130D101F901895A1E21A2EAA1BBB1BFD010DC042
S1130D20AA1FBB1FEE1FFF1FA217B307E407F50797
S1130D3020F0A21BB30BE40BF50B661F771F881F73
S1130D40991F1A9469F760957095809590959B0109
S1130D50AC01BD01CF010895A29FB001B39FC001B2
S1130D60A39F700D811D1124911DB29F700D811DD3
S1130D701124911D0895BB274A3031F4992322F49C
S1130D80BDE2909581959F4F0C94C706BB27FB014C
S1130D905527AA27880F991FAA1FA41710F0A41B70
S1130DA083955051B9F7A05DAA3308F0A95DA193CA
S1130DB0009779F7B111B1931192CB010C94E0062D
S1130DC0DC01FC01672F71917723E1F7329704C0AE
S1130DD07C916D9370836291AE17BF07C8F3089539
S1070DE0F894FFCFB1
S1130DE44D415354455220535049002020554152FB
S1130DF454202020202053504920200053504920BF
S1130E04320053504920310054656D703A2000007B
S9030000FC
