:100000000C942A000C943D0B0C94700B0C94A30BD5
:100010000C9447000C9447000C9447000C94470044
:100020000C9447000C9447000C9447000C94470034
:100030000C9447000C9447000C9447000C94470024
:100040000C9447000C9447000C9447000C94470014
:100050000C94470011241FBECFE5D8E0DEBFCDBF12
:1000600010E0A0E6B0E0ECECF9E302C005900D92E0
:10007000A43AB107D9F710E0A4EAB0E001C01D929C
:10008000AA3AB107E1F70E945F1C0C94E41C0C949F
:100090000000EF92FF920F931F937B018C0120E0F1
:1000A00030E040E05FE40E94490388238CF0C801FF
:1000B000B70120E030E040E05FE40E94C1010E940F
:1000C000A9039B01AC01205030404040504806C07D
:1000D000C801B7010E94A9039B01AC01B901CA0183
:1000E0001F910F91FF90EF900895A0E0B0E0EBE733
:1000F000F0E00C94681CDC012B01FA019C91923019
:1001000008F439C1EB018881823008F433C194309E
:1001100069F4843009F02FC111969C91119789815F
:10012000981709F428C1ACE7B0E025C1843009F480
:1001300021C18230A9F4923009F01DC19A01AD01AC
:1001400088E0EA010990AE01E90109929E0181501F
:10015000C1F7E201898111969C918923818308C1AD
:10016000923009F407C112962D903C901397EB0141
:100170008A819B811496AD90BD90CD90DC901797AD
:10018000EC80FD800E811F819101281B390BB90184
:1001900037FF04C066277727621B730B6032710537
:1001A0000CF061C0121613066CF537014801062EDB
:1001B00004C096948794779467940A94D2F721E0C8
:1001C00030E040E050E004C0220F331F441F551FB1
:1001D0006A95D2F721503040404050402E213F21B7
:1001E00040235123211531054105510521F021E01E
:1001F00030E040E050E079018A01E628F72808293C
:1002000019293CC0232BD1F1260E371E350146019A
:10021000062E04C096948794779467940A94D2F734
:1002200021E030E040E050E004C0220F331F441FC3
:10023000551F6A95D2F721503040404050402A2146
:100240003B214C215D21211531054105510521F04E
:1002500021E030E040E050E059016A01A628B728CB
:10026000C828D9280BC0821593052CF01C01AA249C
:10027000BB24650103C0EE24FF24870111969C91E5
:10028000D20111968C91981709F445C0992339F041
:10029000A80197012A193B094C095D0906C0A6016E
:1002A00095012E193F09400B510B57FD08C01182D3
:1002B0003382228224833583468357831DC081E0A5
:1002C00081833382228288279927DC01821B930B4A
:1002D000A40BB50B84839583A683B7830DC0220F2F
:1002E000331F441F551F24833583468357838281E0
:1002F000938101979383828324813581468157813D
:10030000DA01C9010197A109B1098F5F9F4FAF4F72
:10031000BF4328F30BC0918333822282EA0CFB1C7B
:100320000C1D1D1DE482F5820683178383E0808304
:10033000248135814681578157FF1AC0C901AA27F8
:1003400097FDA095BA2F81709070A070B0705695EF
:10035000479537952795822B932BA42BB52B848318
:100360009583A683B7838281938101969383828349
:10037000DF0101C0D201CD01CDB7DEB7E2E10C94BF
:10038000841CA0E2B0E0E7ECF1E00C94741C6983FB
:100390007A838B839C832D833E834F835887E9E048
:1003A000EE2EF12CEC0EFD1ECE010196B7010E943F
:1003B000D2048E010F5E1F4FCE010596B8010E9438
:1003C000D2048A8991E089278A8BC701B801AE01DE
:1003D000475E5F4F0E9475000E94FD03A096E6E015
:1003E0000C94901CA0E2B0E0E8EFF1E00C94741CD7
:1003F00069837A838B839C832D833E834F835887C5
:10040000F9E0EF2EF12CEC0EFD1ECE010196B701A6
:100410000E94D2048E010F5E1F4FCE010596B801D7
:100420000E94D204C701B801AE01475E5F4F0E942F
:1004300075000E94FD03A096E6E00C94901CA0E2DB
:10044000B0E0E5E2F2E00C94681C69837A838B8368
:100450009C832D833E834F835887CE010196BE0136
:10046000675F7F4F0E94D204CE010596BE016F5E8A
:100470007F4F0E94D2049985923088F0898982301A
:10048000C8F0943019F4823051F404C0843029F457
:10049000923081F48CE790E0C6C0923049F420E0BD
:1004A0009A858A89981321E02A87CE010996BBC0D4
:1004B000823049F420E09A858A89981321E02A8BBA
:1004C000CE014196B0C02D843E844F8458886D88FB
:1004D0007E888F88988CEE24FF248701AA24BB2471
:1004E000650140E050E060E070E0E0E0F0E0C10174
:1004F00081709070892BE9F0E60CF71C081D191D1E
:100500009A01AB012A0D3B1D4C1D5D1D80E090E062
:10051000A0E0B0E0E614F7040805190520F481E036
:1005200090E0A0E0B0E0BA01A901480F591F6A1F8E
:100530007B1FAA0CBB1CCC1CDD1C97FE08C081E0F5
:1005400090E0A0E0B0E0A82AB92ACA2ADB2A3196B6
:10055000E032F10549F0660C771C881C991C569412
:10056000479437942794C3CFFA85EA892B893C892D
:100570008B859C85280F391F2E5F3F4F17C0CA01FE
:1005800081709070892B61F016950795F794E79428
:1005900080E090E0A0E0B0E8E82AF92A0A2B1B2BC3
:1005A00076956795579547952F5F3F4F77FDE7CF36
:1005B0000CC0440F551F661F771F17FD4160EE0CDE
:1005C000FF1C001F111F21503040403090E05907A0
:1005D00090E0690790E4790760F32B8F3C8FDB0193
:1005E000CA018F779070A070B07080349105A1051A
:1005F000B10561F447FD0AC0E114F10401051105DC
:1006000029F0405C5F4F6F4F7F4F40781A8EFE1786
:1006100011F081E08A8F4D8F5E8F6F8F78A383E01A
:10062000898FCE0149960E94FD03A096E2E10C94C9
:10063000841CA8E1B0E0EFE1F3E00C94741C698342
:100640007A838B839C832D833E834F83588789E0F5
:10065000E82EF12CEC0EFD1ECE010196B7010E9492
:10066000D2048E010F5E1F4FCE010596B8010E9485
:10067000D2048985823040F08989823028F0C70110
:10068000B8010E944A0501C08FEF6896E6E00C941D
:10069000901CA8E1B0E0EFE4F3E00C94741C6983D3
:1006A0007A838B839C832D833E834F83588789E095
:1006B000E82EF12CEC0EFD1ECE010196B7010E9432
:1006C000D2048E010F5E1F4FCE010596B8010E9425
:1006D000D2048985823040F08989823028F0C701B0
:1006E000B8010E944A0501C08FEF6896E6E00C94BD
:1006F000901CA8E1B0E0EFE7F3E00C94741C698370
:100700007A838B839C832D833E834F83588789E034
:10071000E82EF12CEC0EFD1ECE010196B7010E94D1
:10072000D2048E010F5E1F4FCE010596B8010E94C4
:10073000D2048985823040F08989823028F0C7014F
:10074000B8010E944A0501C081E06896E6E00C9479
:10075000901CACE0B0E0EFEAF3E00C94781C698305
:100760007A838B839C83CE010196BE016B5F7F4FA2
:100770000E94D2048D81823061F1823050F1843048
:1007800021F48E81882351F12EC02F81388537FDC9
:1007900020C06E812F3131051CF06623F9F023C093
:1007A0008EE190E0821B930B29853A854B855C8511
:1007B00004C056954795379527958A95D2F76623B5
:1007C000B1F050954095309521953F4F4F4F5F4F79
:1007D0000EC020E030E040E050E009C02FEF3FEFD6
:1007E0004FEF5FE704C020E030E040E050E8B9019F
:1007F000CA012C96E2E00C94941CDF92EF92FF92D7
:100800000F931F93FC01E480F58006811781D1804E
:100810008081823048F480E090E0A0E1B0E0E82AF6
:10082000F92A0A2B1B2BA5C0843009F49FC0823003
:1008300021F4EE24FF24870105C0E114F104010531
:10084000110519F4E0E0F0E096C0628173819FEF3A
:10085000623879070CF05BC022E83FEF261B370BAC
:100860002A3131052CF020E030E040E050E02AC091
:10087000B801A701022E04C0769567955795479554
:100880000A94D2F781E090E0A0E0B0E004C0880FC5
:10089000991FAA1FBB1F2A95D2F70197A109B10979
:1008A0008E219F21A023B1230097A105B10521F03E
:1008B00081E090E0A0E0B0E09A01AB01282B392B59
:1008C0004A2B5B2BDA01C9018F779070A070B07052
:1008D00080349105A105B10539F427FF09C0205CDA
:1008E0003F4F4F4F5F4F04C0215C3F4F4F4F5F4F13
:1008F000E0E0F0E02030A0E03A07A0E04A07A0E402
:100900005A0710F0E1E0F0E079018A0127C0603871
:10091000710564F5FB01E158FF4FD801C7018F77DE
:100920009070A070B07080349105A105B10539F4C4
:10093000E7FE0DC080E490E0A0E0B0E004C08FE3EB
:1009400090E0A0E0B0E0E80EF91E0A1F1B1F17FFA1
:1009500005C016950795F794E794319687E01695AC
:100960000795F794E7948A95D1F705C0EE24FF2404
:100970008701EFEFF0E06E2F679566276795902F60
:100980009F77D794DD24D7948E2F8695492F462BB9
:10099000582F5D29B701CA011F910F91FF90EF9069
:1009A000DF900895FC01DB01408151812281622F9B
:1009B0006F7770E0221F2227221F9381892F880FD3
:1009C000822B282F30E0991F9927991F11969C930D
:1009D000119721153105A9F54115510561057105DD
:1009E00011F482E037C082E89FEF13969C938E93B8
:1009F00012979A01AB0167E0220F331F441F551F66
:100A00006A95D1F783E08C930DC0220F331F441FEA
:100A1000551F12968D919C911397019713969C9355
:100A20008E931297203080E0380780E0480780E4FA
:100A3000580758F314962D933D934D935C93179755
:100A400008952F3F310579F4411551056105710570
:100A500019F484E08C93089564FF03C081E08C93C3
:100A600012C01C9210C02F57304013963C932E9307
:100A7000129783E08C9387E0440F551F661F771F02
:100A80008A95D1F7706414964D935D936D937C9322
:100A9000179708951F93DC01FB019C91923008F495
:100AA00047C08081823008F443C0943051F41196DD
:100AB0001C91843099F58181682F70E0611B710968
:100AC0003FC0843021F0923031F48230B9F181811D
:100AD000882389F12DC011961C9111978230F1F075
:100AE00081811817D9F412962D913C911397828128
:100AF00093818217930794F028173907BCF0149656
:100B00008D919D910D90BC91A02D248135814681C0
:100B10005781281739074A075B0718F4112341F05A
:100B20000AC082179307A407B50740F4112319F0F0
:100B300061E070E005C06FEF7FEF02C060E070E041
:100B4000CB011F910895DF93CF9300D000D000D048
:100B5000CDB7DEB78A836B834C8319828B81883053
:100B600018F081E08983E1C08A81843018F082E046
:100B70008983DBC08C81882331F08C81813019F02E
:100B800083E08983D2C08A81282F30E03E832D8381
:100B90008D819E818130910509F443C02D813E8174
:100BA000223031052CF48D819E81009771F0BCC0FC
:100BB0002D813E812230310509F45FC08D819E81F7
:100BC0008330910509F485C0AFC08C818130A1F4D8
:100BD000AAE3B0E0EAE3F0E08081482F8B81282F80
:100BE00030E081E090E0022E02C0880F991F0A9445
:100BF000E2F7842B8C9398C0AAE3B0E0EAE3F0E03C
:100C00008081482F8B81282F30E081E090E0022EF8
:100C100002C0880F991F0A94E2F7809584238C9371
:100C200083C08C818130A1F4A7E3B0E0E7E3F0E07A
:100C30008081482F8B81282F30E081E090E0022EC8
:100C400002C0880F991F0A94E2F7842B8C936CC022
:100C5000A7E3B0E0E7E3F0E08081482F8B81282F05
:100C600030E081E090E0022E02C0880F991F0A94C4
:100C7000E2F7809584238C9357C08C818130A1F456
:100C8000A4E3B0E0E4E3F0E08081482F8B81282FDB
:100C900030E081E090E0022E02C0880F991F0A9494
:100CA000E2F7842B8C9340C0A4E3B0E0E4E3F0E0EF
:100CB0008081482F8B81282F30E081E090E0022E48
:100CC00002C0880F991F0A94E2F7809584238C93C1
:100CD0002BC08C818130A1F4A1E3B0E0E1E3F0E02E
:100CE0008081482F8B81282F30E081E090E0022E18
:100CF00002C0880F991F0A94E2F7842B8C9314C0CA
:100D0000A1E3B0E0E1E3F0E08081482F8B81282F60
:100D100030E081E090E0022E02C0880F991F0A9413
:100D2000E2F7809584238C931982898126960FB6E9
:100D3000F894DEBF0FBECDBFCF91DF910895DF9352
:100D4000CF9300D000D000D0CDB7DEB78A836B83BD
:100D50004C8319828B81883018F081E08983E1C04F
:100D60008A81843018F082E08983DBC08C818130F5
:100D700031F08C81882319F083E08983D2C08A8185
:100D8000282F30E03E832D838D819E818130910517
:100D900009F443C02D813E81223031052CF48D8130
:100DA0009E81009771F0BCC02D813E8122303105BB
:100DB00009F45FC08D819E818330910509F485C05F
:100DC000AFC08C818130A1F4ABE3B0E0EBE3F0E0A5
:100DD0008081482F8B81282F30E081E090E0022E27
:100DE00002C0880F991F0A94E2F7842B8C9398C055
:100DF000ABE3B0E0EBE3F0E08081482F8B81282F5C
:100E000030E081E090E0022E02C0880F991F0A9422
:100E1000E2F7809584238C9383C08C818130A1F488
:100E2000A8E3B0E0E8E3F0E08081482F8B81282F31
:100E300030E081E090E0022E02C0880F991F0A94F2
:100E4000E2F7842B8C936CC0A8E3B0E0E8E3F0E019
:100E50008081482F8B81282F30E081E090E0022EA6
:100E600002C0880F991F0A94E2F7809584238C931F
:100E700057C08C818130A1F4A5E3B0E0E5E3F0E058
:100E80008081482F8B81282F30E081E090E0022E76
:100E900002C0880F991F0A94E2F7842B8C9340C0FC
:100EA000A5E3B0E0E5E3F0E08081482F8B81282FB7
:100EB00030E081E090E0022E02C0880F991F0A9472
:100EC000E2F7809584238C932BC08C818130A1F430
:100ED000A2E3B0E0E2E3F0E08081482F8B81282F8D
:100EE00030E081E090E0022E02C0880F991F0A9442
:100EF000E2F7842B8C9314C0A2E3B0E0E2E3F0E0CD
:100F00008081482F8B81282F30E081E090E0022EF5
:100F100002C0880F991F0A94E2F7809584238C936E
:100F20001982898126960FB6F894DEBF0FBECDBF19
:100F3000CF91DF910895DF93CF9300D000D000D000
:100F4000CDB7DEB78B836C831A8219828C8188308F
:100F500018F081E08A8387C08B81843018F082E0AA
:100F60008A8381C08B81282F30E03E832D834D8181
:100F70005E814130510579F18D819E8182309105EC
:100F800034F42D813E812115310569F06BC04D810E
:100F90005E8142305105B9F18D819E81833091058A
:100FA00009F449C05FC0E9E3F0E08081282F30E018
:100FB0008C81882F90E0A90102C0559547958A95AC
:100FC000E2F7CA0181709070882319F081E089836B
:100FD00049C0198247C0E6E3F0E08081282F30E065
:100FE0008C81882F90E0A90102C0559547958A957C
:100FF000E2F7CA0181709070882319F081E089833B
:1010000031C019822FC0E3E3F0E08081282F30E067
:101010008C81882F90E0A90102C0559547958A954B
:10102000E2F7CA0181709070882319F081E089830A
:1010300019C0198217C0E0E3F0E08081282F30E06A
:101040008C81882F90E0A90102C0559547958A951B
:10105000E2F7CA0181709070882319F081E08983DA
:1010600001C019821A82898126960FB6F894DEBFD4
:101070000FBECDBFCF91DF910895DF93CF9300D006
:1010800000D00F92CDB7DEB78A836B8319828B8134
:10109000883018F081E0898375C08A81843018F027
:1010A00082E089836FC08A81282F30E03D832C83C2
:1010B0008C819D818130910549F12C813D812230C7
:1010C00031052CF48C819D81009761F05AC02C81F0
:1010D0003D812230310571F18C819D8183309105F4
:1010E000E9F14FC0ABE3B0E0EBE3F0E08081482FE3
:1010F0008B81282F30E081E090E0022E02C0880F23
:10110000991F0A94E2F784278C933BC0A8E3B0E0D0
:10111000E8E3F0E08081482F8B81282F30E081E0E8
:1011200090E0022E02C0880F991F0A94E2F78427EC
:101130008C9327C0A5E3B0E0E5E3F0E08081482F81
:101140008B81282F30E081E090E0022E02C0880FD2
:10115000991F0A94E2F784278C9313C0A2E3B0E0AE
:10116000E2E3F0E08081482F8B81282F30E081E09E
:1011700090E0022E02C0880F991F0A94E2F784279C
:101180008C93198289810F900F900F900F900F9080
:10119000CF91DF910895DF93CF9300D000D00F92CD
:1011A000CDB7DEB78A836B8319828A81843018F0C9
:1011B00082E089833CC08B81882331F08B818F3F13
:1011C00019F083E0898333C08A81282F30E03D8382
:1011D0002C838C819D8181309105D1F02C813D81C2
:1011E000223031052CF48C819D81009761F01EC066
:1011F0002C813D812230310581F08C819D818330AD
:10120000910581F013C0EAE3F0E08B8180830EC08A
:10121000E7E3F0E08B81808309C0E4E3F0E08B81B9
:10122000808304C0E1E3F0E08B81808319828981AF
:101230000F900F900F900F900F90CF91DF91089526
:10124000DF93CF9300D000D00F92CDB7DEB78A8363
:101250006B8319828A81843018F082E0898333C0DD
:101260008A81282F30E03D832C838C819D818130C1
:101270009105D1F02C813D81223031052CF48C81F7
:101280009D81009761F01EC02C813D812230310587
:1012900081F08C819D818330910581F013C0EBE357
:1012A000F0E08B8180830EC0E8E3F0E08B818083E7
:1012B00009C0E5E3F0E08B81808304C0E2E3F0E065
:1012C0008B818083198289810F900F900F900F90EE
:1012D0000F90CF91DF910895DF93CF9300D000D08E
:1012E0000F92CDB7DEB78B831A8219828B8184303F
:1012F00018F082E0898333C08B81282F30E03D8352
:101300002C838C819D8181309105D1F02C813D8190
:10131000223031052CF48C819D81009761F01EC034
:101320002C813D812230310581F08C819D8183307B
:10133000910581F013C0EBE3F0E080818A830EC059
:10134000E8E3F0E080818A8309C0E5E3F0E0808192
:101350008A8304C0E2E3F0E080818A8319828A8173
:101360000F900F900F900F900F90CF91DF910895F5
:10137000DF93CF93CDB7DEB7AFE5B0E0EFE5F0E0B8
:10138000808180688C93CF91DF910895DF93CF9314
:10139000CDB7DEB7AFE5B0E0EFE5F0E080818F7765
:1013A0008C93CF91DF910895DF93CF9300D000D03D
:1013B000CDB7DEB789836A838981282F30E03C83EB
:1013C0002B838B819C818230910509F455C02B8140
:1013D0003C812330310509F497C08B819C81813099
:1013E000910509F0A6C08A81882379F4A5E5B0E0CB
:1013F000E5E5F0E080818D7F8C93A5E5B0E0E5E543
:10140000F0E080818E7F8C9394C08A81813079F462
:10141000A5E5B0E0E5E5F0E080818D7F8C93A5E562
:10142000B0E0E5E5F0E0808181608C9382C08A8144
:10143000823079F4A5E5B0E0E5E5F0E080818260F6
:101440008C93A5E5B0E0E5E5F0E080818E7F8C939C
:1014500070C08A81833009F06CC0A5E5B0E0E5E595
:10146000F0E0808182608C93A5E5B0E0E5E5F0E0F6
:10147000808181608C935DC08A81882379F4A5E5A1
:10148000B0E0E5E5F0E08081877F8C93A5E5B0E0F2
:10149000E5E5F0E080818B7F8C934BC08A818130C1
:1014A00079F4A5E5B0E0E5E5F0E08081877F8C93F5
:1014B000A5E5B0E0E5E5F0E0808184608C9339C07B
:1014C0008A81823079F4A5E5B0E0E5E5F0E080813D
:1014D00088608C93A5E5B0E0E5E5F0E080818B7F46
:1014E0008C9327C08A81833021F5A5E5B0E0E5E53E
:1014F000F0E0808188608C93A5E5B0E0E5E5F0E060
:10150000808184608C9315C08A81882341F4A4E58E
:10151000B0E0E4E5F0E080818F7B8C930AC08A81A3
:10152000813039F4A4E5B0E0E4E5F0E08081806446
:101530008C930F900F900F900F90CF91DF910895A3
:10154000DF93CF9300D000D00F92CDB7DEB7898361
:101550007B836A838981282F30E03D832C838C81B3
:101560009D8182309105C1F02C813D812330310570
:1015700009F18C819D818130910551F5ABE5B0E099
:10158000EBE5F0E0808180648C938A819B8190936D
:10159000A7008093A60029C0ABE5B0E0EBE5F0E042
:1015A000808180688C938A819B819093A90080932D
:1015B000A8001BC0ABE5B0E0EBE5F0E08081806205
:1015C0008C938A819B819093A5008093A4000DC089
:1015D000ABE5B0E0EBE5F0E0808180648C938A813C
:1015E0009B819093A7008093A6000F900F900F907F
:1015F0000F900F90CF91DF910895DF93CF9300D09C
:101600000F92CDB7DEB789838981282F30E03B83E5
:101610002A838A819B818230910591F02A813B81C6
:1016200023303105A9F08A819B8181309105C1F475
:10163000ABE5B0E0EBE5F0E080818F7B8C9317C0E9
:10164000ABE5B0E0EBE5F0E080818F778C930FC0E5
:10165000ABE5B0E0EBE5F0E080818F7D8C9307C0D7
:10166000ABE5B0E0EBE5F0E080818F7B8C930F90F1
:101670000F900F90CF91DF9108951F920F920FB6A8
:101680000F9211242F933F934F935F936F937F9308
:101690008F939F93AF93BF93EF93FF93DF93CF937A
:1016A000CDB7DEB78091A6009091A700009729F0F2
:1016B000E091A600F091A7000995CF91DF91FF91ED
:1016C000EF91BF91AF919F918F917F916F915F91BA
:1016D0004F913F912F910F900FBE0F901F90189533
:1016E0001F920F920FB60F9211242F933F934F9397
:1016F0005F936F937F938F939F93AF93BF93EF937A
:10170000FF93DF93CF93CDB7DEB78091A800909180
:10171000A900009729F0E091A800F091A90009958F
:10172000CF91DF91FF91EF91BF91AF919F918F91F9
:101730007F916F915F914F913F912F910F900FBECD
:101740000F901F9018951F920F920FB60F921124B1
:101750002F933F934F935F936F937F938F939F93B9
:10176000AF93BF93EF93FF93DF93CF93CDB7DEB7E4
:101770008091A4009091A500009729F0E091A40029
:10178000F091A5000995CF91DF91FF91EF91BF9165
:10179000AF919F918F917F916F915F914F913F9109
:1017A0002F910F900FBE0F901F901895DF93CF933E
:1017B00000D0CDB7DEB78A8319828A81843018F0D1
:1017C00082E089831FC080E062E041E00E94A305BF
:1017D00080E063E041E00E94A3058A8160E041E08F
:1017E0000E94A3058A8161E041E00E94A3058A81ED
:1017F00062E041E00E94A3058A8164E041E00E942A
:10180000A305198289810F900F90CF91DF910895E0
:10181000DF93CF9300D000D00F92CDB7DEB78A838D
:101820006B8319828A81843018F082E0898324C115
:101830008B81282F30E03D832C838C819D818430E7
:10184000910509F49BC02C813D8125303105ECF4D4
:101850008C819D818130910509F451C02C813D819D
:10186000223031052CF48C819D81009799F103C1C0
:101870002C813D812230310509F456C08C819D8137
:101880008330910509F465C0F6C02C813D81273075
:10189000310509F4B2C08C819D81883091056CF4CA
:1018A0002C813D812530310509F47DC08C819D81DD
:1018B0008630910509F48CC0DEC02C813D81283032
:1018C000310509F4AFC08C819D818930910509F4FF
:1018D000BEC0D1C08A8160E040E00E949F068A813C
:1018E00061E040E00E949F068A8162E040E00E9441
:1018F0009F068A8164E040E00E949F06BCC08A8106
:1019000060E041E00E949F068A8161E040E00E9421
:101910009F068A8162E040E00E949F068A8164E01F
:1019200040E00E949F06A7C08A8160E040E00E94DC
:101930009F068A8161E041E00E949F068A8162E001
:1019400040E00E949F068A8164E040E00E949F067A
:1019500092C08A8160E041E00E949F068A8161E036
:1019600041E00E949F068A8162E040E00E949F065B
:101970008A8164E040E00E949F067DC08A8160E029
:1019800040E00E949F068A8161E040E00E949F063D
:101990008A8162E041E00E949F068A8164E040E023
:1019A0000E949F0668C08A8160E041E00E949F0615
:1019B0008A8161E040E00E949F068A8162E041E006
:1019C0000E949F068A8164E040E00E949F0653C007
:1019D0008A8160E040E00E949F068A8161E041E0E8
:1019E0000E949F068A8162E041E00E949F068A81F0
:1019F00064E040E00E949F063EC08A8160E041E0D2
:101A00000E949F068A8161E041E00E949F068A81D0
:101A100062E041E00E949F068A8164E040E00E940B
:101A20009F0629C08A8160E040E00E949F068A816B
:101A300061E040E00E949F068A8162E040E00E94EF
:101A40009F068A8164E041E00E949F0614C08A815B
:101A500060E041E00E949F068A8161E040E00E94D0
:101A60009F068A8162E040E00E949F068A8164E0CE
:101A700041E00E949F06198289810F900F900F907C
:101A80000F900F90CF91DF910895DF93CF9300D007
:101A90000F92CDB7DEB78A836B8319828B81883032
:101AA00018F081E089830CC08A81843018F082E0CC
:101AB000898306C08A816B8141E00E94A305198257
:101AC00089810F900F900F90CF91DF910895DF9350
:101AD000CF9300D00F92CDB7DEB78A836B83198284
:101AE0008B81883018F081E089830CC08A81843032
:101AF00018F082E0898306C08A816B8141E00E94F0
:101B00009F06198289810F900F900F90CF91DF91DE
:101B10000895DF93CF9300D00F92CDB7DEB78A83BD
:101B20006B8319828B81883018F081E089830CC027
:101B30008A81843018F082E0898306C08A816B81B3
:101B400040E00E949F06198289810F900F900F90AC
:101B5000CF91DF910895DF93CF9300D00F92CDB74F
:101B6000DEB78A836B8319828B81883018F081E01D
:101B700089830BC08A81843018F082E0898305C094
:101B80008A816B810E943D08198289810F900F9094
:101B90000F90CF91DF910895DF93CF93CDB7DEB74C
:101BA0006C970FB6F894DEBF0FBECDBF80E063E048
:101BB00041E00E94A30580E062E041E00E94A305AD
:101BC00080E090E0A0EAB1E4898F9A8FAB8FBC8F60
:101BD000698D7A8D8B8D9C8D20E030E04AE755E44D
:101BE0000E941F02DC01CB018D8B9E8BAF8BB88FC7
:101BF0006D897E898F89988D20E030E040E85FE331
:101C00000E94790388232CF481E090E09C8B8B8BDD
:101C10003FC06D897E898F89988D20E03FEF4FE727
:101C200057E40E94190318164CF5698D7A8D8B8D37
:101C30009C8D20E030E040E251E40E941F02DC0174
:101C4000CB01BC01CD010E944900DC01CB019C8B82
:101C50008B8B0FC080E991E09A8B898B89899A8957
:101C60000197F1F79A8B898B8B899C8901979C8BC3
:101C70008B8B8B899C89009769F714C06D897E894D
:101C80008F89988D0E944900DC01CB019C8B8B8B46
:101C90008B899C89988B8F878F8598890197F1F71D
:101CA000988B8F8781E060E041E00E94A30581E08E
:101CB00061E041E00E94A30581E062E041E00E9412
:101CC000A30581E064E041E00E94A30582E00E9458
:101CD000F00E88E20E94F00E8CE00E94F00E81E08F
:101CE0000E94F00E80E090E0A0E0B0E48B879C873B
:101CF000AD87BE876B857C858D859E8520E030E035
:101D00004AE755E40E941F02DC01CB018F839887CC
:101D1000A987BA876F81788589859A8520E030E028
:101D200040E85FE30E94790388232CF481E090E08F
:101D30009E838D833FC06F81788589859A8520E059
:101D40003FEF4FE757E40E94190318164CF56B85D7
:101D50007C858D859E8520E030E040E251E40E9444
:101D60001F02DC01CB01BC01CD010E944900DC0156
:101D7000CB019E838D830FC080E991E09C838B8390
:101D80008B819C810197F1F79C838B838D819E8150
:101D900001979E838D838D819E81009769F714C082
:101DA0006F81788589859A850E944900DC01CB0185
:101DB0009E838D838D819E819A83898389819A8177
:101DC0000197F1F79A83898386E00E94F00E6C9662
:101DD0000FB6F894DEBF0FBECDBFCF91DF9108954F
:101DE0000F931F93DF93CF93CDB7DEB7C356D04089
:101DF0000FB6F894DEBF0FBECDBFFE01ED59FF4F09
:101E0000808380E063E040E00E949F06FE01E15A8B
:101E1000FF4F80E090E0A0E8BFE380839183A2833E
:101E2000B3838E01055A1F4FFE01E15AFF4F6081B7
:101E300071818281938120E030E04AE755E40E947D
:101E40001F02DC01CB01F80180839183A283B3835D
:101E5000FE01E55AFF4F608171818281938120E00C
:101E600030E040E85FE30E947903882344F4FE01F8
:101E7000E75AFF4F81E090E09183808364C0FE01C8
:101E8000E55AFF4F608171818281938120E03FEFAD
:101E90004FE757E40E94190318160CF043C0FE01E7
:101EA000E15AFF4F608171818281938120E030E0AF
:101EB00040E251E40E941F02DC01CB018E01075A6F
:101EC0001F4FBC01CD010E944900DC01CB01F8018C
:101ED000918380831FC0FE01E95AFF4F80E991E0A2
:101EE00091838083FE01E95AFF4F808191810197A0
:101EF000F1F7FE01E95AFF4F91838083DE01A75A73
:101F0000BF4FFE01E75AFF4F8081918101971196E3
:101F10009C938E93FE01E75AFF4F80819181009739
:101F2000D1F627C08E01075A1F4FFE01E55AFF4F19
:101F300060817181828193810E944900DC01CB0123
:101F4000F80191838083DE01AB5ABF4FFE01E75A4F
:101F5000FF4F808191818D939C93FE01EB5AFF4F3F
:101F6000808191810197F1F7FE01EB5AFF4F918338
:101F7000808380E062E041E00E949F06FE01EF5A0C
:101F8000FF4F80E090E0A0E0B0E480839183A283E3
:101F9000B3838E01035B1F4FFE01EF5AFF4F608139
:101FA00071818281938120E030E04AE755E40E940C
:101FB0001F02DC01CB01F80180839183A283B383EC
:101FC000FE01E35BFF4F608171818281938120E09C
:101FD00030E040E85FE30E947903882344F4FE0187
:101FE000E55BFF4F81E090E09183808364C0FE0158
:101FF000E35BFF4F608171818281938120E03FEF3D
:102000004FE757E40E94190318160CF043C0FE0175
:10201000EF5AFF4F608171818281938120E030E02F
:1020200040E251E40E941F02DC01CB018E01055BFE
:102030001F4FBC01CD010E944900DC01CB01F8011A
:10204000918380831FC0FE01E75BFF4F80E991E031
:1020500091838083FE01E75BFF4F8081918101972F
:10206000F1F7FE01E75BFF4F91838083DE01A55B03
:10207000BF4FFE01E55BFF4F808191810197119673
:102080009C938E93FE01E55BFF4F808191810097C9
:10209000D1F627C08E01055B1F4FFE01E35BFF4FAA
:1020A00060817181828193810E944900DC01CB01B2
:1020B000F80191838083DE01A95BBF4FFE01E55BE0
:1020C000FF4F808191818D939C93FE01E95BFF4FCF
:1020D000808191810197F1F7FE01E95BFF4F9183C8
:1020E0008083FE01ED59FF4F808182958F70982F7C
:1020F000917081E060E0492F0E949F06FE01ED593A
:10210000FF4F8081829586958770982F917081E02E
:1021100061E0492F0E949F06FE01ED59FF4F80812B
:102120008295869586958370982F917081E062E004
:10213000492F0E949F06FE01ED59FF4F8081982F85
:10214000991F9927991F81E064E0492F0E949F06FB
:10215000FE01ED5BFF4F80E090E0A0E0B0E4808303
:102160009183A283B3838E01015C1F4FFE01ED5B5F
:10217000FF4F608171818281938120E030E04AE7E6
:1021800055E40E941F02DC01CB01F801808391839A
:10219000A283B383FE01FF96608171818281938166
:1021A00020E030E040E85FE30E94790388232CF4CC
:1021B00081E090E09EAF8DAF46C0FE01FF9660814A
:1021C00071818281938120E03FEF4FE757E40E94C5
:1021D0001903181664F5FE01ED5BFF4F60817181F4
:1021E0008281938120E030E040E251E40E941F02AE
:1021F000DC01CB01BC01CD010E944900DC01CB0117
:102200009EAF8DAF0FC080E991E09CAF8BAF8BADDF
:102210009CAD0197F1F79CAF8BAF8DAD9EAD019753
:102220009EAF8DAF8DAD9EAD009769F716C0FE01D4
:10223000FF9660817181828193810E944900DC0157
:10224000CB019EAF8DAF8DAD9EAD9AAF89AF89ADFD
:102250009AAD0197F1F79AAF89AF80E062E040E074
:102260000E949F0680E090E0A0E0B0E48DAB9EABC2
:10227000AFABB8AF6DA97EA98FA998AD20E030E0D3
:102280004AE755E40E941F02DC01CB0189AB9AABFF
:10229000ABABBCAB69A97AA98BA99CA920E030E0C3
:1022A00040E85FE30E94790388232CF481E090E00A
:1022B00098AB8FA73FC069A97AA98BA99CA920E0F8
:1022C0003FEF4FE757E40E94190318164CF56DA92C
:1022D0007EA98FA998AD20E030E040E251E40E9451
:1022E0001F02DC01CB01BC01CD010E944900DC01D1
:1022F000CB0198AB8FA70FC080E991E09EA78DA777
:102300008DA59EA50197F1F79EA78DA78FA598A9EA
:10231000019798AB8FA78FA598A9009769F714C06C
:1023200069A97AA98BA99CA90E944900DC01CB016B
:1023300098AB8FA78FA598A99CA78BA78BA59CA5C9
:102340000197F1F79CA78BA780E062E041E00E9433
:102350009F0680E090E0A0E0B0E48FA398A7A9A733
:10236000BAA76FA178A589A59AA520E030E04AE731
:1023700055E40E941F02DC01CB018BA39CA3ADA3FB
:10238000BEA36BA17CA18DA19EA120E030E040E81E
:102390005FE30E94790388232CF481E090E09AA304
:1023A00089A33FC06BA17CA18DA19EA120E03FEF3E
:1023B0004FE757E40E94190318164CF56FA178A552
:1023C00089A59AA520E030E040E251E40E941F0276
:1023D000DC01CB01BC01CD010E944900DC01CB0135
:1023E0009AA389A30FC080E991E098A38F8F8F8D66
:1023F00098A10197F1F798A38F8F89A19AA10197CE
:102400009AA389A389A19AA1009769F714C06BA127
:102410007CA18DA19EA10E944900DC01CB019AA361
:1024200089A389A19AA19E8F8D8F8D8D9E8D0197F5
:10243000F1F79E8F8D8FFE01ED59FF4F8081982F10
:10244000917081E060E0492F0E949F06FE01ED59E6
:10245000FF4F80818695982F917081E061E0492F30
:102460000E949F06FE01ED59FF4F8081869586955B
:10247000982F917081E062E0492F0E949F06FE0133
:10248000ED59FF4F8081869586958695982F91709E
:1024900081E064E0492F0E949F0680E090E0A0E088
:1024A000B0E4898F9A8FAB8FBC8F698D7A8D8B8DBD
:1024B0009C8D20E030E04AE755E40E941F02DC01D9
:1024C000CB018D8B9E8BAF8BB88F6D897E898F8969
:1024D000988D20E030E040E85FE30E947903882394
:1024E0002CF481E090E09C8B8B8B3FC06D897E89C2
:1024F0008F89988D20E03FEF4FE757E40E94190342
:1025000018164CF5698D7A8D8B8D9C8D20E030E00E
:1025100040E251E40E941F02DC01CB01BC01CD016D
:102520000E944900DC01CB019C8B8B8B0FC080E9A2
:1025300091E09A8B898B89899A890197F1F79A8B17
:10254000898B8B899C8901979C8B8B8B8B899C8930
:10255000009769F714C06D897E898F89988D0E94D4
:102560004900DC01CB019C8B8B8B8B899C89988BE0
:102570008F878F8598890197F1F7988B8F8780E0F7
:1025800062E040E00E949F0680E090E0A0E0B0E4BE
:102590008B879C87AD87BE876B857C858D859E8567
:1025A00020E030E04AE755E40E941F02DC01CB0145
:1025B0008F839887A987BA876F81788589859A855F
:1025C00020E030E040E85FE30E94790388232CF4A8
:1025D00081E090E09E838D833FC06F8178858985FF
:1025E0009A8520E03FEF4FE757E40E941903181641
:1025F0004CF56B857C858D859E8520E030E040E242
:1026000051E40E941F02DC01CB01BC01CD010E94FC
:102610004900DC01CB019E838D830FC080E991E0EE
:102620009C838B838B819C810197F1F79C838B83A7
:102630008D819E8101979E838D838D819E810097E0
:1026400069F714C06F81788589859A850E94490051
:10265000DC01CB019E838D838D819E819A8389834A
:1026600089819A810197F1F79A838983CD59DF4F48
:102670000FB6F894DEBF0FBECDBFCF91DF911F9193
:102680000F9108950F931F93DF93CF93CDB7DEB7CC
:10269000C356D0400FB6F894DEBF0FBECDBFFE01CB
:1026A000ED59FF4F808380E063E041E00E949F0688
:1026B000FE01E15AFF4F80E090E0A0E8BFE3808395
:1026C0009183A283B3838E01055A1F4FFE01E15A05
:1026D000FF4F608171818281938120E030E04AE781
:1026E00055E40E941F02DC01CB01F8018083918335
:1026F000A283B383FE01E55AFF4F6081718182811D
:10270000938120E030E040E85FE30E947903882372
:1027100044F4FE01E75AFF4F81E090E0918380830B
:1027200064C0FE01E55AFF4F60817181828193810F
:1027300020E03FEF4FE757E40E94190318160CF012
:1027400043C0FE01E15AFF4F608171818281938114
:1027500020E030E040E251E40E941F02DC01CB01A6
:102760008E01075A1F4FBC01CD010E944900DC01B8
:10277000CB01F801918380831FC0FE01E95AFF4F0E
:1027800080E991E091838083FE01E95AFF4F8081C7
:1027900091810197F1F7FE01E95AFF4F9183808300
:1027A000DE01A75ABF4FFE01E75AFF4F808191819A
:1027B000019711969C938E93FE01E75AFF4F8081FB
:1027C00091810097D1F627C08E01075A1F4FFE0155
:1027D000E55AFF4F60817181828193810E94490097
:1027E000DC01CB01F80191838083DE01AB5ABF4F3E
:1027F000FE01E75AFF4F808191818D939C93FE01EA
:10280000EB5AFF4F808191810197F1F7FE01EB5A5E
:10281000FF4F9183808380E062E041E00E949F0649
:10282000FE01EF5AFF4F80E090E0A0E0B0E480832B
:102830009183A283B3838E01035B1F4FFE01EF5A86
:10284000FF4F608171818281938120E030E04AE70F
:1028500055E40E941F02DC01CB01F80180839183C3
:10286000A283B383FE01E35BFF4F608171818281AC
:10287000938120E030E040E85FE30E947903882301
:1028800044F4FE01E55BFF4F81E090E0918380839B
:1028900064C0FE01E35BFF4F60817181828193819F
:1028A00020E03FEF4FE757E40E94190318160CF0A1
:1028B00043C0FE01EF5AFF4F608171818281938195
:1028C00020E030E040E251E40E941F02DC01CB0135
:1028D0008E01055B1F4FBC01CD010E944900DC0148
:1028E000CB01F801918380831FC0FE01E75BFF4F9E
:1028F00080E991E091838083FE01E75BFF4F808157
:1029000091810197F1F7FE01E75BFF4F918380838F
:10291000DE01A55BBF4FFE01E55BFF4F808191812A
:10292000019711969C938E93FE01E55BFF4F80818A
:1029300091810097D1F627C08E01055B1F4FFE01E4
:10294000E35BFF4F60817181828193810E94490026
:10295000DC01CB01F80191838083DE01A95BBF4FCD
:10296000FE01E55BFF4F808191818D939C93FE0179
:10297000E95BFF4F808191810197F1F7FE01E95BEF
:10298000FF4F91838083FE01ED59FF4F8081829537
:102990008F70982F917081E060E0492F0E949F0610
:1029A000FE01ED59FF4F8081829586958770982FA3
:1029B000917081E061E0492F0E949F06FE01ED5970
:1029C000FF4F80818295869586958370982F9170B0
:1029D00081E062E0492F0E949F06FE01ED59FF4F02
:1029E0008081982F991F9927991F81E064E0492FD2
:1029F0000E949F06FE01ED5BFF4F80E090E0A0E0AB
:102A0000B0E480839183A283B3838E01015C1F4F66
:102A1000FE01ED5BFF4F608171818281938120E037
:102A200030E04AE755E40E941F02DC01CB01F801C7
:102A300080839183A283B383FE01FF9660817181BD
:102A40008281938120E030E040E85FE30E947903D7
:102A500088232CF481E090E09EAF8DAF46C0FE014C
:102A6000FF96608171818281938120E03FEF4FE783
:102A700057E40E941903181664F5FE01ED5BFF4F41
:102A8000608171818281938120E030E040E251E4F5
:102A90000E941F02DC01CB01BC01CD010E94490054
:102AA000DC01CB019EAF8DAF0FC080E991E09CAF00
:102AB0008BAF8BAD9CAD0197F1F79CAF8BAF8DAD1C
:102AC0009EAD01979EAF8DAF8DAD9EAD009769F71E
:102AD00016C0FE01FF9660817181828193810E9400
:102AE0004900DC01CB019EAF8DAF8DAD9EAD9AAF9D
:102AF00089AF89AD9AAD0197F1F79AAF89AF80E0C0
:102B000062E040E00E949F0680E090E0A0E0B0E438
:102B10008DAB9EABAFABB8AF6DA97EA98FA998ADB9
:102B200020E030E04AE755E40E941F02DC01CB01BF
:102B300089AB9AABABABBCAB69A97AA98BA99CA9B1
:102B400020E030E040E85FE30E94790388232CF422
:102B500081E090E098AB8FA73FC069A97AA98BA9C3
:102B60009CA920E03FEF4FE757E40E941903181695
:102B70004CF56DA97EA98FA998AD20E030E040E228
:102B800051E40E941F02DC01CB01BC01CD010E9477
:102B90004900DC01CB0198AB8FA70FC080E991E021
:102BA0009EA78DA78DA59EA50197F1F79EA78DA73E
:102BB0008FA598A9019798AB8FA78FA598A9009783
:102BC00069F714C069A97AA98BA99CA90E94490038
:102BD000DC01CB0198AB8FA78FA598A99CA78BA7E9
:102BE0008BA59CA50197F1F79CA78BA780E062E0DD
:102BF00041E00E949F0680E090E0A0E0B0E48FA357
:102C000098A7A9A7BAA76FA178A589A59AA520E03A
:102C100030E04AE755E40E941F02DC01CB018BA3A0
:102C20009CA3ADA3BEA36BA17CA18DA19EA120E01E
:102C300030E040E85FE30E94790388232CF481E0D0
:102C400090E09AA389A33FC06BA17CA18DA19EA116
:102C500020E03FEF4FE757E40E94190318164CF5A8
:102C60006FA178A589A59AA520E030E040E251E463
:102C70000E941F02DC01CB01BC01CD010E94490072
:102C8000DC01CB019AA389A30FC080E991E098A34E
:102C90008F8F8F8D98A10197F1F798A38F8F89A1BE
:102CA0009AA101979AA389A389A19AA1009769F78C
:102CB00014C06BA17CA18DA19EA10E944900DC01E2
:102CC000CB019AA389A389A19AA19E8F8D8F8D8D07
:102CD0009E8D0197F1F79E8F8D8FFE01ED59FF4F6D
:102CE0008081982F917081E060E0492F0E949F06BB
:102CF000FE01ED59FF4F80818695982F917081E0FC
:102D000061E0492F0E949F06FE01ED59FF4F80812F
:102D100086958695982F917081E062E0492F0E94F8
:102D20009F06FE01ED59FF4F808186958695869519
:102D3000982F917081E064E0492F0E949F0680E007
:102D400090E0A0E0B0E4898F9A8FAB8FBC8F698D43
:102D50007A8D8B8D9C8D20E030E04AE755E40E940F
:102D60001F02DC01CB018D8B9E8BAF8BB88F6D89E1
:102D70007E898F89988D20E030E040E85FE30E94F3
:102D8000790388232CF481E090E09C8B8B8B3FC0EF
:102D90006D897E898F89988D20E03FEF4FE757E45A
:102DA0000E94190318164CF5698D7A8D8B8D9C8DB8
:102DB00020E030E040E251E40E941F02DC01CB0140
:102DC000BC01CD010E944900DC01CB019C8B8B8BA7
:102DD0000FC080E991E09A8B898B89899A89019744
:102DE000F1F79A8B898B8B899C8901979C8B8B8BB4
:102DF0008B899C89009769F714C06D897E898F89BA
:102E0000988D0E944900DC01CB019C8B8B8B8B89B8
:102E10009C89988B8F878F8598890197F1F7988B7C
:102E20008F8780E062E040E00E949F0680E090E0B3
:102E3000A0E0B0E48B879C87AD87BE876B857C85DF
:102E40008D859E8520E030E04AE755E40E941F0210
:102E5000DC01CB018F839887A987BA876F8178853A
:102E600089859A8520E030E040E85FE30E9479039D
:102E700088232CF481E090E09E838D833FC06F8196
:102E8000788589859A8520E03FEF4FE757E40E94D7
:102E9000190318164CF56B857C858D859E8520E081
:102EA00030E040E251E40E941F02DC01CB01BC0192
:102EB000CD010E944900DC01CB019E838D830FC0B0
:102EC00080E991E09C838B838B819C810197F1F752
:102ED0009C838B838D819E8101979E838D838D81C1
:102EE0009E81009769F714C06F81788589859A85DE
:102EF0000E944900DC01CB019E838D838D819E81E0
:102F00009A83898389819A810197F1F79A838983CA
:102F1000CD59DF4F0FB6F894DEBF0FBECDBFCF91B6
:102F2000DF911F910F910895DF93CF9300D000D0D0
:102F30000F92CDB7DEB79B838A836C834D83198252
:102F40008C816D810E94D81720C08981282F30E0A4
:102F50008A819B81FC01E20FF31F80810E94421352
:102F600089818F5F89838D818F5F8D838D8184318E
:102F700061F41D828C818F5F8C838C81843029F475
:102F80001C828C816D810E94D8178981282F30E0A6
:102F90008A819B81FC01E20FF31F80818823A9F6BF
:102FA0000F900F900F900F900F90CF91DF91089599
:102FB000DF93CF9300D000D0CDB7DEB789836A838B
:102FC0008981282F30E03C832B838B819C81813049
:102FD0009105D1F02B813C81223031052CF48B817D
:102FE0009C81009761F01FC02B813C81223031050C
:102FF00081F08B819C818330910581F014C08A819E
:1030000080580E94F00E15C08A8180540E94F00EF4
:1030100010C08A818C560E94F00E0BC08A818C529F
:103020000E94F00E06C080E690E060E040E00E9462
:1030300094170F900F900F900F90CF91DF910895FC
:10304000DF93CF93CDB7DEB766970FB6F894DEBFA8
:103050000FBECDBF698B7A8B8B8B9C8B4D8B2E8B50
:1030600089899A89AB89BC89BC01CD019E012F5FFA
:103070003F4FA9012AE030E00E949F1CCE0101963B
:103080006D894E890E94941766960FB6F894DEBF3C
:103090000FBECDBFCF91DF910895DF93CF93CDB712
:1030A000DEB781E00E94F00ECF91DF910895DF93AB
:1030B000CF9300D0CDB7DEB71A8229C08A81882F7E
:1030C00090E0FC01EC57FF4F20818A81882F90E02F
:1030D000FC01E857FF4F9081822F692F41E00E9449
:1030E000A3058A81882F90E0FC01EC57FF4F2081D7
:1030F0008A81882F90E0FC01E857FF4F9081822F52
:10310000692F41E00E949F068A818F5F8A838A81AE
:103110008430A0F2198216C08981882F90E0FC01CA
:10312000E457FF4F20818981882F90E0FC01E05710
:10313000FF4F9081822F692F40E00E94A305898173
:103140008F5F89838981843038F30F900F90CF91FE
:10315000DF910895DF93CF9300D00F92CDB7DEB704
:103160008FEF89831B826AC08B81882F90E0FC01DE
:10317000EC57FF4F20818B81882F90E0FC01E857AE
:10318000FF4F9081822F692F41E00E94A3058B8120
:10319000882F90E0FC01EC57FF4F20818B81882F16
:1031A00090E0FC01E857FF4F9081822F692F40E0AB
:1031B0000E949F061A8229C08A81882F90E0FC0114
:1031C000E457FF4F20818A81882F90E0FC01E0576F
:1031D000FF4F9081822F692F0E949B07882391F4D3
:1031E0008B81482F50E08A81282F30E0CA01880F58
:1031F000991F880F991F820F931FFC01EC56FF4FF8
:10320000808189838A818F5F8A838A818430A0F25A
:103210008B81882F90E0FC01EC57FF4F20818B8140
:10322000882F90E0FC01E857FF4F9081822F692F93
:1032300041E00E949F068B818F5F8B838B8184305E
:1032400008F492CF89810F900F900F90CF91DF916A
:103250000895DF93CF93CDB7DEB70E94CC0D0E94C7
:103260005718CF91DF910895DF93CF9300D00F923D
:10327000CDB7DEB70E94AA188B831A82198203C0C9
:103280000E94AA188B838B818F3FD1F38B81873368
:1032900039F488E690E060E040E00E94941719C09D
:1032A0008B81883339F48FE690E061E040E00E9442
:1032B00094170FC08B81893339F487E790E062E07F
:1032C00040E00E94941705C08B81833411F40E9462
:1032D0004D180F900F900F90CF91DF910895DF93CD
:1032E000CF9300D00F92CDB7DEB789838981282F85
:1032F00030E03B832A838A819B818430910509F4E5
:103300009BC02A813B8125303105ECF48A819B8169
:103310008130910509F451C02A813B812230310569
:103320002CF48A819B81009799F103C12A813B810A
:103330002230310509F456C08A819B818330910582
:1033400009F465C0F6C02A813B812730310509F4B4
:10335000B2C08A819B81883091056CF42A813B81BF
:103360002530310509F47DC08A819B818630910525
:1033700009F48CC0DEC02A813B812830310509F474
:10338000AFC08A819B818930910509F4BEC0D1C04C
:1033900081E067E040E00E949F0680E064E040E05A
:1033A0000E949F0680E065E040E00E949F0680E06A
:1033B00066E040E00E949F06BCC081E067E041E01B
:1033C0000E949F0680E064E040E00E949F0680E04B
:1033D00065E040E00E949F0680E066E040E00E94D9
:1033E0009F06A7C081E067E040E00E949F0680E062
:1033F00064E041E00E949F0680E065E040E00E94BA
:103400009F0680E066E040E00E949F0692C081E057
:1034100067E041E00E949F0680E064E041E00E9496
:103420009F0680E065E040E00E949F0680E066E045
:1034300040E00E949F067DC081E067E040E00E947E
:103440009F0680E064E040E00E949F0680E065E027
:1034500041E00E949F0680E066E040E00E949F06F7
:1034600068C081E067E041E00E949F0680E064E080
:1034700040E00E949F0680E065E041E00E949F06D8
:1034800080E066E040E00E949F0653C081E067E074
:1034900040E00E949F0680E064E041E00E949F06B9
:1034A00080E065E041E00E949F0680E066E040E049
:1034B0000E949F063EC081E067E041E00E949F06B7
:1034C00080E064E041E00E949F0680E065E041E02A
:1034D0000E949F0680E066E040E00E949F0629C0AF
:1034E00081E067E040E00E949F0680E064E040E009
:1034F0000E949F0680E065E040E00E949F0680E019
:1035000066E041E00E949F0614C081E067E041E070
:103510000E949F0680E064E040E00E949F0680E0F9
:1035200065E040E00E949F0680E066E041E00E9486
:103530009F060F900F900F90CF91DF910895DF932A
:10354000CF93CDB7DEB7AB970FB6F894DEBF0FBE03
:10355000CDBF81E08BA781E067E00E94670D81E02D
:103560008BA779C081E06BA50E94080C80E090E0F9
:10357000A8E4B4E48FA398A7A9A7BAA76FA178A5D8
:1035800089A59AA520E030E04AE755E40E941F0291
:10359000DC01CB018BA39CA3ADA3BEA36BA17CA13B
:1035A0008DA19EA120E030E040E85FE30E94790316
:1035B00088232CF481E090E09AA389A33FC06BA1FB
:1035C0007CA18DA19EA120E03FEF4FE757E40E9430
:1035D000190318164CF56FA178A589A59AA520E0C6
:1035E00030E040E251E40E941F02DC01CB01BC014B
:1035F000CD010E944900DC01CB019AA389A30FC031
:1036000080E991E098A38F8F8F8D98A10197F1F7B2
:1036100098A38F8F89A19AA101979AA389A389A1C1
:103620009AA1009769F714C06BA17CA18DA19EA1FE
:103630000E944900DC01CB019AA389A389A19AA128
:103640009E8F8D8F8D8D9E8D0197F1F79E8F8D8F23
:103650008BA58F5F8BA78BA5843008F483CF81E087
:1036600067E00E94890D80E066E00E94670D81E0BE
:103670008BA779C081E06BA50E94080C80E090E0E8
:10368000A8E4B4E4898F9A8FAB8FBC8F698D7A8D53
:103690008B8D9C8D20E030E04AE755E40E941F02AC
:1036A000DC01CB018D8B9E8BAF8BB88F6D897E89B2
:1036B0008F89988D20E030E040E85FE30E94790335
:1036C00088232CF481E090E09C8B8B8B3FC06D892C
:1036D0007E898F89988D20E03FEF4FE757E40E9465
:1036E000190318164CF5698D7A8D8B8D9C8D20E011
:1036F00030E040E251E40E941F02DC01CB01BC013A
:10370000CD010E944900DC01CB019C8B8B8B0FC04B
:1037100080E991E09A8B898B89899A890197F1F7E1
:103720009A8B898B8B899C8901979C8B8B8B8B893E
:103730009C89009769F714C06D897E898F89988D5F
:103740000E944900DC01CB019C8B8B8B8B899C896F
:10375000988B8F878F8598890197F1F7988B8F8742
:103760008BA58F5F8BA78BA5843008F483CF80E077
:1037700066E00E94890D80E064E00E94670D81E0B0
:103780008BA779C081E06BA50E94080C80E090E0D7
:10379000A8E4B4E48B879C87AD87BE876B857C8566
:1037A0008D859E8520E030E04AE755E40E941F02A7
:1037B000DC01CB018F839887A987BA876F817885D1
:1037C00089859A8520E030E040E85FE30E94790334
:1037D00088232CF481E090E09E838D833FC06F812D
:1037E000788589859A8520E03FEF4FE757E40E946E
:1037F000190318164CF56B857C858D859E8520E018
:1038000030E040E251E40E941F02DC01CB01BC0128
:10381000CD010E944900DC01CB019E838D830FC046
:1038200080E991E09C838B838B819C810197F1F7E8
:103830009C838B838D819E8101979E838D838D8157
:103840009E81009769F714C06F81788589859A8574
:103850000E944900DC01CB019E838D838D819E8176
:103860009A83898389819A810197F1F79A83898361
:103870008BA58F5F8BA78BA5843008F483CF80E066
:1038800064E00E94890DAB960FB6F894DEBF0FBEC0
:10389000CDBFCF91DF910895DF93CF930F92CDB736
:1038A000DEB70E94AA18898389810E94421380E0B2
:1038B00060E00E94D8170F90CF91DF910895DF93B9
:1038C000CF93CDB7DEB70E9429190E943419FDCFDE
:1038D0002F923F924F925F926F927F928F929F9220
:1038E000AF92BF92CF92DF92EF92FF920F931F930E
:1038F000CF93DF93CDB7DEB7CA1BDB0B0FB6F894BF
:10390000DEBF0FBECDBF09942A88398848885F84FE
:103910006E847D848C849B84AA84B984C884DF806F
:10392000EE80FD800C811B81AA81B981CE0FD11D53
:103930000FB6F894DEBF0FBECDBFED010895FB01B9
:103940009F01E8944230C4F04532B4F44A3029F47F
:1039500097FB1EF4909581959F4F642F77270E94C7
:10396000D01C805D8A330CF0895D8193CB01009778
:10397000A1F716F45DE251931082C9010C94C01CAA
:10398000DC01FC01672F71917723E1F7329704C0C6
:103990007C916D9370836291AE17BF07C8F3089551
:1039A000AA1BBB1B51E107C0AA1FBB1FA617B70765
:1039B00010F0A61BB70B881F991F5A95A9F7809581
:0C39C0009095BC01CD010895F894FFCF54
:1039CC0064656661756C7400486F7373616D004D4E
:1039DC0061686D6F756400417474610000000000D3
:1039EC0000000000020202020504030203030303A9
:1039FC00070605033738392F3435362A3132332D43
:043A0C0043303D2BDB
:00000001FF
