:100000000C942A000C942B130C945E130C949113F3
:100010000C9447000C9447000C94D20A0C94050BE6
:100020000C94380B0C946B0B0C942B0D0C945E0DF4
:100030000C9447000C9447000C9447000C94470024
:100040000C9442140C9447000C9447000C94470005
:100050000C94470011241FBECFE5D8E0DEBFCDBF12
:1000600011E0A0E6B0E0EEE0FAE402C005900D92E7
:10007000A03BB107D9F711E0A0EBB1E001C01D92A0
:10008000A33DB107E1F70E94C3230C9405250C940E
:100090000000EF92FF920F931F937B018C0120E0F1
:1000A00030E040E05FE40E94250488238CF0C80122
:1000B000B70120E030E040E05FE40E94C1010E940F
:1000C000E3049B01AC01205030404040504806C042
:1000D000C801B7010E94E3049B01AC01B901CA0148
:1000E0001F910F91FF90EF900895A0E0B0E0EBE733
:1000F000F0E00C942124DC012B01FA019C91923058
:1001000008F439C1EB018881823008F433C194309E
:1001100069F4843009F02FC111969C91119789815F
:10012000981709F428C1A7E8B0E025C1843009F484
:1001300021C18230A9F4923009F01DC19A01AD01AC
:1001400088E0EA010990AE01E90109929E0181501F
:10015000C1F7E201898111969C918923818308C1AD
:10016000923009F407C112962D903C901397EB0141
:100170008A819B811496AD90BD90CD90DC901797AD
:10018000EC80FD800E811F819101281B390BB90184
:1001900037FF04C066277727621B730B6032710537
:1001A0000CF061C0121613066CF537014801062EDB
:1001B00004C096948794779467940A94D2F721E0C8
:1001C00030E040E050E004C0220F331F441F551FB1
:1001D0006A95D2F721503040404050402E213F21B7
:1001E00040235123211531054105510521F021E01E
:1001F00030E040E050E079018A01E628F72808293C
:1002000019293CC0232BD1F1260E371E350146019A
:10021000062E04C096948794779467940A94D2F734
:1002200021E030E040E050E004C0220F331F441FC3
:10023000551F6A95D2F721503040404050402A2146
:100240003B214C215D21211531054105510521F04E
:1002500021E030E040E050E059016A01A628B728CB
:10026000C828D9280BC0821593052CF01C01AA249C
:10027000BB24650103C0EE24FF24870111969C91E5
:10028000D20111968C91981709F445C0992339F041
:10029000A80197012A193B094C095D0906C0A6016E
:1002A00095012E193F09400B510B57FD08C01182D3
:1002B0003382228224833583468357831DC081E0A5
:1002C00081833382228288279927DC01821B930B4A
:1002D000A40BB50B84839583A683B7830DC0220F2F
:1002E000331F441F551F24833583468357838281E0
:1002F000938101979383828324813581468157813D
:10030000DA01C9010197A109B1098F5F9F4FAF4F72
:10031000BF4328F30BC0918333822282EA0CFB1C7B
:100320000C1D1D1DE482F5820683178383E0808304
:10033000248135814681578157FF1AC0C901AA27F8
:1003400097FDA095BA2F81709070A070B0705695EF
:10035000479537952795822B932BA42BB52B848318
:100360009583A683B7838281938101969383828349
:10037000DF0101C0D201CD01CDB7DEB7E2E10C94BF
:100380003D24A0E2B0E0E7ECF1E00C942D24698379
:100390007A838B839C832D833E834F835887E9E048
:1003A000EE2EF12CEC0EFD1ECE010196B7010E943F
:1003B000D4068E010F5E1F4FCE010596B8010E9434
:1003C000D4068A8991E089278A8BC701B801AE01DA
:1003D000475E5F4F0E9475000E94FF05A096E6E011
:1003E0000C944924A0E2B0E0E8EFF1E00C942D2455
:1003F00069837A838B839C832D833E834F835887C5
:10040000F9E0EF2EF12CEC0EFD1ECE010196B701A6
:100410000E94D4068E010F5E1F4FCE010596B801D3
:100420000E94D406C701B801AE01475E5F4F0E942B
:1004300075000E94FF05A096E6E00C944924A0E216
:10044000B0E0E5E2F2E00C94212469837A838B83A7
:100450009C832D833E834F835887CE010196BE0136
:10046000675F7F4F0E94D406CE010596BE016F5E86
:100470007F4F0E94D4069985923088F08989823016
:10048000C8F0943019F4823051F404C0843029F457
:10049000923081F487E890E0C6C0923049F420E0C1
:1004A0009A858A89981321E02A87CE010996BBC0D4
:1004B000823049F420E09A858A89981321E02A8BBA
:1004C000CE014196B0C02D843E844F8458886D88FB
:1004D0007E888F88988CEE24FF248701AA24BB2471
:1004E000650140E050E060E070E0E0E0F0E0C10174
:1004F00081709070892BE9F0E60CF71C081D191D1E
:100500009A01AB012A0D3B1D4C1D5D1D80E090E062
:10051000A0E0B0E0E614F7040805190520F481E036
:1005200090E0A0E0B0E0BA01A901480F591F6A1F8E
:100530007B1FAA0CBB1CCC1CDD1C97FE08C081E0F5
:1005400090E0A0E0B0E0A82AB92ACA2ADB2A3196B6
:10055000E032F10549F0660C771C881C991C569412
:10056000479437942794C3CFFA85EA892B893C892D
:100570008B859C85280F391F2E5F3F4F17C0CA01FE
:1005800081709070892B61F016950795F794E79428
:1005900080E090E0A0E0B0E8E82AF92A0A2B1B2BC3
:1005A00076956795579547952F5F3F4F77FDE7CF36
:1005B0000CC0440F551F661F771F17FD4160EE0CDE
:1005C000FF1C001F111F21503040403090E05907A0
:1005D00090E0690790E4790760F32B8F3C8FDB0193
:1005E000CA018F779070A070B07080349105A1051A
:1005F000B10561F447FD0AC0E114F10401051105DC
:1006000029F0405C5F4F6F4F7F4F40781A8EFE1786
:1006100011F081E08A8F4D8F5E8F6F8F78A383E01A
:10062000898FCE0149960E94FF05A096E2E10C94C5
:100630003D24A8E1B0E0EFE1F3E00C9429246983C4
:100640007A838B839C832D833E834F835887B9E0C5
:10065000EB2EF12CEC0EFD1ECE010196B7010E948F
:10066000D4068E010F5E1F4FCE010596B8010E9481
:10067000D4062985223008F47EC03989323010F43E
:10068000B8017CC08A859A8989278A87243011F02D
:10069000223031F4231709F06EC067E870E06EC0B5
:1006A000343039F41D861E861F86188A1C861B86E8
:1006B00004C0323021F484E08987B7015FC02B8504
:1006C0003C858B899C89281B390B3C872B87ED84C3
:1006D000FE840F851889AD88BE88CF88D88CEA142F
:1006E000FB040C051D0540F4EE0CFF1C001F111F40
:1006F000215030403C872B8720E030E040E050E044
:1007000080E090E0A0E0B0E460E070E0EA14FB0478
:100710000C051D0540F0282B392B4A2B5B2BEA18C2
:10072000FB080C091D09B695A79597958795EE0CC2
:10073000FF1C001F111F6F5F7F4F6F31710531F775
:10074000DA01C9018F779070A070B0708034910584
:10075000A105B10561F427FD0AC0E114F10401050A
:10076000110529F0205C3F4F4F4F5F4F20782D87B8
:100770003E874F87588BBE01675F7F4FCB010E943A
:10078000FF056896EAE00C944524A8E1B0E0EBECA4
:10079000F3E00C942D2469837A838B839C832D83CF
:1007A0003E834F83588789E0E82EF12CEC0EFD1E26
:1007B000CE010196B7010E94D4068E010F5E1F4F35
:1007C000CE010596B8010E94D4068985823040F09A
:1007D0008989823028F0C701B8010E944C0701C006
:1007E00081E06896E6E00C944924A8E1B0E0EBEFE4
:1007F000F3E00C942D2469837A838B839C832D836F
:100800003E834F83588789E0E82EF12CEC0EFD1EC5
:10081000CE010196B7010E94D4068E010F5E1F4FD4
:10082000CE010596B8010E94D4068985823040F039
:100830008989823028F0C701B8010E944C0701C0A5
:100840008FEF6896E6E00C944924A8E1B0E0EBE273
:10085000F4E00C942D2469837A838B839C832D830D
:100860003E834F83588789E0E82EF12CEC0EFD1E65
:10087000CE010196B7010E94D4068E010F5E1F4F74
:10088000CE010596B8010E94D4068985823040F0D9
:100890008989823028F0C701B8010E944C0701C045
:1008A0008FEF6896E6E00C944924A8E1B0E0EBE510
:1008B000F4E00C942D2469837A838B839C832D83AD
:1008C0003E834F83588789E0E82EF12CEC0EFD1E05
:1008D000CE010196B7010E94D4068E010F5E1F4F14
:1008E000CE010596B8010E94D4068985823040F079
:1008F0008989823028F0C701B8010E944C0701C0E5
:1009000081E06896E6E00C944924A8E0B0E0EBE8CA
:10091000F4E00C942A249B01AC0183E08983DA0182
:10092000C9018827B7FD83959927AA27BB27B82E29
:10093000211531054105510519F482E089833AC03A
:100940008823A9F0203080E0380780E0480780E85D
:10095000580729F460E070E080E09FEC30C0EE249E
:10096000FF248701E21AF30A040B150B02C0790178
:100970008A018EE1C82ED12CDC82CB82ED82FE82F0
:100980000F831887C801B7010E94B0050197181698
:10099000190684F4082E04C0EE0CFF1C001F111F62
:1009A0000A94D2F7ED82FE820F831887C81AD90AFB
:1009B000DC82CB82BA82CE0101960E94FF05289686
:1009C000E9E00C944624ACE0B0E0E9EEF4E00C94ED
:1009D000312469837A838B839C83CE010196BE0187
:1009E0006B5F7F4F0E94D4068D81823061F182302F
:1009F00050F1843021F48E81882351F12EC02F8153
:100A0000388537FD20C06E812F3131051CF06623FB
:100A1000F9F023C08EE190E0821B930B29853A8583
:100A20004B855C8504C056954795379527958A95E3
:100A3000D2F76623B1F050954095309521953F4F00
:100A40004F4F5F4F0EC020E030E040E050E009C063
:100A50002FEF3FEF4FEF5FE704C020E030E040E0D2
:100A600050E8B901CA012C96E2E00C944D24A8E0AC
:100A7000B0E0EDE3F5E00C9429247B018C016115D5
:100A800071058105910519F482E0898360C083E0D6
:100A900089838EE1C82ED12CDC82CB82ED82FE824E
:100AA0000F831887C801B7010E94B005FC01319778
:100AB000F7FF3BC0222733272E1B3F0B570168014E
:100AC000022E04C0D694C794B794A7940A94D2F780
:100AD00040E050E060E070E081E090E0A0E0B0E055
:100AE00004C0880F991FAA1FBB1F2A95D2F7019730
:100AF000A109B1098E219F21A023B1230097A1054F
:100B0000B10521F041E050E060E070E04A295B2946
:100B10006C297D294D835E836F8378878EE190E019
:100B20008E1B9F0B9C838B8312C0309781F00E2EFF
:100B300004C0EE0CFF1C001F111F0A94D2F7ED82B7
:100B4000FE820F831887CE1ADF0ADC82CB821A82DC
:100B5000CE0101960E94FF052896EAE00C944524F8
:100B6000EF92FF920F931F937B018C0180E0E816B8
:100B700080E0F80681E0080780E0180788F48FEF2E
:100B8000E816F1040105110531F028F088E090E045
:100B9000A0E0B0E017C080E090E0A0E0B0E012C0BC
:100BA00080E0E81680E0F80680E0080781E018079A
:100BB00028F088E190E0A0E0B0E004C080E190E09F
:100BC000A0E0B0E020E230E040E050E0281B390B2C
:100BD0004A0B5B0B04C016950795F794E7948A952A
:100BE000D2F7F701E157FF4F8081281B31094109F6
:100BF0005109C9011F910F91FF90EF900895DF9265
:100C0000EF92FF920F931F93FC01E480F580068121
:100C10001781D1808081823048F480E090E0A0E1AB
:100C2000B0E0E82AF92A0A2B1B2BA5C0843009F46E
:100C30009FC0823021F4EE24FF24870105C0E11417
:100C4000F1040105110519F4E0E0F0E096C06281BD
:100C500073819FEF623879070CF05BC022E83FEFA9
:100C6000261B370B2A3131052CF020E030E040E024
:100C700050E02AC0B801A701022E04C076956795FE
:100C8000579547950A94D2F781E090E0A0E0B0E054
:100C900004C0880F991FAA1FBB1F2A95D2F701977E
:100CA000A109B1098E219F21A023B1230097A1059D
:100CB000B10521F081E090E0A0E0B0E09A01AB0145
:100CC000282B392B4A2B5B2BDA01C9018F779070C7
:100CD000A070B07080349105A105B10539F427FFEB
:100CE00009C0205C3F4F4F4F5F4F04C0215C3F4F16
:100CF0004F4F5F4FE0E0F0E02030A0E03A07A0E087
:100D00004A07A0E45A0710F0E1E0F0E079018A0117
:100D100027C06038710564F5FB01E158FF4FD80129
:100D2000C7018F779070A070B07080349105A105D5
:100D3000B10539F4E7FE0DC080E490E0A0E0B0E03A
:100D400004C08FE390E0A0E0B0E0E80EF91E0A1FB7
:100D50001B1F17FF05C016950795F794E79431966A
:100D600087E016950795F794E7948A95D1F705C023
:100D7000EE24FF248701EFEFF0E06E2F67956627E2
:100D80006795902F9F77D794DD24D7948E2F8695E3
:100D9000492F462B582F5D29B701CA011F910F918A
:100DA000FF90EF90DF900895FC01DB0140815181BD
:100DB0002281622F6F7770E0221F2227221F9381EA
:100DC000892F880F822B282F30E0991F9927991F90
:100DD00011969C93119721153105A9F541155105DF
:100DE0006105710511F482E037C082E89FEF139628
:100DF0009C938E9312979A01AB0167E0220F331FE9
:100E0000441F551F6A95D1F783E08C930DC0220FC4
:100E1000331F441F551F12968D919C911397019774
:100E200013969C938E931297203080E0380780E0D1
:100E3000480780E4580758F314962D933D934D933B
:100E40005C93179708952F3F310579F441155105AB
:100E50006105710519F484E08C93089564FF03C063
:100E600081E08C9312C01C9210C02F573040139613
:100E70003C932E93129783E08C9387E0440F551F89
:100E8000661F771F8A95D1F7706414964D935D9312
:100E90006D937C93179708951F93DC01FB019C9140
:100EA000923008F447C08081823008F443C0943007
:100EB00051F411961C91843099F58181682F70E06E
:100EC000611B71093FC0843021F0923031F48230CF
:100ED000B9F18181882389F12DC011961C91119758
:100EE0008230F1F081811817D9F412962D913C913E
:100EF0001397828193818217930794F028173907FB
:100F0000BCF014968D919D910D90BC91A02D2481E3
:100F1000358146815781281739074A075B0718F43E
:100F2000112341F00AC082179307A407B50740F4C4
:100F3000112319F061E070E005C06FEF7FEF02C090
:100F400060E070E0CB011F910895DF93CF930F9283
:100F5000CDB7DEB7EBE2F0E080818D7F8083EAE2FF
:100F6000F0E0808188608083EAE2F0E08081806147
:100F700080831982898180688983898182608983DD
:100F8000898184608983E0E4F0E089818083E9E2FB
:100F9000F0E087E68083E0E4F0E010820F90CF91EC
:100FA000DF910895DF93CF930F92CDB7DEB789839A
:100FB000EBE2F0E0808180728823D1F3ECE2F0E094
:100FC000898180830F90CF91DF910895DF93CF9334
:100FD000CDB7DEB7EBE2F0E0808180788823D1F3F3
:100FE000ECE2F0E08081CF91DF910895DF93CF9321
:100FF00000D000D0CDB7DEB79C838B831A821982D4
:101000000FC02B813C8189819A81F901E80FF91F7A
:1010100080810E94D20789819A8101969A8389836F
:101020002B813C8189819A81F901E80FF91F808128
:10103000882339F70F900F900F900F90CF91DF9189
:1010400008950F931F93DF93CF9300D00F92CDB7E6
:10105000DEB79B838A8319820FC089818F5F898362
:101060008981282F30E08A819B818C01020F131F18
:101070000E94E607F80180838981282F30E08A8169
:101080009B81FC01E20FF31F8081833231F789815C
:10109000282F30E08A819B81FC01E20FF31F108230
:1010A0000F900F900F90CF91DF911F910F910895A6
:1010B000DF93CF93CDB7DEB7EFE4F0E08081877F99
:1010C0008083EFE4F0E080818B7F8083EFE4F0E0C9
:1010D00080818C7F82608083EEE4F0E08081886193
:1010E0008083EFE4F0E080818F7C80628083EFE496
:1010F000F0E080818F7380688083EEE4F0E080818F
:10110000887F82608083EAE4F0E084EF91E091835D
:101110008083CF91DF910895DF93CF93CDB7DEB772
:10112000CF91DF910895DF93CF93CDB7DEB7EEE493
:10113000F0E08081887F8083CF91DF910895DF93F5
:10114000CF930F92CDB7DEB78983ECE4F0E08981CD
:10115000882F90E0918380830F90CF91DF91089545
:10116000DF93CF93CDB7DEB7ECE4F0E080819181DF
:10117000CF91DF910895DF93CF9300D000D0CDB70A
:10118000DEB79C838B838B819C819A83898383E0E8
:1011900065E041E00E94910DEAE4F0E08B819C81E2
:1011A0009183808389819A810F900F900F900F9087
:1011B000CF91DF910895DF93CF9300D0CDB7DEB705
:1011C0009A838983E6E4F0E089819A819183808320
:1011D0000F900F90CF91DF910895DF93CF9300D0C0
:1011E0000F92CDB7DEB78B838B81482F50E0CA01B9
:1011F0009C01220F331FC9019695982F8827979538
:101200008795821B930B840F951F24E630E0B9016C
:101210000E94EB23CB019A83898383E065E041E060
:101220000E94910DEAE4F0E089819A8191838083A4
:1012300089819A810F900F900F90CF91DF9108953F
:10124000DF93CF9300D00F92CDB7DEB78B838B8126
:10125000482F50E0CA019C01220F331FC901969507
:10126000982F882797958795821B930B840F951F3E
:1012700024E630E0B9010E94EB23CB019A838983F5
:1012800083E064E041E00E94910DE8E4F0E08981B0
:10129000808389819A810F900F900F90CF91DF9179
:1012A0000895DF93CF93CDB7DEB728970FB6F894A4
:1012B000DEBF0FBECDBF98878F838FE692E1A3E894
:1012C000BAE38B839C83AD83BE836B817C818D81EC
:1012D0009E8120E034E244E75BE40E941F02DC01CF
:1012E000CB01BC01CD0120E030E040E450E40E949D
:1012F0001903DC01CB01BC01CD010E944900DC01D6
:10130000CB019A838983ECE4F0E089819A8191830F
:10131000808310C0E8E5F0E0808180718823D1F3FC
:10132000E8E5F0E08081806180838091B0018F5F8B
:101330008093B0018091B001282F30E08F81988593
:101340002817390739F71092B00128960FB6F8948C
:10135000DEBF0FBECDBFCF91DF910895DF93CF9356
:10136000CDB7DEB728970FB6F894DEBF0FBECDBF5E
:1013700098878F838FE692E1A3E8BAE38B839C83FF
:10138000AD83BE836B817C818D819E8120E034E2C0
:1013900044E75BE40E941F02DC01CB01BC01CD01EC
:1013A00020E030E040E450E40E941903DC01CB016E
:1013B000BC01CD010E944900DC01CB019A838983E5
:1013C000ECE4F0E089819A819183808310C0E8E5A4
:1013D000F0E0808188708823D1F3E8E5F0E0808137
:1013E000886080838091B1018F5F8093B10180918B
:1013F000B101282F30E08F8198852817390739F7F8
:101400001092B10128960FB6F894DEBF0FBECDBF83
:10141000CF91DF910895DF93CF93CDB7DEB72E97AD
:101420000FB6F894DEBF0FBECDBF9E878D8780E0DC
:1014300090E0A0E0B0E089879A87AB87BC878DEB0E
:1014400097E3A6E0B4E389879A87AB87BC87698571
:101450007A858B859C8520E030E040E853E40E944B
:101460001F02DC01CB018D839E83AF83B8878D85FE
:101470009E85CC01A0E0B0E0BC01CD010E94370503
:10148000DC01CB01BC01CD012D813E814F8158850E
:101490000E941903DC01CB01BC01CD010E9479241B
:1014A000DC01CB0189839A83AB83BC8310C0E8E560
:1014B000F0E0808184708823D1F3E8E5F0E080815A
:1014C000846080838091B2018F5F8093B2018091AC
:1014D000B201882F90E0AA2797FDA095BA2FBC01F2
:1014E000CD010E948504DC01CB01BC01CD01298125
:1014F0003A814B815C810E94C5038823C1F610921A
:10150000B2012E960FB6F894DEBF0FBECDBFCF91BD
:10151000DF910895DF93CF9300D0CDB7DEB79A83E4
:10152000898389819A819093C4018093C3010F902C
:101530000F90CF91DF910895DF93CF9300D0CDB777
:10154000DEB79A83898389819A819093C6018093BB
:10155000C5010F900F90CF91DF910895DF93CF9346
:1015600000D0CDB7DEB79A83898389819A81909321
:10157000C0018093BF010F900F90CF91DF9108952C
:10158000DF93CF9300D0CDB7DEB79A83898389816B
:101590009A819093C2018093C1010F900F90CF91D7
:1015A000DF9108951F920F920FB60F9211242F937F
:1015B0003F934F935F936F937F938F939F93AF93DB
:1015C000BF93EF93FF93DF93CF93CDB7DEB78091B7
:1015D000C3019091C401009729F0E091C301F091FB
:1015E000C4010995CF91DF91FF91EF91BF91AF9128
:1015F0009F918F917F916F915F914F913F912F912B
:101600000F900FBE0F901F9018951F920F920FB65C
:101610000F9211242F933F934F935F936F937F9378
:101620008F939F93AF93BF93EF93FF93DF93CF93EA
:10163000CDB7DEB78091C5019091C601009729F022
:10164000E091C501F091C6010995CF91DF91FF911D
:10165000EF91BF91AF919F918F917F916F915F912A
:101660004F913F912F910F900FBE0F901F901895A3
:101670001F920F920FB60F9211242F933F934F9307
:101680005F936F937F938F939F93AF93BF93EF93EA
:10169000FF93DF93CF93CDB7DEB78091BF019091D9
:1016A000C001009729F0E091BF01F091C0010995B8
:1016B000CF91DF91FF91EF91BF91AF919F918F916A
:1016C0007F916F915F914F913F912F910F900FBE3E
:1016D0000F901F9018951F920F920FB60F92112422
:1016E0002F933F934F935F936F937F938F939F932A
:1016F000AF93BF93EF93FF93DF93CF93CDB7DEB755
:101700008091C1019091C201009729F0E091C1013F
:10171000F091C2010995CF91DF91FF91EF91BF91B7
:10172000AF919F918F917F916F915F914F913F9179
:101730002F910F900FBE0F901F901895DF93CF93AE
:10174000CDB7DEB7CF91DF910895DF93CF93CDB7BB
:10175000DEB7E3E5F0E08081887F82608083CF910F
:10176000DF910895DF93CF93CDB7DEB7E3E5F0E0E7
:101770008081887F8083CF91DF910895DF93CF931D
:101780000F92CDB7DEB78983E2E5F0E089818083EF
:101790000F90CF91DF910895DF93CF93CDB7DEB750
:1017A000E2E5F0E08081CF91DF910895DF93CF9360
:1017B00000D0CDB7DEB78A838A81482F50E0CA01B6
:1017C0009C01220F331FC9019695982F8827979562
:1017D0008795821B930B840F951F24E630E0B90197
:1017E0000E94EB23CB01898381E063E041E00E940A
:1017F000910DECE5F0E08981808389810F900F9055
:10180000CF91DF910895DF93CF93CDB7DEB72797C0
:101810000FB6F894DEBF0FBECDBF9F838E838FE6D9
:1018200092E1A3E8BAE38A839B83AC83BD836A8198
:101830007B818C819D8120E034E244E75BE40E945F
:101840001F02DC01CB01BC01CD0120E030E040E40F
:1018500050E40E941903DC01CB01BC01CD010E94C0
:101860004900DC01CB018983E2E5F0E089818083D6
:1018700010C0E8E5F0E0808182708823D1F3E8E5CC
:10188000F0E08081826080838091B3018F5F8093DC
:10189000B3018091B301282F30E08E819F812817FA
:1018A000390739F71092B30127960FB6F894DEBFC7
:1018B0000FBECDBFCF91DF910895DF93CF93CDB70A
:1018C000DEB72E970FB6F894DEBF0FBECDBF9E8752
:1018D0008D8780E090E0A0E0B0E089879A87AB87B1
:1018E000BC878DEB97E3A6E0B4E389879A87AB8743
:1018F000BC8769857A858B859C8520E030E040E84F
:1019000053E40E941F02DC01CB018D839E83AF83D1
:10191000B8878D859E85CC01A0E0B0E0BC01CD01EB
:101920000E943705DC01CB01BC01CD012D813E8138
:101930004F8158850E941903DC01CB01BC01CD0108
:101940000E947924DC01CB0189839A83AB83BC8319
:1019500010C0E8E5F0E0808181708823D1F3E8E5EC
:10196000F0E08081816080838091B4018F5F8093FB
:10197000B4018091B401882F90E0AA2797FDA0952B
:10198000BA2FBC01CD010E948504DC01CB01BC0152
:10199000CD0129813A814B815C810E94C503882356
:1019A000C1F61092B4012E960FB6F894DEBF0FBEAA
:1019B000CDBFCF91DF910895DF93CF9300D00F92E9
:1019C000CDB7DEB79B838A838A819B81CC01A0E05F
:1019D000B0E024E630E040E050E0BC01CD010E94E0
:1019E000CC23DC01CB012FEF33E040E050E0BC0121
:1019F000CD010E94FF23DA01C90189838981882FE3
:101A000090E00F900F900F90CF91DF910895DF93AA
:101A1000CF9300D0CDB7DEB79A83898389819A812D
:101A20009093C8018093C7010F900F90CF91DF91E1
:101A30000895DF93CF9300D0CDB7DEB79A83898323
:101A400089819A819093CA018093C9010F900F9068
:101A5000CF91DF9108951F920F920FB60F9211242C
:101A60002F933F934F935F936F937F938F939F93A6
:101A7000AF93BF93EF93FF93DF93CF93CDB7DEB7D1
:101A80008091C7019091C801009729F0E091C701AA
:101A9000F091C8010995CF91DF91FF91EF91BF912E
:101AA000AF919F918F917F916F915F914F913F91F6
:101AB0002F910F900FBE0F901F9018951F920F92AD
:101AC0000FB60F9211242F933F934F935F936F9311
:101AD0007F938F939F93AF93BF93EF93FF93DF9386
:101AE000CF93CDB7DEB78091C9019091CA0100971D
:101AF00029F0E091C901F091CA010995CF91DF91D8
:101B0000FF91EF91BF91AF919F918F917F916F91D5
:101B10005F914F913F912F910F900FBE0F901F90AB
:101B20001895DF93CF9300D000D000D0CDB7DEB7AB
:101B30008A836B834C8319828B81883018F081E013
:101B40008983E1C08A81843018F082E08983DBC018
:101B50008C81882331F08C81813019F083E0898376
:101B6000D2C08A81282F30E03E832D838D819E81D3
:101B70008130910509F443C02D813E812230310529
:101B80002CF48D819E81009771F0BCC02D813E8127
:101B90002230310509F45FC08D819E81833091052B
:101BA00009F485C0AFC08C818130A1F4AAE3B0E014
:101BB000EAE3F0E08081482F8B81282F30E081E03C
:101BC00090E0022E02C0880F991F0A94E2F7842B3E
:101BD0008C9398C0AAE3B0E0EAE3F0E08081482F5C
:101BE0008B81282F30E081E090E0022E02C0880F28
:101BF000991F0A94E2F7809584238C9383C08C818B
:101C00008130A1F4A7E3B0E0E7E3F0E08081482F62
:101C10008B81282F30E081E090E0022E02C0880FF7
:101C2000991F0A94E2F7842B8C936CC0A7E3B0E071
:101C3000E7E3F0E08081482F8B81282F30E081E0BE
:101C400090E0022E02C0880F991F0A94E2F7809557
:101C500084238C9357C08C818130A1F4A4E3B0E03D
:101C6000E4E3F0E08081482F8B81282F30E081E091
:101C700090E0022E02C0880F991F0A94E2F7842B8D
:101C80008C9340C0A4E3B0E0E4E3F0E08081482F0F
:101C90008B81282F30E081E090E0022E02C0880F77
:101CA000991F0A94E2F7809584238C932BC08C8132
:101CB0008130A1F4A1E3B0E0E1E3F0E08081482FBE
:101CC0008B81282F30E081E090E0022E02C0880F47
:101CD000991F0A94E2F7842B8C9314C0A1E3B0E01F
:101CE000E1E3F0E08081482F8B81282F30E081E014
:101CF00090E0022E02C0880F991F0A94E2F78095A7
:101D000084238C931982898126960FB6F894DEBFBE
:101D10000FBECDBFCF91DF910895DF93CF9300D059
:101D200000D000D0CDB7DEB78A836B834C83198295
:101D30008B81883018F081E08983E1C08A8184300A
:101D400018F082E08983DBC08C81813031F08C8196
:101D5000882319F083E08983D2C08A81282F30E05C
:101D60003E832D838D819E818130910509F443C08E
:101D70002D813E81223031052CF48D819E8100978A
:101D800071F0BCC02D813E812230310509F45FC065
:101D90008D819E818330910509F485C0AFC08C810F
:101DA0008130A1F4ABE3B0E0EBE3F0E08081482FB9
:101DB0008B81282F30E081E090E0022E02C0880F56
:101DC000991F0A94E2F7842B8C9398C0ABE3B0E0A0
:101DD000EBE3F0E08081482F8B81282F30E081E019
:101DE00090E0022E02C0880F991F0A94E2F78095B6
:101DF00084238C9383C08C818130A1F4A8E3B0E06C
:101E0000E8E3F0E08081482F8B81282F30E081E0EB
:101E100090E0022E02C0880F991F0A94E2F7842BEB
:101E20008C936CC0A8E3B0E0E8E3F0E08081482F39
:101E30008B81282F30E081E090E0022E02C0880FD5
:101E4000991F0A94E2F7809584238C9357C08C8164
:101E50008130A1F4A5E3B0E0E5E3F0E08081482F14
:101E60008B81282F30E081E090E0022E02C0880FA5
:101E7000991F0A94E2F7842B8C9340C0A5E3B0E04D
:101E8000E5E3F0E08081482F8B81282F30E081E06E
:101E900090E0022E02C0880F991F0A94E2F7809505
:101EA00084238C932BC08C818130A1F4A2E3B0E019
:101EB000E2E3F0E08081482F8B81282F30E081E041
:101EC00090E0022E02C0880F991F0A94E2F7842B3B
:101ED0008C9314C0A2E3B0E0E2E3F0E08081482FED
:101EE0008B81282F30E081E090E0022E02C0880F25
:101EF000991F0A94E2F7809584238C931982898133
:101F000026960FB6F894DEBF0FBECDBFCF91DF91FE
:101F10000895DF93CF9300D000D000D0CDB7DEB7C7
:101F20008B836C831A8219828C81883018F081E04F
:101F30008A8387C08B81843018F082E08A8381C0D5
:101F40008B81282F30E03E832D834D815E8141308F
:101F5000510579F18D819E818230910534F42D8176
:101F60003E812115310569F06BC04D815E814230A3
:101F70005105B9F18D819E818330910509F449C0E5
:101F80005FC0E9E3F0E08081282F30E08C81882F6A
:101F900090E0A90102C0559547958A95E2F7CA01DC
:101FA00081709070882319F081E0898349C019827B
:101FB00047C0E6E3F0E08081282F30E08C81882F55
:101FC00090E0A90102C0559547958A95E2F7CA01AC
:101FD00081709070882319F081E0898331C0198263
:101FE0002FC0E3E3F0E08081282F30E08C81882F40
:101FF00090E0A90102C0559547958A95E2F7CA017C
:1020000081709070882319F081E0898319C019824A
:1020100017C0E0E3F0E08081282F30E08C81882F2A
:1020200090E0A90102C0559547958A95E2F7CA014B
:1020300081709070882319F081E0898301C0198232
:102040001A82898126960FB6F894DEBF0FBECDBFE7
:10205000CF91DF910895DF93CF9300D000D00F92FE
:10206000CDB7DEB78A836B8319828B81883018F0F5
:1020700081E0898375C08A81843018F082E0898389
:102080006FC08A81282F30E03D832C838C819D8115
:102090008130910549F12C813D81223031052CF4AC
:1020A0008C819D81009761F05AC02C813D81223046
:1020B000310571F18C819D8183309105E9F14FC02B
:1020C000ABE3B0E0EBE3F0E08081482F8B81282F79
:1020D00030E081E090E0022E02C0880F991F0A9440
:1020E000E2F784278C933BC0A8E3B0E0E8E3F0E09C
:1020F0008081482F8B81282F30E081E090E0022EF4
:1021000002C0880F991F0A94E2F784278C9327C096
:10211000A5E3B0E0E5E3F0E08081482F8B81282F34
:1021200030E081E090E0022E02C0880F991F0A94EF
:10213000E2F784278C9313C0A2E3B0E0E2E3F0E07F
:102140008081482F8B81282F30E081E090E0022EA3
:1021500002C0880F991F0A94E2F784278C93198292
:1021600089810F900F900F900F900F90CF91DF917A
:102170000895DF93CF9300D000D00F92CDB7DEB794
:102180008A836B8319828A81843018F082E0898384
:102190003CC08B81882331F08B818F3F19F083E025
:1021A000898333C08A81282F30E03D832C838C8142
:1021B0009D8181309105D1F02C813D812230310506
:1021C0002CF48C819D81009761F01EC02C813D8193
:1021D0002230310581F08C819D818330910581F021
:1021E00013C0EAE3F0E08B8180830EC0E7E3F0E008
:1021F0008B81808309C0E4E3F0E08B81808304C09D
:10220000E1E3F0E08B818083198289810F900F9048
:102210000F900F900F90CF91DF910895DF93CF93A0
:1022200000D000D00F92CDB7DEB78A836B831982BE
:102230008A81843018F082E0898333C08A81282F14
:1022400030E03D832C838C819D8181309105D1F0DC
:102250002C813D81223031052CF48C819D810097A9
:1022600061F01EC02C813D812230310581F08C81CE
:102270009D818330910581F013C0EBE3F0E08B8109
:1022800080830EC0E8E3F0E08B81808309C0E5E342
:10229000F0E08B81808304C0E2E3F0E08B818083F7
:1022A000198289810F900F900F900F900F90CF910E
:1022B000DF910895DF93CF9300D000D00F92CDB778
:1022C000DEB78B831A8219828B81843018F082E00A
:1022D000898333C08B81282F30E03D832C838C8110
:1022E0009D8181309105D1F02C813D8122303105D5
:1022F0002CF48C819D81009761F01EC02C813D8162
:102300002230310581F08C819D818330910581F0EF
:1023100013C0EBE3F0E080818A830EC0E8E3F0E0D5
:1023200080818A8309C0E5E3F0E080818A8304C06C
:10233000E2E3F0E080818A8319828A810F900F9016
:102340000F900F900F90CF91DF910895DF93CF936F
:10235000CDB7DEB7AFE5B0E0EFE5F0E080818068B3
:102360008C93CF91DF910895DF93CF93CDB7DEB7F4
:10237000AFE5B0E0EFE5F0E080818F778C93CF910F
:10238000DF910895DF93CF9300D000D0CDB7DEB7B3
:1023900089836A838981282F30E03C832B838B815A
:1023A0009C818230910509F455C02B813C812330FA
:1023B000310509F497C08B819C818130910509F02A
:1023C000A6C08A81882379F4A5E5B0E0E5E5F0E0D0
:1023D00080818D7F8C93A5E5B0E0E5E5F0E080811C
:1023E0008E7F8C9394C08A81813079F4A5E5B0E02A
:1023F000E5E5F0E080818D7F8C93A5E5B0E0E5E533
:10240000F0E0808181608C9382C08A81823079F48F
:10241000A5E5B0E0E5E5F0E0808182608C93A5E57C
:10242000B0E0E5E5F0E080818E7F8C9370C08A811A
:10243000833009F06CC0A5E5B0E0E5E5F0E080810F
:1024400082608C93A5E5B0E0E5E5F0E080818160F5
:102450008C935DC08A81882379F4A5E5B0E0E5E539
:10246000F0E08081877F8C93A5E5B0E0E5E5F0E0C2
:1024700080818B7F8C934BC08A81813079F4A5E574
:10248000B0E0E5E5F0E08081877F8C93A5E5B0E0E2
:10249000E5E5F0E0808184608C9339C08A818230E8
:1024A00079F4A5E5B0E0E5E5F0E0808188608C9303
:1024B000A5E5B0E0E5E5F0E080818B7F8C9327C057
:1024C0008A81833021F5A5E5B0E0E5E5F0E0808183
:1024D00088608C93A5E5B0E0E5E5F0E0808184605C
:1024E0008C9315C08A81882341F4A4E5B0E0E4E52B
:1024F000F0E080818F7B8C930AC08A81813039F42F
:10250000A4E5B0E0E4E5F0E0808180648C930F9076
:102510000F900F900F90CF91DF910895DF93CF939D
:1025200000D000D00F92CDB7DEB789837B836A835A
:102530008981282F30E03D832C838C819D818230DE
:102540009105C1F02C813D812330310509F18C8149
:102550009D818130910551F5ABE5B0E0EBE5F0E010
:10256000808180648C938A819B819093CE0180933B
:10257000CD0129C0ABE5B0E0EBE5F0E080818068FB
:102580008C938A819B819093D0018093CF011BC053
:10259000ABE5B0E0EBE5F0E0808180628C938A816E
:1025A0009B819093CC018093CB010DC0ABE5B0E053
:1025B000EBE5F0E0808180648C938A819B8190932D
:1025C000CE018093CD010F900F900F900F900F9040
:1025D000CF91DF910895DF93CF9300D00F92CDB7C5
:1025E000DEB789838981282F30E03B832A838A8163
:1025F0009B818230910591F02A813B812330310506
:10260000A9F08A819B8181309105C1F4ABE5B0E0EE
:10261000EBE5F0E080818F7B8C9317C0ABE5B0E0F9
:10262000EBE5F0E080818F778C930FC0ABE5B0E0F5
:10263000EBE5F0E080818F7D8C9307C0ABE5B0E0E7
:10264000EBE5F0E080818F7B8C930F900F900F90E3
:10265000CF91DF9108951F920F920FB60F92112420
:102660002F933F934F935F936F937F938F939F939A
:10267000AF93BF93EF93FF93DF93CF93CDB7DEB7C5
:102680008091CD019091CE01009729F0E091CD018C
:10269000F091CE010995CF91DF91FF91EF91BF911C
:1026A000AF919F918F917F916F915F914F913F91EA
:1026B0002F910F900FBE0F901F9018951F920F92A1
:1026C0000FB60F9211242F933F934F935F936F9305
:1026D0007F938F939F93AF93BF93EF93FF93DF937A
:1026E000CF93CDB7DEB78091CF019091D001009705
:1026F00029F0E091CF01F091D0010995CF91DF91C0
:10270000FF91EF91BF91AF919F918F917F916F91C9
:102710005F914F913F912F910F900FBE0F901F909F
:1027200018951F920F920FB60F9211242F933F937B
:102730004F935F936F937F938F939F93AF93BF93C9
:10274000EF93FF93DF93CF93CDB7DEB78091CB01AB
:102750009091CC01009729F0E091CB01F091CC0150
:102760000995CF91DF91FF91EF91BF91AF919F912B
:102770008F917F916F915F914F913F912F910F902A
:102780000FBE0F901F901895DF93CF93CDB7DEB794
:10279000E7E2F0E080818F7380648083E7E2F0E01D
:1027A00080818F7D8083E6E2F0E080818068808395
:1027B000E6E2F0E0808187608083E6E2F0E08081FD
:1027C0008F7D8083E0E5F0E080818F718083CF9101
:1027D000DF910895DF93CF930F92CDB7DEB7898352
:1027E000E7E2F0E089818F71982F9F718081807E70
:1027F000892B8083E6E2F0E0808180648083E6E2DA
:10280000F0E0808180718823D1F3E6E2F0E08081FE
:1028100080618083E4E2F0E0808191810F90CF912C
:10282000DF910895DF93CF930F92CDB7DEB7898301
:10283000E7E2F0E089818F71982F9F718081807E1F
:10284000892B8083E6E2F0E0808180648083E6E289
:10285000F0E08081886080830F90CF91DF910895B0
:10286000DF93CF9300D0CDB7DEB79A838983898178
:102870009A819093D2018093D1010F900F90CF91C4
:10288000DF9108951F920F920FB60F9211242F938C
:102890003F934F935F936F937F938F939F93AF93E8
:1028A000BF93EF93FF93DF93CF93CDB7DEB78091C4
:1028B000D1019091D201009729F0E091D101F091DE
:1028C000D2010995CF91DF91FF91EF91BF91AF9127
:1028D0009F918F917F916F915F914F913F912F9138
:1028E0000F900FBE0F901F901895DF93CF9300D0DD
:1028F000CDB7DEB78A8319828A81843018F082E0EE
:1029000089831FC080E062E041E00E94910D80E079
:1029100063E041E00E94910D8A8160E041E00E9405
:10292000910D8A8161E041E00E94910D8A8162E00F
:1029300041E00E94910D8A8164E041E00E94910D86
:10294000198289810F900F90CF91DF910895DF93C5
:10295000CF9300D000D00F92CDB7DEB78A836B83C0
:1029600019828A81843018F082E0898324C18B81A6
:10297000282F30E03D832C838C819D81843091050C
:1029800009F49BC02C813D8125303105ECF48C810C
:102990009D818130910509F451C02C813D81223007
:1029A00031052CF48C819D81009799F103C12C8114
:1029B0003D812230310509F456C08C819D818330E0
:1029C000910509F465C0F6C02C813D8127303105A1
:1029D00009F4B2C08C819D81883091056CF42C8102
:1029E0003D812530310509F47DC08C819D81863083
:1029F000910509F48CC0DEC02C813D812830310561
:102A000009F4AFC08C819D818930910509F4BEC065
:102A1000D1C08A8160E040E00E948D0E8A8161E031
:102A200040E00E948D0E8A8162E040E00E948D0E9F
:102A30008A8164E040E00E948D0EBCC08A8160E023
:102A400041E00E948D0E8A8161E040E00E948D0E7F
:102A50008A8162E040E00E948D0E8A8164E040E05D
:102A60000E948D0EA7C08A8160E040E00E948D0E1A
:102A70008A8161E041E00E948D0E8A8162E040E03F
:102A80000E948D0E8A8164E040E00E948D0E92C00B
:102A90008A8160E041E00E948D0E8A8161E041E020
:102AA0000E948D0E8A8162E040E00E948D0E8A8134
:102AB00064E040E00E948D0E7DC08A8160E040E0CD
:102AC0000E948D0E8A8161E040E00E948D0E8A8115
:102AD00062E041E00E948D0E8A8164E040E00E9445
:102AE0008D0E68C08A8160E041E00E948D0E8A816F
:102AF00061E040E00E948D0E8A8162E041E00E9428
:102B00008D0E8A8164E040E00E948D0E53C08A8160
:102B100060E040E00E948D0E8A8161E041E00E9409
:102B20008D0E8A8162E041E00E948D0E8A8164E010
:102B300040E00E948D0E3EC08A8160E041E00E942C
:102B40008D0E8A8161E041E00E948D0E8A8162E0F3
:102B500041E00E948D0E8A8164E040E00E948D0E6B
:102B600029C08A8160E040E00E948D0E8A8161E088
:102B700040E00E948D0E8A8162E040E00E948D0E4E
:102B80008A8164E041E00E948D0E14C08A8160E079
:102B900041E00E948D0E8A8161E040E00E948D0E2E
:102BA0008A8162E040E00E948D0E8A8164E041E00B
:102BB0000E948D0E198289810F900F900F900F90B7
:102BC0000F90CF91DF910895DF93CF93CDB7DEB70C
:102BD0000E94580880E29EE40E94DB080E94C41311
:102BE000CF91DF910895DF93CF93CDB7DEB781E02A
:102BF0000E94EA139093B7018093B6018091B601C9
:102C00009091B7010E942C169093B9018093B8015E
:102C10008091B8019091B9010E94BB089093BB01CB
:102C20008093BA0181E060E00E943C2280E690E05F
:102C30000E94132281E067E00E943C228091BA0149
:102C40009091BB01CC01A0E0B0E0BC01CD010E949D
:102C50007E22CF91DF910895DF93CF9300D000D0F3
:102C6000CDB7DEB79C838B834B815C81CA019C010D
:102C7000220F331FC9019695982F8827979587951E
:102C8000821B930B840F951F24E630E0B9010E944C
:102C9000EB23CB019A83898389819A810F900F90CE
:102CA0000F900F90CF91DF910895DF93CF93CDB721
:102CB000DEB72F970FB6F894DEBF0FBECDBF1F86CD
:102CC00082E00E94EA1380E090E0A0EAB0E48B8703
:102CD0009C87AD87BE876B857C858D859E8520E032
:102CE00030E04AE755E40E941F02DC01CB018F83EC
:102CF0009887A987BA876F81788589859A8520E02A
:102D000030E040E85FE30E94550488232CF481E022
:102D100090E09E838D833FC06F81788589859A85F9
:102D200020E03FEF4FE757E40E94F50318164CF5FB
:102D30006B857C858D859E8520E030E040E251E406
:102D40000E941F02DC01CB01BC01CD010E944900A1
:102D5000DC01CB019E838D830FC080E991E09C83D1
:102D60008B838B819C810197F1F79C838B838D8171
:102D70009E8101979E838D838D819E81009769F747
:102D800014C06F81788589859A850E944900DC018D
:102D9000CB019E838D838D819E819A8389838981D6
:102DA0009A810197F1F79A8389831F868F852F96E1
:102DB0000FB6F894DEBF0FBECDBFCF91DF9108955F
:102DC000DF93CF9300D00F92CDB7DEB78A836B83AA
:102DD00019828B81883018F081E089830CC08A8148
:102DE000843018F082E0898306C08A816B8141E0DB
:102DF0000E94910D198289810F900F900F90CF91B1
:102E0000DF910895DF93CF9300D00F92CDB7DEB757
:102E10008A836B8319828B81883018F081E08983E3
:102E20000CC08A81843018F082E0898306C08A81D0
:102E30006B8141E00E948D0E198289810F900F9065
:102E40000F90CF91DF910895DF93CF9300D00F9231
:102E5000CDB7DEB78A836B8319828B81883018F0F7
:102E600081E089830CC08A81843018F082E08983F4
:102E700006C08A816B8140E00E948D0E1982898193
:102E80000F900F900F90CF91DF910895DF93CF9324
:102E900000D00F92CDB7DEB78A836B8319828B8106
:102EA000883018F081E089830BC08A81843018F063
:102EB00082E0898305C08A816B810E942B10198270
:102EC00089810F900F900F90CF91DF910895DF933C
:102ED000CF93CDB7DEB7E8970FB6F894DEBF0FBE3D
:102EE000CDBF80E063E041E00E94910D80E062E0B0
:102EF00041E00E94910D80E090E0A0EAB1E48DAB4A
:102F00009EABAFABB8AF6DA97EA98FA998AD20E0FD
:102F100030E04AE755E40E941F02DC01CB0189AB97
:102F20009AABABABBCAB69A97AA98BA99CA920E0F1
:102F300030E040E85FE30E94550488232CF481E0F0
:102F400090E098AB8FA73FC069A97AA98BA99CA9EB
:102F500020E03FEF4FE757E40E94F50318164CF5C9
:102F60006DA97EA98FA998AD20E030E040E251E440
:102F70000E941F02DC01CB01BC01CD010E9449006F
:102F8000DC01CB0198AB8FA70FC080E991E09EA731
:102F90008DA78DA59EA50197F1F79EA78DA78FA55B
:102FA00098A9019798AB8FA78FA598A9009769F763
:102FB00014C069A97AA98BA99CA90E944900DC01C7
:102FC000CB0198AB8FA78FA598A99CA78BA78BA5A2
:102FD0009CA50197F1F79CA78BA781E060E041E0F9
:102FE0000E94910D81E061E041E00E94910D81E03D
:102FF00062E041E00E94910D81E064E041E00E94C6
:10300000910D83E30E946F1982E30E946F1988E299
:103010000E946F1980E090E0A0E0B0E48FA398A731
:10302000A9A7BAA76FA178A589A59AA520E030E045
:103030004AE755E40E941F02DC01CB018BA39CA34D
:10304000ADA3BEA36BA17CA18DA19EA120E030E029
:1030500040E85FE30E94550488232CF481E090E06F
:103060009AA389A33FC06BA17CA18DA19EA120E062
:103070003FEF4FE757E40E94F50318164CF56FA198
:1030800078A589A59AA520E030E040E251E40E94AD
:103090001F02DC01CB01BC01CD010E944900DC0113
:1030A000CB019AA389A30FC080E991E098A38F8FE9
:1030B0008F8D98A10197F1F798A38F8F89A19AA17D
:1030C00001979AA389A389A19AA1009769F714C0CF
:1030D0006BA17CA18DA19EA10E944900DC01CB01C6
:1030E0009AA389A389A19AA19E8F8D8F8D8D9E8D84
:1030F0000197F1F79E8F8D8F8CE00E946F1980E011
:1031000090E0A0E0B0E4898F9A8FAB8FBC8F698D7F
:103110007A8D8B8D9C8D20E030E04AE755E40E944B
:103120001F02DC01CB018D8B9E8BAF8BB88F6D891D
:103130007E898F89988D20E030E040E85FE30E942F
:10314000550488232CF481E090E09C8B8B8B3FC04E
:103150006D897E898F89988D20E03FEF4FE757E496
:103160000E94F50318164CF5698D7A8D8B8D9C8D18
:1031700020E030E040E251E40E941F02DC01CB017C
:10318000BC01CD010E944900DC01CB019C8B8B8BE3
:103190000FC080E991E09A8B898B89899A89019780
:1031A000F1F79A8B898B8B899C8901979C8B8B8BF0
:1031B0008B899C89009769F714C06D897E898F89F6
:1031C000988D0E944900DC01CB019C8B8B8B8B89F5
:1031D0009C89988B8F878F8598890197F1F7988BB9
:1031E0008F8781E00E946F1980E090E0A0E0B0E45A
:1031F0008B879C87AD87BE876B857C858D859E85FB
:1032000020E030E04AE755E40E941F02DC01CB01D8
:103210008F839887A987BA876F81788589859A85F2
:1032200020E030E040E85FE30E94550488232CF45E
:1032300081E090E09E838D833FC06F817885898592
:103240009A8520E03FEF4FE757E40E94F5031816F8
:103250004CF56B857C858D859E8520E030E040E2D5
:1032600051E40E941F02DC01CB01BC01CD010E9490
:103270004900DC01CB019E838D830FC080E991E082
:103280009C838B838B819C810197F1F79C838B833B
:103290008D819E8101979E838D838D819E81009774
:1032A00069F714C06F81788589859A850E944900E5
:1032B000DC01CB019E838D838D819E819A838983DE
:1032C00089819A810197F1F79A838983E8960FB6ED
:1032D000F894DEBF0FBECDBFCF91DF9108950F935D
:1032E0001F93DF93CF93CDB7DEB7C356D0400FB651
:1032F000F894DEBF0FBECDBFFE01ED59FF4F8083B6
:1033000080E063E040E00E948D0EFE01E15AFF4F35
:1033100080E090E0A0E8BFE380839183A283B38341
:103320008E01055A1F4FFE01E15AFF4F60817181E6
:103330008281938120E030E04AE755E40E941F0239
:10334000DC01CB01F80180839183A283B383FE016A
:10335000E55AFF4F608171818281938120E030E0E6
:1033600040E85FE30E945504882344F4FE01E75AD5
:10337000FF4F81E090E09183808364C0FE01E55AB5
:10338000FF4F608171818281938120E03FEF4FE7A1
:1033900057E40E94F50318160CF043C0FE01E15AF1
:1033A000FF4F608171818281938120E030E040E2B3
:1033B00051E40E941F02DC01CB018E01075A1F4F0E
:1033C000BC01CD010E944900DC01CB01F8019183D1
:1033D00080831FC0FE01E95AFF4F80E991E091838D
:1033E0008083FE01E95AFF4F808191810197F1F7B7
:1033F000FE01E95AFF4F91838083DE01A75ABF4F38
:10340000FE01E75AFF4F80819181019711969C93AD
:103410008E93FE01E75AFF4F808191810097D1F68C
:1034200027C08E01075A1F4FFE01E55AFF4F6081EA
:103430007181828193810E944900DC01CB01F801F6
:1034400091838083DE01AB5ABF4FFE01E75AFF4FE5
:10345000808191818D939C93FE01EB5AFF4F808177
:1034600091810197F1F7FE01EB5AFF4F9183808321
:1034700080E062E041E00E948D0EFE01EF5AFF4FB6
:1034800080E090E0A0E8BFE380839183A283B383D0
:103490008E01035B1F4FFE01EF5AFF4F6081718168
:1034A0008281938120E030E04AE755E40E941F02C8
:1034B000DC01CB01F80180839183A283B383FE01F9
:1034C000E35BFF4F608171818281938120E030E076
:1034D00040E85FE30E945504882344F4FE01E55B65
:1034E000FF4F81E090E09183808364C0FE01E35B45
:1034F000FF4F608171818281938120E03FEF4FE730
:1035000057E40E94F50318160CF043C0FE01EF5A71
:10351000FF4F608171818281938120E030E040E241
:1035200051E40E941F02DC01CB018E01055B1F4F9D
:10353000BC01CD010E944900DC01CB01F80191835F
:1035400080831FC0FE01E75BFF4F80E991E091831C
:103550008083FE01E75BFF4F808191810197F1F746
:10356000FE01E75BFF4F91838083DE01A55BBF4FC8
:10357000FE01E55BFF4F80819181019711969C933D
:103580008E93FE01E55BFF4F808191810097D1F61C
:1035900027C08E01055B1F4FFE01E35BFF4F60817B
:1035A0007181828193810E944900DC01CB01F80185
:1035B00091838083DE01A95BBF4FFE01E55BFF4F76
:1035C000808191818D939C93FE01E95BFF4F808107
:1035D00091810197F1F7FE01E95BFF4F91838083B1
:1035E000FE01ED59FF4F808182958F70982F917069
:1035F00081E060E0492F0E948D0EFE01ED59FF4FE2
:103600008081829586958770982F917081E061E026
:10361000492F0E948D0EFE01ED59FF4F808182954A
:10362000869586958370982F917081E062E0492F8E
:103630000E948D0EFE01ED59FF4F8081982F991F3A
:103640009927991F81E064E0492F0E948D0EFE01A9
:10365000ED5BFF4F80E090E0A0E8BFE380839183C3
:10366000A283B3838E01015C1F4FFE01ED5BFF4F10
:10367000608171818281938120E030E04AE755E4E6
:103680000E941F02DC01CB01F80180839183A28399
:10369000B383FE01FF96608171818281938120E076
:1036A00030E040E85FE30E94550488232CF481E079
:1036B00090E09EAF8DAF46C0FE01FF9660817181A4
:1036C0008281938120E03FEF4FE757E40E94F503AA
:1036D000181664F5FE01ED5BFF4F608171818281F8
:1036E000938120E030E040E251E40E941F02DC01BF
:1036F000CB01BC01CD010E944900DC01CB019EAF92
:103700008DAF0FC080E991E09CAF8BAF8BAD9CADCE
:103710000197F1F79CAF8BAF8DAD9EAD01979EAF3A
:103720008DAF8DAD9EAD009769F716C0FE01FF9677
:1037300060817181828193810E944900DC01CB010B
:103740009EAF8DAF8DAD9EAD9AAF89AF89AD9AAD6D
:103750000197F1F79AAF89AF80E062E040E00E9404
:103760008D0E80E090E0A0E8BFE38DAB9EABAFABE9
:10377000B8AF6DA97EA98FA998AD20E030E04AE7E7
:1037800055E40E941F02DC01CB0189AB9AABABABC5
:10379000BCAB69A97AA98BA99CA920E030E040E8DC
:1037A0005FE30E94550488232CF481E090E098ABFD
:1037B0008FA73FC069A97AA98BA99CA920E03FEFF8
:1037C0004FE757E40E94F50318164CF56DA97EA942
:1037D0008FA998AD20E030E040E251E40E941F0242
:1037E000DC01CB01BC01CD010E944900DC01CB0111
:1037F00098AB8FA70FC080E991E09EA78DA78DA5FC
:103800009EA50197F1F79EA78DA78FA598A901976F
:1038100098AB8FA78FA598A9009769F714C069A9DD
:103820007AA98BA99CA90E944900DC01CB0198AB25
:103830008FA78FA598A99CA78BA78BA59CA501975F
:10384000F1F79CA78BA780E062E041E00E948D0E1B
:1038500080E090E0A0E8BFE38FA398A7A9A7BAA74C
:103860006FA178A589A59AA520E030E04AE755E444
:103870000E941F02DC01CB018BA39CA3ADA3BEA3BE
:103880006BA17CA18DA19EA120E030E040E85FE328
:103890000E94550488232CF481E090E09AA389A328
:1038A0003FC06BA17CA18DA19EA120E03FEF4FE71F
:1038B00057E40E94F50318164CF56FA178A589A569
:1038C0009AA520E030E040E251E40E941F02DC01B2
:1038D000CB01BC01CD010E944900DC01CB019AA3C0
:1038E00089A30FC080E991E098A38F8F8F8D98A155
:1038F0000197F1F798A38F8F89A19AA101979AA3B5
:1039000089A389A19AA1009769F714C06BA17CA132
:103910008DA19EA10E944900DC01CB019AA389A33D
:1039200089A19AA19E8F8D8F8D8D9E8D0197F1F724
:103930009E8F8D8FFE01ED59FF4F8081982F9170E2
:1039400081E060E0492F0E948D0EFE01ED59FF4F8E
:1039500080818695982F917081E061E0492F0E94C7
:103960008D0EFE01ED59FF4F808186958695982F2B
:10397000917081E062E0492F0E948D0EFE01ED59A9
:10398000FF4F8081869586958695982F917081E06E
:1039900064E0492F0E948D0E80E090E0A0E8BFE334
:1039A000898F9A8FAB8FBC8F698D7A8D8B8D9C8D13
:1039B00020E030E04AE755E40E941F02DC01CB0121
:1039C0008D8B9E8BAF8BB88F6D897E898F89988DFB
:1039D00020E030E040E85FE30E94550488232CF4A7
:1039E00081E090E09C8B8B8B3FC06D897E898F89B5
:1039F000988D20E03FEF4FE757E40E94F50318163B
:103A00004CF5698D7A8D8B8D9C8D20E030E040E205
:103A100051E40E941F02DC01CB01BC01CD010E94D8
:103A20004900DC01CB019C8B8B8B0FC080E991E0BE
:103A30009A8B898B89899A890197F1F79A8B898B5F
:103A40008B899C8901979C8B8B8B8B899C89009798
:103A500069F714C06D897E898F89988D0E9449000D
:103A6000DC01CB019C8B8B8B8B899C89988B8F87FE
:103A70008F8598890197F1F7988B8F8780E062E0B6
:103A800040E00E948D0E80E090E0A0E8BFE38B87CD
:103A90009C87AD87BE876B857C858D859E8520E064
:103AA00030E04AE755E40E941F02DC01CB018F831E
:103AB0009887A987BA876F81788589859A8520E05C
:103AC00030E040E85FE30E94550488232CF481E055
:103AD00090E09E838D833FC06F81788589859A852C
:103AE00020E03FEF4FE757E40E94F50318164CF52E
:103AF0006B857C858D859E8520E030E040E251E439
:103B00000E941F02DC01CB01BC01CD010E944900D3
:103B1000DC01CB019E838D830FC080E991E09C8303
:103B20008B838B819C810197F1F79C838B838D81A3
:103B30009E8101979E838D838D819E81009769F779
:103B400014C06F81788589859A850E944900DC01BF
:103B5000CB019E838D838D819E819A838983898108
:103B60009A810197F1F79A838983CD59DF4F0FB678
:103B7000F894DEBF0FBECDBFCF91DF911F910F91A3
:103B800008950F931F93DF93CF93CDB7DEB7C3563E
:103B9000D0400FB6F894DEBF0FBECDBFFE01ED5989
:103BA000FF4F808380E063E041E00E948D0EFE01C4
:103BB000E15AFF4F80E090E0A0E8BFE3808391836B
:103BC000A283B3838E01055A1F4FFE01E15AFF4FB6
:103BD000608171818281938120E030E04AE755E481
:103BE0000E941F02DC01CB01F80180839183A28334
:103BF000B383FE01E55AFF4F608171818281938119
:103C000020E030E040E85FE30E945504882344F45C
:103C1000FE01E75AFF4F81E090E09183808364C00A
:103C2000FE01E55AFF4F608171818281938120E01E
:103C30003FEF4FE757E40E94F50318160CF043C01E
:103C4000FE01E15AFF4F608171818281938120E002
:103C500030E040E251E40E941F02DC01CB018E0102
:103C6000075A1F4FBC01CD010E944900DC01CB0166
:103C7000F801918380831FC0FE01E95AFF4F80E95C
:103C800091E091838083FE01E95AFF4F8081918109
:103C90000197F1F7FE01E95AFF4F91838083DE011E
:103CA000A75ABF4FFE01E75AFF4F808191810197CC
:103CB00011969C938E93FE01E75AFF4F808191816C
:103CC0000097D1F627C08E01075A1F4FFE01E55A13
:103CD000FF4F60817181828193810E944900DC01E4
:103CE000CB01F80191838083DE01AB5ABF4FFE0107
:103CF000E75AFF4F808191818D939C93FE01EB5A8F
:103D0000FF4F808191810197F1F7FE01EB5AFF4F40
:103D10009183808380E062E041E00E948D0EFE018D
:103D2000EF5AFF4F80E090E0A0E8BFE380839183EB
:103D3000A283B3838E01035B1F4FFE01EF5AFF4F37
:103D4000608171818281938120E030E04AE755E40F
:103D50000E941F02DC01CB01F80180839183A283C2
:103D6000B383FE01E35BFF4F6081718182819381A8
:103D700020E030E040E85FE30E945504882344F4EB
:103D8000FE01E55BFF4F81E090E09183808364C09A
:103D9000FE01E35BFF4F608171818281938120E0AE
:103DA0003FEF4FE757E40E94F50318160CF043C0AD
:103DB000FE01EF5AFF4F608171818281938120E083
:103DC00030E040E251E40E941F02DC01CB018E0191
:103DD000055B1F4FBC01CD010E944900DC01CB01F6
:103DE000F801918380831FC0FE01E75BFF4F80E9EC
:103DF00091E091838083FE01E75BFF4F8081918199
:103E00000197F1F7FE01E75BFF4F91838083DE01AD
:103E1000A55BBF4FFE01E55BFF4F8081918101975C
:103E200011969C938E93FE01E55BFF4F80819181FB
:103E30000097D1F627C08E01055B1F4FFE01E35BA3
:103E4000FF4F60817181828193810E944900DC0172
:103E5000CB01F80191838083DE01A95BBF4FFE0196
:103E6000E55BFF4F808191818D939C93FE01E95B1F
:103E7000FF4F808191810197F1F7FE01E95BFF4FD0
:103E800091838083FE01ED59FF4F808182958F7071
:103E9000982F917081E060E0492F0E948D0EFE0105
:103EA000ED59FF4F8081829586958770982F91708C
:103EB00081E061E0492F0E948D0EFE01ED59FF4F18
:103EC00080818295869586958370982F917081E088
:103ED00062E0492F0E948D0EFE01ED59FF4F808157
:103EE000982F991F9927991F81E064E0492F0E941C
:103EF0008D0EFE01ED5BFF4F80E090E0A0E8BFE398
:103F000080839183A283B3838E01015C1F4FFE01E6
:103F1000ED5BFF4F608171818281938120E030E011
:103F20004AE755E40E941F02DC01CB01F8018083BF
:103F30009183A283B383FE01FF96608171818281A8
:103F4000938120E030E040E85FE30E94550488233D
:103F50002CF481E090E09EAF8DAF46C0FE01FF964D
:103F6000608171818281938120E03FEF4FE757E4C8
:103F70000E94F503181664F5FE01ED5BFF4F6081AA
:103F800071818281938120E030E040E251E40E941F
:103F90001F02DC01CB01BC01CD010E944900DC0104
:103FA000CB019EAF8DAF0FC080E991E09CAF8BAF8E
:103FB0008BAD9CAD0197F1F79CAF8BAF8DAD9EADF6
:103FC00001979EAF8DAF8DAD9EAD009769F716C07E
:103FD000FE01FF9660817181828193810E94490078
:103FE000DC01CB019EAF8DAF8DAD9EAD9AAF89AF99
:103FF00089AD9AAD0197F1F79AAF89AF80E062E0A1
:1040000040E00E948D0E80E090E0A0E8BFE38DAB21
:104010009EABAFABB8AF6DA97EA98FA998AD20E0DC
:1040200030E04AE755E40E941F02DC01CB0189AB76
:104030009AABABABBCAB69A97AA98BA99CA920E0D0
:1040400030E040E85FE30E94550488232CF481E0CF
:1040500090E098AB8FA73FC069A97AA98BA99CA9CA
:1040600020E03FEF4FE757E40E94F50318164CF5A8
:104070006DA97EA98FA998AD20E030E040E251E41F
:104080000E941F02DC01CB01BC01CD010E9449004E
:10409000DC01CB0198AB8FA70FC080E991E09EA710
:1040A0008DA78DA59EA50197F1F79EA78DA78FA53A
:1040B00098A9019798AB8FA78FA598A9009769F742
:1040C00014C069A97AA98BA99CA90E944900DC01A6
:1040D000CB0198AB8FA78FA598A99CA78BA78BA581
:1040E0009CA50197F1F79CA78BA780E062E041E0D7
:1040F0000E948D0E80E090E0A0E8BFE38FA398A718
:10410000A9A7BAA76FA178A589A59AA520E030E054
:104110004AE755E40E941F02DC01CB018BA39CA35C
:10412000ADA3BEA36BA17CA18DA19EA120E030E038
:1041300040E85FE30E94550488232CF481E090E07E
:104140009AA389A33FC06BA17CA18DA19EA120E071
:104150003FEF4FE757E40E94F50318164CF56FA1A7
:1041600078A589A59AA520E030E040E251E40E94BC
:104170001F02DC01CB01BC01CD010E944900DC0122
:10418000CB019AA389A30FC080E991E098A38F8FF8
:104190008F8D98A10197F1F798A38F8F89A19AA18C
:1041A00001979AA389A389A19AA1009769F714C0DE
:1041B0006BA17CA18DA19EA10E944900DC01CB01D5
:1041C0009AA389A389A19AA19E8F8D8F8D8D9E8D93
:1041D0000197F1F79E8F8D8FFE01ED59FF4F808182
:1041E000982F917081E060E0492F0E948D0EFE01B2
:1041F000ED59FF4F80818695982F917081E061E0A5
:10420000492F0E948D0EFE01ED59FF4F808186954A
:104210008695982F917081E062E0492F0E948D0E63
:10422000FE01ED59FF4F8081869586958695982FE2
:10423000917081E064E0492F0E948D0E80E090E053
:10424000A0E8BFE3898F9A8FAB8FBC8F698D7A8D81
:104250008B8D9C8D20E030E04AE755E40E941F02E0
:10426000DC01CB018D8B9E8BAF8BB88F6D897E89E6
:104270008F89988D20E030E040E85FE30E9455048C
:1042800088232CF481E090E09C8B8B8B3FC06D8960
:104290007E898F89988D20E03FEF4FE757E40E9499
:1042A000F50318164CF5698D7A8D8B8D9C8D20E069
:1042B00030E040E251E40E941F02DC01CB01BC016E
:1042C000CD010E944900DC01CB019C8B8B8B0FC080
:1042D00080E991E09A8B898B89899A890197F1F716
:1042E0009A8B898B8B899C8901979C8B8B8B8B8973
:1042F0009C89009769F714C06D897E898F89988D94
:104300000E944900DC01CB019C8B8B8B8B899C89A3
:10431000988B8F878F8598890197F1F7988B8F8776
:1043200080E062E040E00E948D0E80E090E0A0E836
:10433000BFE38B879C87AD87BE876B857C858D852A
:104340009E8520E030E04AE755E40E941F02DC0130
:10435000CB018F839887A987BA876F8178858985F4
:104360009A8520E030E040E85FE30E94550488230E
:104370002CF481E090E09E838D833FC06F8178852F
:1043800089859A8520E03FEF4FE757E40E94F503C7
:1043900018164CF56B857C858D859E8520E030E078
:1043A00040E251E40E941F02DC01CB01BC01CD01BF
:1043B0000E944900DC01CB019E838D830FC080E900
:1043C00091E09C838B838B819C810197F1F79C8387
:1043D0008B838D819E8101979E838D838D819E81AC
:1043E000009769F714C06F81788589859A850E9446
:1043F0004900DC01CB019E838D838D819E819A8350
:10440000898389819A810197F1F79A838983CD59AC
:10441000DF4F0FB6F894DEBF0FBECDBFCF91DF9157
:104420001F910F910895DF93CF9300D00F92CDB7D6
:10443000DEB79B838A8319820EC08981282F30E0E2
:104440008A819B81FC01E20FF31F80810E94C11DC4
:1044500089818F5F89838981282F30E08A819B81C0
:10446000FC01E20FF31F8081882339F70F900F9032
:104470000F90CF91DF910895DF93CF9300D000D0BC
:104480000F92CDB7DEB78A836B838A81282F30E005
:104490003D832C838C819D8181309105C1F02C81DD
:1044A0003D81223031052CF48C819D81009761F093
:1044B00019C02C813D812230310569F08C819D81AC
:1044C0008330910561F00EC08B8189830BC08B8195
:1044D000805C898307C08B81805F898303C08B8167
:1044E000805B8983898180680E946F190F900F908B
:1044F0000F900F900F90CF91DF910895DF93CF939E
:10450000CDB7DEB764970FB6F894DEBF0FBECDBF50
:10451000698B7A8B8B8B9C8B89899A899E012F5F03
:104520003F4FB9014AE050E00E945824CE01019665
:104530000E94132264960FB6F894DEBF0FBECDBF63
:10454000CF91DF910895DF93CF93CDB7DEB781E0B0
:104550000E946F19CF91DF910895DF93CF9300D020
:10456000CDB7DEB71A8229C08A81882F90E0FC017E
:10457000E157FE4F20818A81882F90E0FC01ED56A3
:10458000FE4F9081822F692F41E00E94910D8A8118
:10459000882F90E0FC01E157FE4F20818A81882F0F
:1045A00090E0FC01ED56FE4F9081822F692F41E093
:1045B0000E948D0E8A818F5F8A838A818430A0F267
:1045C000198216C08981882F90E0FC01E956FE4FC0
:1045D00020818981882F90E0FC01E556FE4F908173
:1045E000822F692F40E00E94910D89818F5F89831E
:1045F0008981843038F30F900F90CF91DF91089527
:10460000DF93CF9300D00F92CDB7DEB78FEF8983C2
:104610001B826AC08B81882F90E0FC01E157FE4F1E
:1046200020818B81882F90E0FC01ED56FE4F908118
:10463000822F692F41E00E94910D8B81882F90E09D
:10464000FC01E157FE4F20818B81882F90E0FC0117
:10465000ED56FE4F9081822F692F40E00E948D0E13
:104660001A8229C08A81882F90E0FC01E956FE4F0A
:1046700020818A81882F90E0FC01E556FE4F9081D1
:10468000822F692F0E94890F882391F48B81482FF4
:1046900050E08A81282F30E0CA01880F991F880FC7
:1046A000991F820F931FFC01E156FE4F8081898381
:1046B0008A818F5F8A838A818430A0F28B81882FE0
:1046C00090E0FC01E157FE4F20818B81882F90E024
:1046D000FC01ED56FE4F9081822F692F41E00E9430
:1046E0008D0E8B818F5F8B838B81843008F492CF0A
:1046F00089810F900F900F90CF91DF910895DF93F4
:10470000CF93CDB7DEB70E94671780E060E00E94CC
:104710003C2288E690E00E9413220E94A50783E0D5
:1047200061E041E00E94910D83E060E040E00E9482
:10473000910DCF91DF910895DF93CF93CDB7DEB781
:104740008091BD019091BE010E94210881E060E04E
:104750000E943C2285E790E00E94132282E060E004
:104760000E943C228091BD019091BE010E941322C3
:1047700083E060E00E943C2281E890E00E941322E6
:10478000CF91DF910895DF93CF93CDB7DEB70E942D
:104790007F230E949C23FDCF629FD001739FF00175
:1047A000829FE00DF11D649FE00DF11D929FF00DC1
:1047B000839FF00D749FF00D659FF00D9927729FF8
:1047C000B00DE11DF91F639FB00DE11DF91FBD0183
:1047D000CF0111240895AA1BBB1B51E107C0AA1FDA
:1047E000BB1FA617B70710F0A61BB70B881F991F92
:1047F0005A95A9F780959095BC01CD010895A1E245
:104800001A2EAA1BBB1BFD010DC0AA1FBB1FEE1F4A
:10481000FF1FA217B307E407F50720F0A21BB30B95
:10482000E40BF50B661F771F881F991F1A9469F711
:1048300060957095809590959B01AC01BD01CF016D
:1048400008952F923F924F925F926F927F928F9234
:104850009F92AF92BF92CF92DF92EF92FF920F930F
:104860001F93CF93DF93CDB7DEB7CA1BDB0B0FB619
:10487000F894DEBF0FBECDBF09942A8839884888D6
:104880005F846E847D848C849B84AA84B984C8846C
:10489000DF80EE80FD800C811B81AA81B981CE0F63
:1048A000D11D0FB6F894DEBF0FBECDBFED01089548
:1048B000FB019F01E8944230C4F04532B4F44A3021
:1048C00029F497FB1EF4909581959F4F642F7727CD
:1048D0000E94EB23805D8A330CF0895D8193CB01CC
:1048E0000097A1F716F45DE251931082C9010C9470
:1048F000D3243BD080F09F3740F491110EF44DC08B
:1049000060E070E080E89FE3089526F01B16611DCB
:10491000711D811D01C01BC0882371F4772321F014
:104920009850872B762F07C0662311F499270DC066
:104930009051862B70E060E02AF09A95660F771F01
:10494000881FDAF7880F9695879597F908959F3F06
:1049500031F0915020F4879577956795B795880F3A
:10496000911D9695879597F9089535D0A0F0BEE7EB
:10497000B91788F4BB279F3860F41616B11D672F4E
:10498000782F8827985FF7CF869577956795B11D23
:1049900093959639C8F30895E894BB27662777273F
:1049A000CB0197F90895DC01FC01672F7191772302
:1049B000E1F7329704C07C916D9370836291AE17DA
:1049C000BF07C8F3089557FD9058440F551F59F07D
:1049D0005F3F71F04795880F97FB991F61F09F3FEC
:1049E00079F087950895121613061406551FF2CF15
:1049F0004695F1DF08C0161617061806991FF1CF65
:0E4A000086957105610508940895F894FFCF1E
:104A0E00416E676C653A2000554152542052454321
:104A1E004549564500526563656976696E672E2E67
:104A2E0000446F6E652100000000000000000000D1
:104A3E000102020303030304040404040404040532
:104A4E000505050505050505050505050505050607
:104A5E0006060606060606060606060606060606E8
:104A6E0006060606060606060606060606060607D7
:104A7E0007070707070707070707070707070707B8
:104A8E0007070707070707070707070707070707A8
:104A9E000707070707070707070707070707070798
:104AAE000707070707070707070707070707070887
:104ABE000808080808080808080808080808080868
:104ACE000808080808080808080808080808080858
:104ADE000808080808080808080808080808080848
:104AEE000808080808080808080808080808080838
:104AFE000808080808080808080808080808080828
:104B0E000808080808080808080808080808080817
:104B1E000808080808080808080808080808080807
:104B2E0008080808080808080808080808080802FD
:104B3E0002020205040302030303030706050337FB
:104B4E0038392F3435362A3132332D43303D2B0050
:00000001FF
