:100000000C942A000C943F000C943F000C943F0089
:100010000C943F000C943F000C943F000C943F0064
:100020000C943F000C943F000C943F000C943F0054
:100030000C943F000C943F000C943F000C943F0044
:100040000C943F000C943F000C943F000C943F0034
:100050000C943F0011241FBECFE5D8E0DEBFCDBF1A
:1000600010E0A0E6B0E0E0E6FBE102C005900D92F2
:10007000A836B107D9F70E94D60C0C94AE0D0C949B
:100080000000EF92FF920F931F937B018C0120E001
:1000900030E040E05FE40E94410388238CF0C80117
:1000A000B70120E030E040E05FE40E94B9010E9427
:1000B000A1039B01AC01205030404040504806C095
:1000C000C801B7010E94A1039B01AC01B901CA019B
:1000D0001F910F91FF90EF900895A0E0B0E0E3E74B
:1000E000F0E00C94770DDC012B01FA019C91923029
:1000F00008F439C1EB018881823008F433C19430AF
:1001000069F4843009F02FC111969C91119789816F
:10011000981709F428C1A0E6B0E025C1843009F49D
:1001200021C18230A9F4923009F01DC19A01AD01BC
:1001300088E0EA010990AE01E90109929E0181502F
:10014000C1F7E201898111969C918923818308C1BD
:10015000923009F407C112962D903C901397EB0151
:100160008A819B811496AD90BD90CD90DC901797BD
:10017000EC80FD800E811F819101281B390BB90194
:1001800037FF04C066277727621B730B6032710547
:100190000CF061C0121613066CF537014801062EEB
:1001A00004C096948794779467940A94D2F721E0D8
:1001B00030E040E050E004C0220F331F441F551FC1
:1001C0006A95D2F721503040404050402E213F21C7
:1001D00040235123211531054105510521F021E02E
:1001E00030E040E050E079018A01E628F72808294C
:1001F00019293CC0232BD1F1260E371E35014601AB
:10020000062E04C096948794779467940A94D2F744
:1002100021E030E040E050E004C0220F331F441FD3
:10022000551F6A95D2F721503040404050402A2156
:100230003B214C215D21211531054105510521F05E
:1002400021E030E040E050E059016A01A628B728DB
:10025000C828D9280BC0821593052CF01C01AA24AC
:10026000BB24650103C0EE24FF24870111969C91F5
:10027000D20111968C91981709F445C0992339F051
:10028000A80197012A193B094C095D0906C0A6017E
:1002900095012E193F09400B510B57FD08C01182E3
:1002A0003382228224833583468357831DC081E0B5
:1002B00081833382228288279927DC01821B930B5A
:1002C000A40BB50B84839583A683B7830DC0220F3F
:1002D000331F441F551F24833583468357838281F0
:1002E000938101979383828324813581468157814D
:1002F000DA01C9010197A109B1098F5F9F4FAF4F83
:10030000BF4328F30BC0918333822282EA0CFB1C8B
:100310000C1D1D1DE482F5820683178383E0808314
:10032000248135814681578157FF1AC0C901AA2708
:1003300097FDA095BA2F81709070A070B0705695FF
:10034000479537952795822B932BA42BB52B848328
:100350009583A683B7838281938101969383828359
:10036000DF0101C0D201CD01CDB7DEB7E2E10C94CF
:10037000930DA0E2B0E0EFEBF1E00C94830D698304
:100380007A838B839C832D833E834F835887E9E058
:10039000EE2EF12CEC0EFD1ECE010196B7010E944F
:1003A000CA048E010F5E1F4FCE010596B8010E9450
:1003B000CA048A8991E089278A8BC701B801AE01F6
:1003C000475E5F4F0E946D000E94F503A096E6E035
:1003D0000C949F0DA0E2B0E0E0EFF1E00C94830DEF
:1003E00069837A838B839C832D833E834F835887D5
:1003F000F9E0EF2EF12CEC0EFD1ECE010196B701B7
:100400000E94CA048E010F5E1F4FCE010596B801EF
:100410000E94CA04C701B801AE01475E5F4F0E9447
:100420006D000E94F503A096E6E00C949F0DA0E2FB
:10043000B0E0EDE1F2E00C94770D69837A838B8371
:100440009C832D833E834F835887CE010196BE0146
:10045000675F7F4F0E94CA04CE010596BE016F5EA2
:100460007F4F0E94CA049985923088F08989823032
:10047000C8F0943019F4823051F404C0843029F467
:10048000923081F480E690E0C6C0923049F420E0DA
:100490009A858A89981321E02A87CE010996BBC0E4
:1004A000823049F420E09A858A89981321E02A8BCA
:1004B000CE014196B0C02D843E844F8458886D880B
:1004C0007E888F88988CEE24FF248701AA24BB2481
:1004D000650140E050E060E070E0E0E0F0E0C10184
:1004E00081709070892BE9F0E60CF71C081D191D2E
:1004F0009A01AB012A0D3B1D4C1D5D1D80E090E073
:10050000A0E0B0E0E614F7040805190520F481E046
:1005100090E0A0E0B0E0BA01A901480F591F6A1F9E
:100520007B1FAA0CBB1CCC1CDD1C97FE08C081E005
:1005300090E0A0E0B0E0A82AB92ACA2ADB2A3196C6
:10054000E032F10549F0660C771C881C991C569422
:10055000479437942794C3CFFA85EA892B893C893D
:100560008B859C85280F391F2E5F3F4F17C0CA010E
:1005700081709070892B61F016950795F794E79438
:1005800080E090E0A0E0B0E8E82AF92A0A2B1B2BD3
:1005900076956795579547952F5F3F4F77FDE7CF46
:1005A0000CC0440F551F661F771F17FD4160EE0CEE
:1005B000FF1C001F111F21503040403090E05907B0
:1005C00090E0690790E4790760F32B8F3C8FDB01A3
:1005D000CA018F779070A070B07080349105A1052A
:1005E000B10561F447FD0AC0E114F10401051105EC
:1005F00029F0405C5F4F6F4F7F4F40781A8EFE1797
:1006000011F081E08A8F4D8F5E8F6F8F78A383E02A
:10061000898FCE0149960E94F503A096E2E10C94E1
:10062000930DA8E1B0E0E7E1F3E00C94830D69835A
:100630007A838B839C832D833E834F83588789E005
:10064000E82EF12CEC0EFD1ECE010196B7010E94A2
:10065000CA048E010F5E1F4FCE010596B8010E949D
:10066000CA048985823040F08989823028F0C70128
:10067000B8010E94420501C08FEF6896E6E00C9435
:100680009F0DA8E1B0E0E7E4F3E00C94830D6983EB
:100690007A838B839C832D833E834F83588789E0A5
:1006A000E82EF12CEC0EFD1ECE010196B7010E9442
:1006B000CA048E010F5E1F4FCE010596B8010E943D
:1006C000CA048985823040F08989823028F0C701C8
:1006D000B8010E94420501C08FEF6896E6E00C94D5
:1006E0009F0DA8E1B0E0E7E7F3E00C94830D698388
:1006F0007A838B839C832D833E834F83588789E045
:10070000E82EF12CEC0EFD1ECE010196B7010E94E1
:10071000CA048E010F5E1F4FCE010596B8010E94DC
:10072000CA048985823040F08989823028F0C70167
:10073000B8010E94420501C081E06896E6E00C9491
:100740009F0DACE0B0E0E7EAF3E00C94870D69831D
:100750007A838B839C83CE010196BE016B5F7F4FB2
:100760000E94CA048D81823061F1823050F1843060
:1007700021F48E81882351F12EC02F81388537FDD9
:1007800020C06E812F3131051CF06623F9F023C0A3
:100790008EE190E0821B930B29853A854B855C8521
:1007A00004C056954795379527958A95D2F76623C5
:1007B000B1F050954095309521953F4F4F4F5F4F89
:1007C0000EC020E030E040E050E009C02FEF3FEFE6
:1007D0004FEF5FE704C020E030E040E050E8B901AF
:1007E000CA012C96E2E00C94A30DDF92EF92FF92E7
:1007F0000F931F93FC01E480F58006811781D1805F
:100800008081823048F480E090E0A0E1B0E0E82A06
:10081000F92A0A2B1B2BA5C0843009F49FC0823013
:1008200021F4EE24FF24870105C0E114F104010541
:10083000110519F4E0E0F0E096C0628173819FEF4A
:10084000623879070CF05BC022E83FEF261B370BBC
:100850002A3131052CF020E030E040E050E02AC0A1
:10086000B801A701022E04C0769567955795479564
:100870000A94D2F781E090E0A0E0B0E004C0880FD5
:10088000991FAA1FBB1F2A95D2F70197A109B10989
:100890008E219F21A023B1230097A105B10521F04E
:1008A00081E090E0A0E0B0E09A01AB01282B392B69
:1008B0004A2B5B2BDA01C9018F779070A070B07062
:1008C00080349105A105B10539F427FF09C0205CEA
:1008D0003F4F4F4F5F4F04C0215C3F4F4F4F5F4F23
:1008E000E0E0F0E02030A0E03A07A0E04A07A0E412
:1008F0005A0710F0E1E0F0E079018A0127C0603882
:10090000710564F5FB01E158FF4FD801C7018F77EE
:100910009070A070B07080349105A105B10539F4D4
:10092000E7FE0DC080E490E0A0E0B0E004C08FE3FB
:1009300090E0A0E0B0E0E80EF91E0A1F1B1F17FFB1
:1009400005C016950795F794E794319687E01695BC
:100950000795F794E7948A95D1F705C0EE24FF2414
:100960008701EFEFF0E06E2F679566276795902F70
:100970009F77D794DD24D7948E2F8695492F462BC9
:10098000582F5D29B701CA011F910F91FF90EF9079
:10099000DF900895FC01DB01408151812281622FAB
:1009A0006F7770E0221F2227221F9381892F880FE3
:1009B000822B282F30E0991F9927991F11969C931D
:1009C000119721153105A9F54115510561057105ED
:1009D00011F482E037C082E89FEF13969C938E93C8
:1009E00012979A01AB0167E0220F331F441F551F76
:1009F0006A95D1F783E08C930DC0220F331F441FFB
:100A0000551F12968D919C911397019713969C9365
:100A10008E931297203080E0380780E0480780E40A
:100A2000580758F314962D933D934D935C93179765
:100A300008952F3F310579F4411551056105710580
:100A400019F484E08C93089564FF03C081E08C93D3
:100A500012C01C9210C02F57304013963C932E9317
:100A6000129783E08C9387E0440F551F661F771F12
:100A70008A95D1F7706414964D935D936D937C9332
:100A8000179708951F93DC01FB019C91923008F4A5
:100A900047C08081823008F443C0943051F41196ED
:100AA0001C91843099F58181682F70E0611B710978
:100AB0003FC0843021F0923031F48230B9F181812D
:100AC000882389F12DC011961C9111978230F1F085
:100AD00081811817D9F412962D913C911397828138
:100AE00093818217930794F028173907BCF0149666
:100AF0008D919D910D90BC91A02D248135814681D1
:100B00005781281739074A075B0718F4112341F06A
:100B10000AC082179307A407B50740F4112319F000
:100B200061E070E005C06FEF7FEF02C060E070E051
:100B3000CB011F910895DF93CF9300D000D000D058
:100B4000CDB7DEB78A836B834C8319828B81883063
:100B500018F081E08983E1C08A81843018F082E056
:100B60008983DBC08C81882331F08C81813019F03E
:100B700083E08983D2C08A81282F30E03E832D8391
:100B80008D819E818130910509F443C02D813E8184
:100B9000223031052CF48D819E81009771F0BCC00C
:100BA0002D813E812230310509F45FC08D819E8107
:100BB0008330910509F485C0AFC08C818130A1F4E8
:100BC000AAE3B0E0EAE3F0E08081482F8B81282F90
:100BD00030E081E090E0022E02C0880F991F0A9455
:100BE000E2F7842B8C9398C0AAE3B0E0EAE3F0E04C
:100BF0008081482F8B81282F30E081E090E0022E09
:100C000002C0880F991F0A94E2F7809584238C9381
:100C100083C08C818130A1F4A7E3B0E0E7E3F0E08A
:100C20008081482F8B81282F30E081E090E0022ED8
:100C300002C0880F991F0A94E2F7842B8C936CC032
:100C4000A7E3B0E0E7E3F0E08081482F8B81282F15
:100C500030E081E090E0022E02C0880F991F0A94D4
:100C6000E2F7809584238C9357C08C818130A1F466
:100C7000A4E3B0E0E4E3F0E08081482F8B81282FEB
:100C800030E081E090E0022E02C0880F991F0A94A4
:100C9000E2F7842B8C9340C0A4E3B0E0E4E3F0E0FF
:100CA0008081482F8B81282F30E081E090E0022E58
:100CB00002C0880F991F0A94E2F7809584238C93D1
:100CC0002BC08C818130A1F4A1E3B0E0E1E3F0E03E
:100CD0008081482F8B81282F30E081E090E0022E28
:100CE00002C0880F991F0A94E2F7842B8C9314C0DA
:100CF000A1E3B0E0E1E3F0E08081482F8B81282F71
:100D000030E081E090E0022E02C0880F991F0A9423
:100D1000E2F7809584238C931982898126960FB6F9
:100D2000F894DEBF0FBECDBFCF91DF910895DF9362
:100D3000CF9300D000D000D0CDB7DEB78A836B83CD
:100D40004C8319828B81883018F081E08983E1C05F
:100D50008A81843018F082E08983DBC08C81813005
:100D600031F08C81882319F083E08983D2C08A8195
:100D7000282F30E03E832D838D819E818130910527
:100D800009F443C02D813E81223031052CF48D8140
:100D90009E81009771F0BCC02D813E8122303105CB
:100DA00009F45FC08D819E818330910509F485C06F
:100DB000AFC08C818130A1F4ABE3B0E0EBE3F0E0B5
:100DC0008081482F8B81282F30E081E090E0022E37
:100DD00002C0880F991F0A94E2F7842B8C9398C065
:100DE000ABE3B0E0EBE3F0E08081482F8B81282F6C
:100DF00030E081E090E0022E02C0880F991F0A9433
:100E0000E2F7809584238C9383C08C818130A1F498
:100E1000A8E3B0E0E8E3F0E08081482F8B81282F41
:100E200030E081E090E0022E02C0880F991F0A9402
:100E3000E2F7842B8C936CC0A8E3B0E0E8E3F0E029
:100E40008081482F8B81282F30E081E090E0022EB6
:100E500002C0880F991F0A94E2F7809584238C932F
:100E600057C08C818130A1F4A5E3B0E0E5E3F0E068
:100E70008081482F8B81282F30E081E090E0022E86
:100E800002C0880F991F0A94E2F7842B8C9340C00C
:100E9000A5E3B0E0E5E3F0E08081482F8B81282FC7
:100EA00030E081E090E0022E02C0880F991F0A9482
:100EB000E2F7809584238C932BC08C818130A1F440
:100EC000A2E3B0E0E2E3F0E08081482F8B81282F9D
:100ED00030E081E090E0022E02C0880F991F0A9452
:100EE000E2F7842B8C9314C0A2E3B0E0E2E3F0E0DD
:100EF0008081482F8B81282F30E081E090E0022E06
:100F000002C0880F991F0A94E2F7809584238C937E
:100F10001982898126960FB6F894DEBF0FBECDBF29
:100F2000CF91DF910895DF93CF9300D000D000D010
:100F3000CDB7DEB78B836C831A8219828C8188309F
:100F400018F081E08A8387C08B81843018F082E0BA
:100F50008A8381C08B81282F30E03E832D834D8191
:100F60005E814130510579F18D819E8182309105FC
:100F700034F42D813E812115310569F06BC04D811E
:100F80005E8142305105B9F18D819E81833091059A
:100F900009F449C05FC0E9E3F0E08081282F30E028
:100FA0008C81882F90E0A90102C0559547958A95BC
:100FB000E2F7CA0181709070882319F081E089837B
:100FC00049C0198247C0E6E3F0E08081282F30E075
:100FD0008C81882F90E0A90102C0559547958A958C
:100FE000E2F7CA0181709070882319F081E089834B
:100FF00031C019822FC0E3E3F0E08081282F30E078
:101000008C81882F90E0A90102C0559547958A955B
:10101000E2F7CA0181709070882319F081E089831A
:1010200019C0198217C0E0E3F0E08081282F30E07A
:101030008C81882F90E0A90102C0559547958A952B
:10104000E2F7CA0181709070882319F081E08983EA
:1010500001C019821A82898126960FB6F894DEBFE4
:101060000FBECDBFCF91DF910895DF93CF9300D016
:1010700000D00F92CDB7DEB78A836B8319828B8144
:10108000883018F081E0898375C08A81843018F037
:1010900082E089836FC08A81282F30E03D832C83D2
:1010A0008C819D818130910549F12C813D812230D7
:1010B00031052CF48C819D81009761F05AC02C8100
:1010C0003D812230310571F18C819D818330910504
:1010D000E9F14FC0ABE3B0E0EBE3F0E08081482FF3
:1010E0008B81282F30E081E090E0022E02C0880F33
:1010F000991F0A94E2F784278C933BC0A8E3B0E0E1
:10110000E8E3F0E08081482F8B81282F30E081E0F8
:1011100090E0022E02C0880F991F0A94E2F78427FC
:101120008C9327C0A5E3B0E0E5E3F0E08081482F91
:101130008B81282F30E081E090E0022E02C0880FE2
:10114000991F0A94E2F784278C9313C0A2E3B0E0BE
:10115000E2E3F0E08081482F8B81282F30E081E0AE
:1011600090E0022E02C0880F991F0A94E2F78427AC
:101170008C93198289810F900F900F900F900F9090
:10118000CF91DF910895DF93CF9300D000D00F92DD
:10119000CDB7DEB78A836B8319828A81843018F0D9
:1011A00082E089833CC08B81882331F08B818F3F23
:1011B00019F083E0898333C08A81282F30E03D8392
:1011C0002C838C819D8181309105D1F02C813D81D2
:1011D000223031052CF48C819D81009761F01EC076
:1011E0002C813D812230310581F08C819D818330BD
:1011F000910581F013C0EAE3F0E08B8180830EC09B
:10120000E7E3F0E08B81808309C0E4E3F0E08B81C9
:10121000808304C0E1E3F0E08B81808319828981BF
:101220000F900F900F900F900F90CF91DF91089536
:10123000DF93CF9300D000D00F92CDB7DEB78A8373
:101240006B8319828A81843018F082E0898333C0ED
:101250008A81282F30E03D832C838C819D818130D1
:101260009105D1F02C813D81223031052CF48C8107
:101270009D81009761F01EC02C813D812230310597
:1012800081F08C819D818330910581F013C0EBE367
:10129000F0E08B8180830EC0E8E3F0E08B818083F7
:1012A00009C0E5E3F0E08B81808304C0E2E3F0E075
:1012B0008B818083198289810F900F900F900F90FE
:1012C0000F90CF91DF910895DF93CF9300D000D09E
:1012D0000F92CDB7DEB78B831A8219828B8184304F
:1012E00018F082E0898333C08B81282F30E03D8362
:1012F0002C838C819D8181309105D1F02C813D81A1
:10130000223031052CF48C819D81009761F01EC044
:101310002C813D812230310581F08C819D8183308B
:10132000910581F013C0EBE3F0E080818A830EC069
:10133000E8E3F0E080818A8309C0E5E3F0E08081A2
:101340008A8304C0E2E3F0E080818A8319828A8183
:101350000F900F900F900F900F90CF91DF91089505
:10136000DF93CF9300D0CDB7DEB78A8319828A810D
:10137000843018F082E089831FC080E062E041E0A1
:101380000E949B0580E063E041E00E949B058A810A
:1013900060E041E00E949B058A8161E041E00E949B
:1013A0009B058A8162E041E00E949B058A8164E09E
:1013B00041E00E949B05198289810F900F90CF9187
:1013C000DF910895DF93CF9300D000D00F92CDB777
:1013D000DEB78A836B8319828A81843018F082E0B9
:1013E000898324C18B81282F30E03D832C838C811D
:1013F0009D818430910509F49BC02C813D8125306D
:101400003105ECF48C819D818130910509F451C046
:101410002C813D81223031052CF48C819D810097F7
:1014200099F103C12C813D812230310509F456C068
:101430008C819D818330910509F465C0F6C02C81B3
:101440003D812730310509F4B2C08C819D818830FF
:1014500091056CF42C813D812530310509F47DC066
:101460008C819D818630910509F48CC0DEC02C8171
:101470003D812830310509F4AFC08C819D818930D0
:10148000910509F4BEC0D1C08A8160E040E00E94AD
:1014900097068A8161E040E00E9497068A8162E0B7
:1014A00040E00E9497068A8164E040E00E9497062F
:1014B000BCC08A8160E041E00E9497068A8161E0B9
:1014C00040E00E9497068A8162E040E00E94970611
:1014D0008A8164E040E00E949706A7C08A8160E0AC
:1014E00040E00E9497068A8161E041E00E949706F1
:1014F0008A8162E040E00E9497068A8164E040E0D1
:101500000E94970692C08A8160E041E00E9497069F
:101510008A8161E041E00E9497068A8162E040E0B2
:101520000E9497068A8164E040E00E9497067DC091
:101530008A8160E040E00E9497068A8161E040E095
:101540000E9497068A8162E041E00E9497068A81A4
:1015500064E040E00E94970668C08A8160E041E054
:101560000E9497068A8161E040E00E9497068A8186
:1015700062E041E00E9497068A8164E040E00E94B8
:10158000970653C08A8160E040E00E9497068A81F6
:1015900061E041E00E9497068A8162E041E00E949A
:1015A00097068A8164E040E00E9497063EC08A81E7
:1015B00060E041E00E9497068A8161E041E00E947C
:1015C00097068A8162E041E00E9497068A8164E082
:1015D00040E00E94970629C08A8160E040E00E94B6
:1015E00097068A8161E040E00E9497068A8162E066
:1015F00040E00E9497068A8164E041E00E949706DD
:1016000014C08A8160E041E00E9497068A8161E00F
:1016100040E00E9497068A8162E040E00E949706BF
:101620008A8164E041E00E949706198289810F90C7
:101630000F900F900F900F90CF91DF910895DF934F
:10164000CF9300D00F92CDB7DEB78A836B83198218
:101650008B81883018F081E089830CC08A818430C6
:1016600018F082E0898306C08A816B8141E00E9484
:101670009B05198289810F900F900F90CF91DF9178
:101680000895DF93CF9300D00F92CDB7DEB78A8352
:101690006B8319828B81883018F081E089830CC0BC
:1016A0008A81843018F082E0898306C08A816B8148
:1016B00041E00E949706198289810F900F900F9048
:1016C000CF91DF910895DF93CF9300D00F92CDB7E4
:1016D000DEB78A836B8319828B81883018F081E0B2
:1016E00089830CC08A81843018F082E0898306C027
:1016F0008A816B8140E00E949706198289810F9050
:101700000F900F90CF91DF910895DF93CF9300D08A
:101710000F92CDB7DEB78A836B8319828B818830B5
:1017200018F081E089830BC08A81843018F082E050
:10173000898305C08A816B810E943508198289815D
:101740000F900F900F90CF91DF910895DF93CF937B
:1017500000D00F92CDB7DEB789838981282F30E082
:101760003B832A838A819B818430910509F49BC045
:101770002A813B8125303105ECF48A819B818130BF
:10178000910509F451C02A813B81223031052CF4A6
:101790008A819B81009799F103C12A813B81223084
:1017A000310509F456C08A819B818330910509F483
:1017B00065C0F6C02A813B812730310509F4B2C0EB
:1017C0008A819B81883091056CF42A813B81253088
:1017D000310509F47DC08A819B818630910509F429
:1017E0008CC0DEC02A813B812830310509F4AFC0AE
:1017F0008A819B818930910509F4BEC0D1C081E006
:1018000067E040E00E94970680E064E040E00E94CC
:10181000970680E065E040E00E94970680E066E081
:1018200040E00E949706BCC081E067E041E00E9472
:10183000970680E064E040E00E94970680E065E063
:1018400040E00E94970680E066E040E00E94970634
:10185000A7C081E067E040E00E94970680E064E076
:1018600041E00E94970680E065E040E00E94970614
:1018700080E066E040E00E94970692C081E067E069
:1018800041E00E94970680E064E041E00E949706F4
:1018900080E065E040E00E94970680E066E040E07E
:1018A0000E9497067DC081E067E040E00E949706B5
:1018B00080E064E040E00E94970680E065E041E05F
:1018C0000E94970680E066E040E00E94970668C0AC
:1018D00081E067E041E00E94970680E064E040E03C
:1018E0000E94970680E065E041E00E94970680E054
:1018F00066E040E00E94970653C081E067E040E068
:101900000E94970680E064E041E00E94970680E034
:1019100065E041E00E94970680E066E040E00E94BA
:1019200097063EC081E067E041E00E94970680E0B4
:1019300064E041E00E94970680E065E041E00E949B
:10194000970680E066E040E00E94970629C081E0AB
:1019500067E040E00E94970680E064E040E00E947B
:10196000970680E065E040E00E94970680E066E030
:1019700041E00E94970614C081E067E041E00E94C8
:10198000970680E064E040E00E94970680E065E012
:1019900040E00E94970680E066E041E00E949706E2
:1019A0000F900F900F90CF91DF910895DF93CF9319
:1019B000CDB7DEB72F970FB6F894DEBF0FBECDBF01
:1019C00081E067E00E941F0B80E066E00E941F0B31
:1019D00080E065E00E941F0B80E064E00E941F0B26
:1019E00081E00E94B0091F861F867CC081E06F8560
:1019F0000E94E2098F850E94A60B80E090E0AAE792
:101A0000B4E48B879C87AD87BE876B857C858D858D
:101A10009E8520E030E04AE755E40E941702DC0191
:101A2000CB018F839887A987BA876F81788589854D
:101A30009A8520E030E040E85FE30E94710388234C
:101A40002CF481E090E09E838D833FC06F81788588
:101A500089859A8520E03FEF4FE757E40E94110304
:101A600018164CF56B857C858D859E8520E030E0D1
:101A700040E251E40E941702DC01CB01BC01CD0120
:101A80000E944100DC01CB019E838D830FC080E961
:101A900091E09C838B838B819C810197F1F79C83E0
:101AA0008B838D819E8101979E838D838D819E8105
:101AB000009769F714C06F81788589859A850E949F
:101AC0004100DC01CB019E838D838D819E819A83B1
:101AD000898389819A810197F1F79A8389838F8518
:101AE0008F5F8F878F858A3008F480CF7DCF2F92CC
:101AF0003F924F925F926F927F928F929F92AF929E
:101B0000BF92CF92DF92EF92FF920F931F93CF93EA
:101B1000DF93CDB7DEB7CA1BDB0B0FB6F894DEBF81
:101B20000FBECDBF09942A88398848885F846E84A7
:101B30007D848C849B84AA84B984C884DF80EE80F1
:101B4000FD800C811B81AA81B981CE0FD11D0FB6FA
:101B5000F894DEBF0FBECDBFED010895F894FFCF1E
:081B600000000000000000007D
:00000001FF
