:100000000C942A000C9424020C944D020C94760259
:100010000C9447000C9447000C9449040C9472040F
:100020000C949B040C94C4040C94F7030C942004CB
:100030000C94CE030C94ED040C9416050C943F051F
:100040000C94FB010C9447000C9447000C9447005F
:100050000C94470011241FBECFE5D8E0DEBFCDBF12
:1000600010E0A0E6B0E0E4EDFAE002C005900D92E9
:10007000A438B107D9F720E0A4E8B0E001C01D9290
:10008000A13AB207E1F70E9488000C9468050C942D
:1000900000000E940C0160E080E00E94E40180E624
:1000A00090E00E94D10183E294EF0197F1F700C044
:1000B000000082E00E94AB03089560E081E00E94AE
:1000C000E4018CE690E00E94D10187EA91E6019775
:1000D000F1F700C000000E94B4038093840060E048
:1000E00082E00E94E40188E790E00E94D10165E08F
:1000F00082E00E94E401809184000E94520160E04D
:1001000083E00E94E4018EE790E00E94D10108950F
:100110000E9449000E945D00FFCFCF93C82F40E0AE
:1001200061E080E00E94250389EF90E00197F1F7FC
:1001300000C0000041E062E080E00E94250389EFFA
:1001400090E00197F1F700C00000C4FB442740F99C
:1001500063E080E00E942503C5FB442740F964E08A
:1001600080E00E942503C6FB442740F965E080E05B
:100170000E9425034C2F441F4427441F66E080E063
:100180000E94250389EF90E00197F1F700C000007D
:1001900040E062E080E00E94250389EF90E0019753
:1001A000F1F700C0000041E062E080E00E9425031A
:1001B00089EF90E00197F1F700C000004C2F4170EB
:1001C00063E080E00E942503C1FB442740F964E01E
:1001D00080E00E942503C2FB442740F965E080E0EF
:1001E0000E942503C3FB442740F966E080E00E949B
:1001F000250389EF90E00197F1F700C0000040E08F
:1002000062E080E00E94250389EF90E00197F1F71A
:1002100000C00000CF91089541E061E080E00E94BD
:100220009F0241E062E080E00E949F0287E893E144
:100230000197F1F700C0000041E063E080E00E9418
:100240009F0241E064E080E00E949F0241E065E09F
:1002500080E00E949F0241E066E080E00E949F02F1
:1002600083E30E948D0082E30E948D0088E20E9459
:100270008D0083EF91E00197F1F700C000008CE062
:100280000E948D0083EF91E00197F1F700C000001C
:1002900081E00E948D0083EF91E00197F1F700C0AB
:1002A00000000895CF93C82F41E061E080E00E94F4
:1002B000250389EF90E00197F1F700C0000041E0CD
:1002C00062E080E00E94250389EF90E00197F1F75A
:1002D00000C00000C4FB442740F963E080E00E94B6
:1002E0002503C5FB442740F964E080E00E94250314
:1002F000C6FB442740F965E080E00E9425034C2FAF
:10030000441F4427441F66E080E00E94250389EFD4
:1003100090E00197F1F700C0000040E062E080E06B
:100320000E94250389EF90E00197F1F700C00000DB
:1003300041E062E080E00E94250389EF90E00197B0
:10034000F1F700C000004C2F417063E080E00E9494
:100350002503C1FB442740F964E080E00E942503A7
:10036000C2FB442740F965E080E00E942503C3FBFF
:10037000442740F966E080E00E94250389EF90E081
:100380000197F1F700C0000040E062E080E00E94C9
:10039000250389EF90E00197F1F700C00000CF91AD
:1003A00008950F931F93CF938C01C0E003C00E9468
:1003B0005201CF5FF801EC0FF11D80818111F7CF61
:1003C000CF911F910F910895813031F070F08230FC
:1003D00031F0833039F00AC090E4960F07C090E105
:1003E000960F04C090E5960F01C0962F892F806864
:1003F0000E948D0008951F920F920FB60F92112444
:100400002F933F934F935F936F937F938F939F931C
:10041000AF93BF93EF93FF93E0918500F091860037
:10042000309709F00995FF91EF91BF91AF919F919E
:100430008F917F916F915F914F913F912F910F908D
:100440000FBE0F901F9018951F920F920FB60F922C
:1004500011242F933F934F935F936F937F938F93C9
:100460009F93AF93BF93EF93FF93E0918900F09137
:100470008A00309709F00995FF91EF91BF91AF91F4
:100480009F918F917F916F915F914F913F912F91AC
:100490000F900FBE0F901F9018951F920F920FB6DE
:1004A0000F9211242F933F934F935F936F937F93FA
:1004B0008F939F93AF93BF93EF93FF93E0918B0044
:1004C000F0918C00309709F00995FF91EF91BF9161
:1004D000AF919F918F917F916F915F914F913F91DC
:1004E0002F910F900FBE0F901F9018951F920F9293
:1004F0000FB60F9211242F933F934F935F936F93F7
:100500007F938F939F93AF93BF93EF93FF93E0916C
:100510008700F0918800309709F00995FF91EF91DD
:10052000BF91AF919F918F917F916F915F914F910B
:100530003F912F910F900FBE0F901F90189568302C
:1005400008F07BC0843008F07AC0423008F079C0EF
:10055000813011F130F08230D1F1833009F452C092
:1005600072C0413061F42AB381E090E002C0880F8C
:10057000991F6A95E2F7822B8ABB80E008952AB31F
:1005800081E090E002C0880F991F6A95E2F780959C
:1005900082238ABB80E00895413061F427B381E073
:1005A00090E002C0880F991F6A95E2F7822B87BB03
:1005B00080E0089527B381E090E002C0880F991F82
:1005C0006A95E2F78095822387BB80E008954130E9
:1005D00061F424B381E090E002C0880F991F6A950E
:1005E000E2F7822B84BB80E0089524B381E090E0A1
:1005F00002C0880F991F6A95E2F78095822384BB19
:1006000080E00895413061F421B381E090E002C0C0
:10061000880F991F6A95E2F7822B81BB80E00895CD
:1006200021B381E090E002C0880F991F6A95E2F73C
:100630008095822381BB80E0089581E0089582E067
:10064000089583E0089580E00895683008F07BC045
:10065000843008F07AC0423008F079C0813011F15E
:1006600030F08230D1F1833009F452C072C0413091
:1006700061F42BB381E090E002C0880F991F6A9566
:10068000E2F7822B8BBB80E008952BB381E090E0F2
:1006900002C0880F991F6A95E2F7809582238BBB71
:1006A00080E00895413061F428B381E090E002C019
:1006B000880F991F6A95E2F7822B88BB80E0089526
:1006C00028B381E090E002C0880F991F6A95E2F795
:1006D0008095822388BB80E00895413061F425B382
:1006E00081E090E002C0880F991F6A95E2F7822BA3
:1006F00085BB80E0089525B381E090E002C0880FBB
:10070000991F6A95E2F78095822385BB80E0089562
:10071000413061F422B381E090E002C0880F991F5C
:100720006A95E2F7822B82BB80E0089522B381E0D4
:1007300090E002C0880F991F6A95E2F780958223A6
:1007400082BB80E0089581E0089582E0089583E00F
:10075000089580E00895880F82B986B7846086BFC7
:1007600086B7806486BF089586B7806886BF06B660
:1007700007FEFDCF81B18695869586958C30D1F7A1
:1007800086B7806486BF86B7806886BF86B7846078
:1007900086BF06B607FEFDCF83B108951F920F9264
:1007A0000FB60F9211242F933F934F935F936F9344
:1007B0007F938F939F93AF93BF93EF93FF93E091BA
:1007C0008D00F0918E00309709F00995FF91EF911F
:1007D000BF91AF919F918F917F916F915F914F9159
:1007E0003F912F910F900FBE0F901F9018951F9261
:1007F0000F920FB60F9211242F933F934F935F9355
:100800006F937F938F939F93AF93BF93EF93FF93D8
:10081000E0918F00F0919000309709F00995FF91D9
:10082000EF91BF91AF919F918F917F916F915F9168
:100830004F913F912F910F900FBE0F901F901895E1
:100840001F920F920FB60F9211242F933F934F9345
:100850005F936F937F938F939F93AF93BF93EF9328
:10086000FF93E0919100F0919200309709F0099583
:10087000FF91EF91BF91AF919F918F917F916F9178
:100880005F914F913F912F910F900FBE0F901F904E
:1008900018951F920F920FB60F9211242F933F932A
:1008A0004F935F936F937F938F939F93AF93BF9378
:1008B000EF93FF93E0919700F0919800309709F043
:1008C0000995FF91EF91BF91AF919F918F917F918A
:1008D0006F915F914F913F912F910F900FBE0F90AD
:1008E0001F9018951F920F920FB60F9211242F93FD
:1008F0003F934F935F936F937F938F939F93AF93A8
:10090000BF93EF93FF93E0919900F0919A00309795
:1009100009F00995FF91EF91BF91AF919F918F9150
:100920007F916F915F914F913F912F910F900FBEEB
:100930000F901F9018951F920F920FB60F921124CF
:100940002F933F934F935F936F937F938F939F93D7
:10095000AF93BF93EF93FF93E0919300F0919400D6
:10096000309709F00995FF91EF91BF91AF919F9159
:100970008F917F916F915F914F913F912F910F9048
:100980000FBE0F901F9018951F920F920FB60F92E7
:1009900011242F933F934F935F936F937F938F9384
:1009A0009F93AF93BF93EF93FF93E0919500F091E6
:1009B0009600309709F00995FF91EF91BF91AF91A3
:1009C0009F918F917F916F915F914F913F912F9167
:1009D0000F900FBE0F901F9018951F920F920FB699
:1009E0000F9211242F933F934F935F936F937F93B5
:1009F0008F939F93AF93BF93EF93FF93E0919B00EF
:100A0000F0919C00309709F00995FF91EF91BF910B
:100A1000AF919F918F917F916F915F914F913F9196
:100A20002F910F900FBE0F901F9018951F920F924D
:100A30000FB60F9211242F933F934F935F936F93B1
:100A40007F938F939F93AF93BF93EF93FF93E09127
:100A50009F00F091A000309709F00995FF91EF9168
:100A6000BF91AF919F918F917F916F915F914F91C6
:100A70003F912F910F900FBE0F901F9018951F92CE
:100A80000F920FB60F9211242F933F934F935F93C2
:100A90006F937F938F939F93AF93BF93EF93FF9346
:100AA000E0919D00F0919E00309709F00995FF912B
:100AB000EF91BF91AF919F918F917F916F915F91D6
:100AC0004F913F912F910F900FBE0F901F9018954F
:040AD000F894FFCFC8
:100AD40049324320524543454956450052656365B2
:100AE4006976696E672E2E005278443A2000446F6E
:040AF4006E6521000A
:00000001FF
