S015000041544D454C5F4932435F5258442E7372656332
S11300000C942A000C941E020C9447020C94700267
S11300100C9447000C9447000C943E040C94670421
S11300200C9490040C94B9040C94EC030C941504F3
S11300300C94C3030C94E2040C940B050C94340547
S11300400C94F5010C9447000C9447000C94470061
S11300500C94470011241FBECFE5D8E0DEBFCDBF0E
S113006010E0A0E6B0E0EEEBFAE002C005900D92DD
S1130070A438B107D9F720E0A4E8B0E001C01D928C
S1130080A13AB207E1F70E9482000C945D050C943A
S113009000000E94060160E080E00E94DE0180E62C
S11300A090E00E94CB0182E00E94A503089560E0E5
S11300B081E00E94DE018CE690E00E94CB0187EA99
S11300C091E60197F1F700C000000E94A803809315
S11300D0840060E082E00E94DE0188E790E00E94F4
S11300E0CB0165E082E00E94DE01809184000E94E1
S11300F04C0160E083E00E94DE018EE790E00E9404
S1130100CB0108950E9449000E945700FFCFCF936E
S1130110C82F40E061E080E00E941F0389EF90E077
S11301200197F1F700C0000041E062E080E00E9426
S11301301F0389EF90E00197F1F700C00000C4FBB2
S1130140442740F963E080E00E941F03C5FB442775
S113015040F964E080E00E941F03C6FB442740F995
S113016065E080E00E941F034C2F441F4427441F76
S113017066E080E00E941F0389EF90E00197F1F7A9
S113018000C0000040E062E080E00E941F0389EFAD
S113019090E00197F1F700C0000041E062E080E0E8
S11301A00E941F0389EF90E00197F1F700C000005F
S11301B04C2F417063E080E00E941F03C1FB442781
S11301C040F964E080E00E941F03C2FB442740F929
S11301D065E080E00E941F03C3FB442740F966E00A
S11301E080E00E941F0389EF90E00197F1F700C0BF
S11301F0000040E062E080E00E941F0389EF90E08D
S11302000197F1F700C00000CF91089541E061E04B
S113021080E00E94990241E062E080E00E9499023D
S113022087E893E10197F1F700C0000041E063E043
S113023080E00E94990241E064E080E00E9499021B
S113024041E065E080E00E94990241E066E080E0E0
S11302500E94990283E30E94870082E30E94870040
S113026088E20E94870083EF91E00197F1F700C0D4
S113027000008CE00E94870083EF91E00197F1F782
S113028000C0000081E00E94870083EF91E00197A5
S1130290F1F700C000000895CF93C82F41E061E05A
S11302A080E00E941F0389EF90E00197F1F700C0FE
S11302B0000041E062E080E00E941F0389EF90E0CB
S11302C00197F1F700C00000C4FB442740F963E044
S11302D080E00E941F03C5FB442740F964E080E0EE
S11302E00E941F03C6FB442740F965E080E00E949A
S11302F01F034C2F441F4427441F66E080E00E94E4
S11303001F0389EF90E00197F1F700C0000040E07F
S113031062E080E00E941F0389EF90E00197F1F70B
S113032000C0000041E062E080E00E941F0389EF0A
S113033090E00197F1F700C000004C2F417063E09A
S113034080E00E941F03C1FB442740F964E080E081
S11303500E941F03C2FB442740F965E080E00E942D
S11303601F03C3FB442740F966E080E00E941F039B
S113037089EF90E00197F1F700C0000040E062E0EF
S113038080E00E941F0389EF90E00197F1F700C01D
S11303900000CF9108950F931F93CF938C01C0E079
S11303A003C00E944C01CF5FF801EC0FF11D808166
S11303B08111F7CFCF911F910F910895813031F0C2
S11303C070F0823031F0833039F00AC090E4960F37
S11303D007C090E1960F04C090E5960F01C0962FD8
S11303E0892F80680E94870008951F920F920FB68C
S11303F00F9211242F933F934F935F936F937F93A7
S11304008F939F93AF93BF93EF93FF93E0918500F6
S1130410F0918600309709F00995FF91EF91BF9113
S1130420AF919F918F917F916F915F914F913F9188
S11304302F910F900FBE0F901F9018951F920F923F
S11304400FB60F9211242F933F934F935F936F93A3
S11304507F938F939F93AF93BF93EF93FF93E09119
S11304608900F0918A00309709F00995FF91EF9186
S1130470BF91AF919F918F917F916F915F914F91B8
S11304803F912F910F900FBE0F901F9018951F92C0
S11304900F920FB60F9211242F933F934F935F93B4
S11304A06F937F938F939F93AF93BF93EF93FF9338
S11304B0E0918B00F0918C00309709F00995FF9141
S11304C0EF91BF91AF919F918F917F916F915F91C8
S11304D04F913F912F910F900FBE0F901F90189541
S11304E01F920F920FB60F9211242F933F934F93A5
S11304F05F936F937F938F939F93AF93BF93EF9388
S1130500FF93E0918700F0918800309709F00995F6
S1130510FF91EF91BF91AF919F918F917F916F91D7
S11305205F914F913F912F910F900FBE0F901F90AD
S11305301895683008F07BC0843008F07AC04230E7
S113054008F079C0813011F130F08230D1F183307C
S113055009F452C072C0413061F42AB381E090E0E2
S113056002C0880F991F6A95E2F7822B8ABB80E04C
S113057008952AB381E090E002C0880F991F6A951C
S1130580E2F7809582238ABB80E00895413061F4CC
S113059027B381E090E002C0880F991F6A95E2F7C3
S11305A0822B87BB80E0089527B381E090E002C0EE
S11305B0880F991F6A95E2F78095822387BB80E0B4
S11305C00895413061F424B381E090E002C0880FC3
S11305D0991F6A95E2F7822B84BB80E0089524B3C7
S11305E081E090E002C0880F991F6A95E2F7809538
S11305F0822384BB80E00895413061F421B381E01B
S113060090E002C0880F991F6A95E2F7822B81BBA4
S113061080E0089521B381E090E002C0880F991F23
S11306206A95E2F78095822381BB80E0089581E09A
S1130630089582E0089583E0089580E00895683085
S113064008F07BC0843008F07AC0423008F079C0EA
S1130650813011F130F08230D1F1833009F452C08D
S113066072C0413061F42BB381E090E002C0880F86
S1130670991F6A95E2F7822B8BBB80E008952BB318
S113068081E090E002C0880F991F6A95E2F7809597
S113069082238BBB80E00895413061F428B381E06C
S11306A090E002C0880F991F6A95E2F7822B88BBFD
S11306B080E0089528B381E090E002C0880F991F7C
S11306C06A95E2F78095822388BB80E008954130E3
S11306D061F425B381E090E002C0880F991F6A9508
S11306E0E2F7822B85BB80E0089525B381E090E09A
S11306F002C0880F991F6A95E2F78095822385BB13
S113070080E00895413061F422B381E090E002C0BA
S1130710880F991F6A95E2F7822B82BB80E00895C7
S113072022B381E090E002C0880F991F6A95E2F736
S11307308095822382BB80E0089581E0089582E061
S1130740089583E0089580E00895880F82B908959C
S113075086B7806886BF06B607FEFDCF81B1869551
S1130760869586958C3061F086B7806486BF86B79F
S1130770806886BF86B7846086BF06B607FEFDCF55
S113078081B183B108951F920F920FB60F92112475
S11307902F933F934F935F936F937F938F939F9385
S11307A0AF93BF93EF93FF93E0918D00F0918E0090
S11307B0309709F00995FF91EF91BF91AF919F9107
S11307C08F917F916F915F914F913F912F910F90F6
S11307D00FBE0F901F9018951F920F920FB60F9295
S11307E011242F933F934F935F936F937F938F9332
S11307F09F93AF93BF93EF93FF93E0918F00F0919A
S11308009000309709F00995FF91EF91BF91AF9156
S11308109F918F917F916F915F914F913F912F9114
S11308200F900FBE0F901F9018951F920F920FB646
S11308300F9211242F933F934F935F936F937F9362
S11308408F939F93AF93BF93EF93FF93E0919100A6
S1130850F0919200309709F00995FF91EF91BF91C3
S1130860AF919F918F917F916F915F914F913F9144
S11308702F910F900FBE0F901F9018951F920F92FB
S11308800FB60F9211242F933F934F935F936F935F
S11308907F938F939F93AF93BF93EF93FF93E091D5
S11308A09700F0919800309709F00995FF91EF9126
S11308B0BF91AF919F918F917F916F915F914F9174
S11308C03F912F910F900FBE0F901F9018951F927C
S11308D00F920FB60F9211242F933F934F935F9370
S11308E06F937F938F939F93AF93BF93EF93FF93F4
S11308F0E0919900F0919A00309709F00995FF91E1
S1130900EF91BF91AF919F918F917F916F915F9183
S11309104F913F912F910F900FBE0F901F901895FC
S11309201F920F920FB60F9211242F933F934F9360
S11309305F936F937F938F939F93AF93BF93EF9343
S1130940FF93E0919300F0919400309709F009959A
S1130950FF91EF91BF91AF919F918F917F916F9193
S11309605F914F913F912F910F900FBE0F901F9069
S113097018951F920F920FB60F9211242F933F9345
S11309804F935F936F937F938F939F93AF93BF9393
S1130990EF93FF93E0919500F0919600309709F062
S11309A00995FF91EF91BF91AF919F918F917F91A5
S11309B06F915F914F913F912F910F900FBE0F90C8
S11309C01F9018951F920F920FB60F9211242F9318
S11309D03F934F935F936F937F938F939F93AF93C3
S11309E0BF93EF93FF93E0919B00F0919C003097AD
S11309F009F00995FF91EF91BF91AF919F918F916C
S1130A007F916F915F914F913F912F910F900FBE06
S1130A100F901F9018951F920F920FB60F921124EA
S1130A202F933F934F935F936F937F938F939F93F2
S1130A30AF93BF93EF93FF93E0919F00F091A000D9
S1130A40309709F00995FF91EF91BF91AF919F9174
S1130A508F917F916F915F914F913F912F910F9063
S1130A600FBE0F901F9018951F920F920FB60F9202
S1130A7011242F933F934F935F936F937F938F939F
S1130A809F93AF93BF93EF93FF93E0919D00F091F9
S1130A909E00309709F00995FF91EF91BF91AF91B6
S1130AA09F918F917F916F915F914F913F912F9182
S1110AB00F900FBE0F901F901895F894FFCF73
S1130ABE49324320524543454956450052656365C4
S1130ACE6976696E672E2E005278443A2000446F80
S1070ADE6E6521001C
S9030000FC
